:020000040800F2
:1000000000000520A57E0008956D0008A36D00087E
:10001000A96D0008AF6D0008B56D00080000000074
:10002000000000000000000000000000BB6D0008A0
:10003000C96D000800000000D76D0008E56D0008DC
:10004000F57E0008F57E0008F57E0008F57E0008C4
:10005000F57E0008F57E0008F57E0008F57E0008B4
:10006000F57E0008F57E0008F57E0008F57E0008A4
:10007000F57E0008F57E0008F57E0008F57E000894
:10008000F57E0008F57E0008F57E0008F57E000884
:10009000F57E0008F57E0008F57E0008F57E000874
:1000A000F57E0008F57E0008F57E0008F57E000864
:1000B000F56D0008F57E0008F57E0008F57E000865
:1000C000F57E0008F57E0008F57E0008457B0008F7
:1000D000F57E0008F57E0008F57E0008F57E000834
:1000E000F57E0008F57E0008F57E0008F57E000824
:1000F000F57E0008F57E0008F57E0008F57E000814
:10010000F57E0008F57E0008F57E0008F57E000803
:100110002D6E0008F57E0008F57E0008F57E0008CB
:10012000F57E0008F57E0008F57E0008F57E0008E3
:10013000F57E0008F57E0008F57E0008F57E0008D3
:10014000F57E0008F57E0008F57E0008F57E0008C3
:10015000F57E0008F57E0008F57E0008F57E0008B3
:10016000F57E0008F57E0008F57E0008F57E0008A3
:10017000F57E0008F57E0008F57E0008000000000E
:10018000F57E0008F57E0008F57E0008F57E000883
:10019000F57E0008F57E0008F57E0008F57E000873
:1001A000F57E0008F57E0008F57E0008F57E000863
:1001B000F57E0008F57E0008F57E0008F57E000853
:0801C000F57E0008F57E000841
:100200000348044B834202D0034B03B118477047A5
:100210004801002048010020000000000548064970
:10022000091A891001EBD171491002D0034B03B1B7
:1002300018477047480100204801002000000000D6
:1002400010B5064C237843B9FFF7DAFF044B13B11E
:100250000448AFF300800123237010BD4801002043
:1002600000000000F87E000808B5044B1BB10449EB
:100270000448AFF30080BDE80840CFE7000000006D
:100280004C010020F87E000853B94AB9002908BF84
:1002900000281CBF4FF0FF314FF0FF3000F072B963
:1002A000ADF1080C6DE904CE00F006F8DDF804E0CD
:1002B000DDE9022304B070472DE9F047089E0446AB
:1002C0008846002B4BD18A42154667D9B2FA82F292
:1002D0004AB1C2F1200701FA02F320FA07F795406C
:1002E00047EA030894404FEA154E230CB8FBFEF78B
:1002F0001FFA85FC0EFB178843EA084307FB0CF145
:10030000994209D9EB1807F1FF3080F01B8199421F
:1003100040F21881023F2B445B1AA4B2B3FBFEF0FB
:100320000EFB103344EA034400FB0CFCA44509D93E
:100330002C1900F1FF3380F00781A44540F20481BD
:1003400002382C4440EA0740A4EB0C0400271EB1FD
:10035000D4400023C6E900433946BDE8F0878B420C
:1003600009D9002E00F0EB800027C6E900013846CD
:100370003946BDE8F087B3FA83F7002F47D18B42A7
:1003800002D3824200F2FA80841A61EB0303012057
:100390009846002EE0D0C6E90048DDE702B9FFDE4E
:1003A000B2FA82F2002A40F08F80491B4FEA154EC4
:1003B0001FFA85F80127B1FBFEFC230C0EFB1C1174
:1003C00043EA014308FB0CF1994207D9EB180CF101
:1003D000FF3002D2994200F2CD808446591AA3B26E
:1003E000B1FBFEF00EFB101443EA044408FB00F8D6
:1003F000A04507D92C1900F1FF3302D2A04500F225
:10040000B6801846A4EB080440EA0C409FE7C7F109
:10041000200CBB4022FA0CFE4EEA030E01FA07F450
:1004200020FA0CF521FA0CF34FEA1E482543B3FBE2
:10043000F8F92C0C08FB19331FFA8EFA44EA03432F
:1004400009FB0AF49C4202FA07F200FA07F10BD901
:100450001EEB030309F1FF3080F087809C4240F2DD
:100460008480A9F1020973441B1BADB2B3FBF8F001
:1004700008FB103345EA034400FB0AFAA24508D9F9
:100480001EEB040400F1FF336BD2A24569D9023898
:10049000744440EA0940A0FB0289A4EB0A044C45DD
:1004A000C2464B4654D351D0002E69D0B1EB0A0559
:1004B00064EB030404FA0CFCFD40FC404CEA050527
:1004C000C6E90054002747E7C2F1200320FA03F7EA
:1004D000954001FA02F021FA03F34FEA154E384332
:1004E000010CB3FBFEF71FFA85F80EFB173341EA48
:1004F000034107FB08F38B4204FA02F407D9691899
:1005000007F1FF3C2FD28B422DD9023F2944CB1A51
:1005100081B2B3FBFEF00EFB103341EA034100FB56
:1005200008F38B4207D9691800F1FF3C17D28B42C0
:1005300015D902382944C91A40EA07473BE737462C
:10054000304609E70746E7E61846FBE64145ABD2E9
:10055000B8EB020A69EB0E0201381346A4E76046C5
:10056000E9E7184695E76746D1E781467CE7023818
:100570002C4447E7ACF1020C2B442FE7384608E740
:100580003746E9E6704700BF70B50D4E0D4D761B3E
:10059000B61006D00024013455F8043B9847A64213
:1005A000F9D1094E094D761B07F0A6FCB61006D00E
:1005B0000024013455F8043B9847A642F9D170BD98
:1005C000B0800008B0800008B4800008B080000847
:1005D000024B0146186800F0F9B800BFC0000020C7
:1005E000024B0146186800F09DB800BFC000002013
:1005F000844641EA000313F003036DD1403A41D32E
:1006000051F8043B40F8043B51F8043B40F8043BEC
:1006100051F8043B40F8043B51F8043B40F8043BDC
:1006200051F8043B40F8043B51F8043B40F8043BCC
:1006300051F8043B40F8043B51F8043B40F8043BBC
:1006400051F8043B40F8043B51F8043B40F8043BAC
:1006500051F8043B40F8043B51F8043B40F8043B9C
:1006600051F8043B40F8043B51F8043B40F8043B8C
:1006700051F8043B40F8043B51F8043B40F8043B7C
:10068000403ABDD2303211D351F8043B40F8043B1C
:1006900051F8043B40F8043B51F8043B40F8043B5C
:1006A00051F8043B40F8043B103AEDD20C3205D32C
:1006B00051F8043B40F8043B043AF9D2043208D024
:1006C000D2071CBF11F8013B00F8013B01D30B8896
:1006D00003806046704700BF082A13D38B078DD074
:1006E00010F003038AD0C3F10403D21ADB071CBF46
:1006F00011F8013B00F8013B80D331F8023B20F8B0
:10070000023B7BE7043AD9D3013A11F8013B00F8E8
:10071000013BF9D20B7803704B7843708B78837070
:100720006046704779B338B551F8043C0C1F002B74
:10073000B8BFE418054600F051F9234B1A682AB1F6
:10074000A2420DD921686018824230D062602846EA
:100750001C60BDE8384000F043B9A34203D81A46F4
:100760005368002BF9D111685018A04213D00BD850
:1007700021686018834220D0636054602846BDE839
:10078000384000F02DB970470C232B602846BDE897
:10079000384000F025B920680144501883421160A8
:1007A000ECD1D3E90003014453601160E6E7D2E9DC
:1007B0000002014462602160C9E7D3E900030144FB
:1007C000636021605460D9E764010020F8B5CD1C56
:1007D00025F0030508350C2D38BF0C25002D0646E5
:1007E0003ADBA94238D82A4F00F0F8F83A6852B1FB
:1007F00013685B1B04D433E023685B1B25D52246BA
:100800005468002CF8D1796800293BD0294630463D
:1008100000F040F8431C2AD0C41C24F00304A0427A
:1008200005D0211A304600F035F801301FD0256080
:10083000304600F0D5F804F10B0020F00700231D2E
:10084000C31A01D05A42E250F8BD0B2B0BD8A2427A
:1008500015D063685360EBE70C2333600020F8BDCC
:100860000B2B0BD9144623601C442560E0E70C23B6
:100870003046336000F0B4F80020F8BD54683C60A6
:100880001446D5E7304600F005F87860BEE700BFB3
:100890006401002038B5074C002305460846236054
:1008A00000F070FD431C00D038BD2368002BFBD046
:1008B0002B6038BD8009002000000000000000000F
:1008C00090F800F06DE9024520F007016FF0000C90
:1008D00010F0070491F820F040F049804FF0000438
:1008E0006FF00700D1E9002391F840F000F1080013
:1008F00082FA4CF2A4FA8CF283FA4CF3A2FA8CF34B
:100900004BBBD1E9022382FA4CF200F10800A4FAB1
:100910008CF283FA4CF3A2FA8CF3E3B9D1E9042305
:1009200082FA4CF200F10800A4FA8CF283FA4CF33C
:10093000A2FA8CF37BB9D1E9062301F1200182FAF6
:100940004CF200F10800A4FA8CF283FA4CF3A2FAFC
:100950008CF3002BC6D0002A04BF04301A4612BA0A
:10096000B2FA82F2FDE8024500EBD2007047D1E90D
:10097000002304F00305C4F100004FEAC50514F09C
:10098000040F91F840F00CFA05F562EA05021CBF6D
:1009900063EA050362464FF00004A9E730B59BB057
:1009A000074D00916FF00044049169460594CDE92C
:1009B000024500F0F1F8009B00221A701BB030BD18
:1009C0000802FFFF10B4044C13460A460146206893
:1009D0005DF8044BFFF7E2BFC0000020704700BF86
:1009E000704700BF2DE9F0478E681D46AE420C46A9
:1009F0000B68174627D88046888910F4906F31D04D
:100A0000D1E9041606EB4606A3EB010906EBD67600
:100A10006B1C76104B44B342324684BF1E463246AE
:100A2000430521D511464046FFF7D0FE824678B3F4
:100A30004A462169FFF7DCFDA38923F4906343F064
:100A40008003A38115E02E4618462A46394600F059
:100A500007FCA2682368961B2B44A6602360002035
:100A6000BDE8F0873546EFE7404600F05DFC824682
:100A700050B1A6EB09020AEB09036661C4F810A0A5
:100A80002360A2602E46DFE721694046FFF74AFE59
:100A90000C23C8F80030A38943F04003A3814FF032
:100AA000FF30DDE72DE9F04F936883B09046002BCF
:100AB0006CD017688D6882460C460868083742E09B
:100AC000A38913F4906F2DD0D4E9041505EB4505E7
:100AD000A0EB010B05EBD575701C6D105844A842B6
:100AE0002A4684BF05462A465B0536D51146504640
:100AF000FFF76CFE00283AD05A4621690190FFF7B3
:100B000077FDA289019B22F4906242F08002A281CB
:100B1000A5EB0B0203EB0B00656123612060A26073
:100B20003546B3465A46494600F09AFBD8F8083095
:100B3000A2682068551B58449E1BA5602060C8F819
:100B400008601EB3083757E90296AB46002EF9D06D
:100B5000AE42B5D23546B346E4E7504600F0E4FB7A
:100B600003460028D4D121695046FFF7DBFD0C2352
:100B7000CAF80030A389002243F040034FF0FF3051
:100B8000A381C8E9012203B0BDE8F08F0020C8F8B6
:100B9000040003B0BDE8F08F2DE9F04F14468A89B8
:100BA0009FB015068946029003D50A69002A00F015
:100BB0001281059330238DF832302378904E002136
:100BC00020220B918DF831200127002B00F092801C
:100BD000252B254603D118E0252B00F0BD8015F804
:100BE000013F002BF8D1B5EB040B00F083802246C7
:100BF0005B4649460298FFF7F5FE01307AD00B9B21
:100C00002A785B440B93002A74D000234FF0FF3204
:100C100001350693CDE908338DF85B301C930792BC
:100C200005E0069A07FA03F3134355460693AA46CE
:100C300005221AF8011B304600F0C2FAD346831B86
:100C40000028EED1069BD90644BF20228DF85B20F8
:100C500029781A0744BF2B228DF85B202A2953D00C
:100C6000A1F13003092B00F2AB80099A02E055464E
:100C70000AF1010A9AF8001002EB820203EB420229
:100C8000A1F13003092BD346F1D905F1020A0992EB
:100C90002E2945D05B4C0322204600F091FA002813
:100CA00057D0001B069A402404FA00F00243069233
:100CB0000AF101049AF8001053488DF8301006220A
:100CC00000F07EFA002859D0504B002B49D005ABDC
:100CD00000934A464E4B029806A9AFF30080804627
:100CE000B8F1FF3F06D00B9B43440B932378002BB6
:100CF0007FF46EAFB9F80C305B0654BF0B984FF021
:100D0000FF301FB0BDE8F08F059A1168043200294A
:100D100005922DDB099169782E2905F1020AB9D1D6
:100D20009BF801102A2933D1059B9BF802101A6801
:100D300007920433002A05930BF102000BF1030A1A
:100D400040DB304C83460322204600F039FA00286D
:100D5000A7D15446DA46ADE7B5EB040B3FF455AFE7
:100D600045E7059B073323F0070308330593BAE7EC
:100D7000494243F0020309910693CCE705AB009387
:100D80004A46234B029806A900F0D2F88046A7E70E
:100D9000A1F1300000220928079201D917E0DA46B4
:100DA0009AF8011002EB820200EB4202A1F130003E
:100DB00009280AF1010BF2D90AF1020A079269E740
:100DC000AB4665E74FF0FF328346079262E7D346B2
:100DD0000AF1010A5EE740210393FFF7F7FC039B4A
:100DE000C9F80000C9F8100018B14022C9F8142051
:100DF000DFE6029A0C2313604FF0FF3081E700BF5B
:100E00006C800008748000087880000800000000F2
:100E1000E50900082DE9F0470C4691460A69896802
:100E2000DDF820808A42B8BF0A46C9F8002094F84D
:100E3000431006461F4611B10132C9F8002023684D
:100E400099065FD5D9F800200232C9F8002023683E
:100E500013F0060F19461DD1E1688A1A002AD8BF7F
:100E6000194617DD04F1190A002505E0E368D9F8F1
:100E700000209B1AAB420CDD012352463946304616
:100E8000C047013005F10105F0D14FF0FF30BDE85A
:100E9000F087216894F84330003318BF01238A0695
:100EA0000AD5E1185A1C302081F84300224494F8F6
:100EB000451082F84310023304F1430239463046AC
:100EC000C0470130E1D02368D9F80050216903F010
:100ED0000603042BD4E902201AD08A421FDD4FF00A
:100EE0000009521A91441A34002501E04D4516D0EC
:100EF0000123224639463046C047013005F101053D
:100F0000F4D1C2E713F0060F0CD1D9F80020A3E703
:100F1000401B8A4220EAE079E3DC0028E3DC002081
:100F2000BDE8F08794F84330003318BF0123C3E7CE
:100F30002DE9F0430C46097E85B06E2906460C9DCE
:100F40001746984604F1430C4AD00FD8632900F0A5
:100F5000FF8000F2BF8000294ED0582940F0E18088
:100F600084F845102268DFF844E212E0732900F0AB
:100F7000C6807AD86F2900F0DB80702940F0D180DC
:100F8000206840F0200222607823DFF824E284F811
:100F900045302B68191D1B682960150602D45006C0
:100FA00048BF9BB2D10744BF42F020022260002B11
:100FB0006DD1D4E9001284F84330002A21F02003D7
:100FC0002360A2607EDB21F0240121601021002A31
:100FD00079D1654608294ED0ACEB050323610EE0BC
:100FE0002B6822686169181D286015061B6802D4E9
:100FF000500600F1C7801960002365462361CDF8D3
:1010000000803B4603AA21463046FFF703FF01302C
:1010100020D02A46236939463046C047013019D0CE
:1010200022680398E368920719D51A1A002A16DD78
:1010300004F11909002504E0E36803981A1AAA428A
:101040000DDD01234A4639463046C047013005F1DF
:101050000105F1D14FF0FF3005B0BDE8F0839842B3
:10106000B8BF184605B0BDE8F083752960D078296F
:1010700057D1226888E72368DB07ADD5626823690A
:101080009A42A9DC302305F8013C013DA4E7102178
:10109000002284F843206268A260002A2CDB2068CA
:1010A00020F004002060002B91D06546B3FBF1F2E4
:1010B00001FB123013461EF8002005F8012D002B0D
:1010C000F4D187E710219EF8003084F8423004F113
:1010D00042057FE7642901D0692922D120682B6865
:1010E000010603F1040245D51B682A60002B4BDB87
:1010F000DFF8B8E00A21CEE7002BD6D1E3E72B6872
:101100006268191D29601D680021284600F058F802
:10111000002848D0401B60602061002384F84330E1
:101120006DE7012384F84210236104F14205F4E7DE
:1011300020682B6810F0800F03F1040213D01B68A5
:101140002A606F290CBF08210A21DFF860E09FE7C1
:101150002B681A68191D0123296084F84220236135
:1011600004F14205D9E7400653BF1B682A601B887B
:101170002A60E6E7410653BF1B682A60B3F90030D6
:101180002A60B3E7198037E76268A2602D21002A40
:1011900084F84310C3F10003DFF810E04FF00A01B8
:1011A000BFF67EAF81E76068B6E700BF80800008C9
:1011B0009480000800000000000000000000000013
:1011C00001F0FF01102A2BDB10F0070F08D010F8F8
:1011D000013B013A8B422DD010F0070F42B3F6D1FC
:1011E000F0B441EA012141EA014122F007047FF015
:1011F00000070023F0E80256083C85EA010586EA6C
:10120000010685FA47F5A3FA87F586FA47F6A5FAA7
:1012100087F68EB9EED1F0BC01F0FF0102F00702B3
:1012200032B110F8013B013A83EA010313B1F8D15E
:101230000020704701387047002D06BF354603383F
:10124000073815F0010F07D1013015F4807F02BF78
:10125000013015F4C03F0130F0BC0138704700BFC9
:101260008842F0B40DD98B1883420AD9841832B160
:10127000224613F8014D02F8014D9942F9D1F0BC14
:1012800070470F2A49D940EA01039B0747D1A2F1D1
:1012900010031B0901F1200707EB031701F11004EC
:1012A00000F1100554F8106C45F8106C54F80C6CF3
:1012B00045F80C6C54F8086C45F8086C54F8046C4C
:1012C00045F8046C1034BC4205F11005EAD1013335
:1012D00002F00F051B01032D1944034421D91F1FE0
:1012E0000E462C46043C56F804CB47F804CF032C9A
:1012F000F8D82C1F24F0030404342344214402F0C2
:101300000302002ABBD0013B0A4411F8014B03F849
:10131000014F9142F9D1F0BC70470346F1E7034613
:10132000F1E72A46EDE700BFE1B1F8B51446E2B1B6
:1013300006460D4600F01EF8A04202D32F4638465E
:10134000F8BD21463046FFF741FA07460028F6D09F
:1013500022462946FFF74CF930462946FFF7E2F9C5
:101360003846F8BD1146FFF731BAFFF7DBF92746DB
:10137000E5E700BF51F8043C181F002BBCBF0B5819
:10138000C0187047044A05491368002B08BF0B4674
:1013900018441060184670476C010020880900202E
:1013A00080B582B000AF78607B68002B01D101234B
:1013B0007FE07B6893F84130DBB2002B06D17B687D
:1013C000002283F84020786805F0CCFB7B6824225B
:1013D00083F841207B681B681A687B681B6822F0D1
:1013E00001021A607B685A687B681B6822F0706291
:1013F0001A617B681B689A687B681B6822F400424C
:101400009A607B68DB68012B07D17B689A687B68F0
:101410001B6842F400429A6006E07B689A687B6829
:101420001B6842F404429A607B68DB68022B04D19B
:101430007B681B684FF400625A607B681B685968C0
:101440007B681A681D4B0B4353607B681B68DA6826
:101450007B681B6822F40042DA607B681A697B684B
:101460005B6942EA03017B689B691A027B681B681F
:101470000A43DA607B68D9697B681A6A7B681B68F3
:101480000A431A607B681B681A687B681B6842F015
:1014900001021A607B6800225A647B68202283F86C
:1014A00041207B6800221A637B68002283F8422077
:1014B000002318460837BD4680BD00BF00800002EB
:1014C00080B582B000AF78607B68002B01D101232A
:1014D00021E07B68242283F841207B681B681A681E
:1014E0007B681B6822F001021A60786805F0F0FB47
:1014F0007B6800225A647B68002283F841207B6865
:1015000000221A637B68002283F842207B68002255
:1015100083F84020002318460837BD4680BD0000F0
:1015200080B586B000AFF860B960C7E90023012339
:10153000FB75274B1B7D012B01D1022343E0244B7C
:1015400001221A754CF2503000F078F80346FB7512
:10155000FB7D002B33D1FB68032B23D801A252F86B
:1015600023F000BF75150008811500088D150008CF
:10157000991500083B781946B86800F019F912E08F
:101580003B881946B86800F0EDF80CE03B68194656
:10159000B86800F0C3F806E0D7E90023B86800F0A7
:1015A0008DF800E000BF4CF2503000F047F80346E1
:1015B000FB75084B1B69074A23F001031361044BB9
:1015C00000221A75FB7D18461837BD4680BD00BF46
:1015D0002C030020003C024080B483B000AF002305
:1015E000FB710B4B1B69002B0BDA094B094A5A6044
:1015F000074B094A5A60064B1B69002B01DA01238D
:10160000FB71FB7918460C37BD465DF8047B7047CB
:10161000003C024023016745AB89EFCD80B400AFA9
:10162000054B1B69044A43F000431361002318462D
:10163000BD465DF8047B7047003C024080B584B035
:1016400000AF78600023FB601A4B00229A6101F022
:101650001DFAF86010E07B68B3F1FF3F0CD07B68A7
:10166000002B07D001F012FA0246FB68D31A7A6801
:101670009A4201D2032319E00F4BDB6803F4803355
:10168000002BE8D10C4BDB6803F0F203002B03D0F6
:1016900000F0B2F8012309E0074BDB6803F0010317
:1016A000002B02D0044B0122DA60002318461037C9
:1016B000BD4680BD2C030020003C024090B484B0A5
:1016C00000AFF860C7E90023134B1B69124A23F4EB
:1016D00040731361104B1B690F4A43F4407313614D
:1016E0000D4B1B690C4A43F001031361FB683A6818
:1016F0001A60D7E900124FF000034FF00004130006
:101700000024FA6804321360BFF34F8F00BF103714
:10171000BD4690BC704700BF003C024080B483B01F
:1017200000AF786039600E4B1B690D4A23F440739B
:1017300013610B4B1B690A4A43F400731361084B96
:101740001B69074A43F0010313617B683A681A601A
:10175000BFF34F8F00BF0C37BD465DF8047B704769
:10176000003C024080B483B000AF78600B467B80C1
:101770000E4B1B690D4A23F4407313610B4B1B691D
:101780000A4A43F480731361084B1B69074A43F00C
:10179000010313617B687A881A80BFF34F8F00BF03
:1017A0000C37BD465DF8047B704700BF003C02402B
:1017B00080B483B000AF78600B46FB700D4B1B69A3
:1017C0000C4A23F4407313610A4B0A4A1B691361E4
:1017D000084B1B69074A43F0010313617B68FA78E1
:1017E0001A70BFF34F8F00BF0C37BD465DF8047B06
:1017F000704700BF003C024080B400AF214BDB6863
:1018000003F00203002B05D01F4B9B6943F020031C
:101810001D4A93611B4BDB6803F01003002B05D0BE
:10182000194B9B6943F01003174A9361154BDB6812
:1018300003F02003002B05D0134B9B6943F00803F2
:10184000114A93610F4BDB6803F04003002B05D076
:101850000D4B9B6943F004030B4A9361094BDB6812
:1018600003F08003002B05D0074B9B6943F0020374
:10187000054A9361034BF222DA6000BFBD465DF872
:10188000047B7047003C02402C03002080B485B0EC
:1018900000AF78607B6803F00703FB600B4BDB68ED
:1018A000BB60BA684FF6FF031340BB60FB681A02C7
:1018B000BB681A43064B1343BB60044ABB68D36042
:1018C00000BF1437BD465DF8047B704700ED00E0B3
:1018D0000000FA0580B400AF044BDB681B0A03F07C
:1018E00007031846BD465DF8047B704700ED00E035
:1018F00080B483B000AF0346FB71FB7903F01F0295
:10190000074997F907305B09012000FA02F241F814
:10191000232000BF0C37BD465DF8047B704700BF35
:1019200000E100E080B483B000AF0346FB71FB79B7
:1019300003F01F02074997F907305B09012000FAFD
:1019400002F2203341F8232000BF0C37BD465DF87A
:10195000047B704700E100E080B483B000AF034631
:101960003960FB7197F90730002B0BDA3B68DAB26C
:101970000C49FB7903F00F03043B1201D2B20B4474
:101980001A7609E03B68DAB2074997F90730120185
:10199000D2B20B4483F8002300BF0C37BD465DF87C
:1019A000047B704700ED00E000E100E080B489B006
:1019B00000AFF860B9607A60FB6803F00703FB6171
:1019C000FB69C3F10703042B28BF0423BB61FB6938
:1019D0000433062B02D9FB69033B00E000237B6143
:1019E0004FF0FF32BB6902FA03F3DA43BB681A40D7
:1019F0007B699A404FF0FF317B6901FA03F3D943C9
:101A00007B680B40134318462437BD465DF8047BC2
:101A10007047000080B582B000AF78607B68013B02
:101A2000B3F1807F01D301230FE00A4A7B68013BB9
:101A300053600F214FF0FF30FFF78EFF054B002260
:101A40009A60044B07221A60002318460837BD46E7
:101A500080BD00BF10E000E080B582B000AF7860CC
:101A60007868FFF713FF00BF0837BD4680BD80B51B
:101A700086B000AF0346B9607A60FB7300237B61D8
:101A8000FFF728FF78617A68B9687869FFF78EFFF9
:101A9000024697F90F3011461846FFF75DFF00BF69
:101AA0001837BD4680BD80B582B000AF0346FB71DC
:101AB00097F907301846FFF71BFF00BF0837BD46F0
:101AC00080BD80B582B000AF0346FB7197F9073047
:101AD0001846FFF727FF00BF0837BD4680BD80B519
:101AE00082B000AF78607868FFF794FF034618462D
:101AF0000837BD4680BD000080B483B000AF786079
:101B00007B68042B06D1094B1B68084A43F0040389
:101B1000136005E0054B1B68044A23F004031360BF
:101B200000BF0C37BD465DF8047B704710E000E055
:101B300080B500AF00F002F800BF80BD80B400AFF8
:101B400000BFBD465DF8047B704780B582B000AF32
:101B500078607B68002B01D1012343E07B6893F818
:101B60006930DBB2002B06D17B68002283F8682045
:101B7000786804F0D9FD7B68242283F869207B68AB
:101B80001B681A687B681B6822F001021A6078687B
:101B900000F0B2FB0346012B01D1012322E07B6858
:101BA0005B6A002B02D0786800F016FE7B681B6829
:101BB0005A687B681B6822F490425A607B681B68F5
:101BC0009A687B681B6822F02A029A607B681B680F
:101BD0001A687B681B6842F001021A60786800F09E
:101BE0009DFE034618460837BD4680BD80B588B0C7
:101BF00002AFF860B9603B601346FB8000237B6155
:101C0000FB6893F86930DBB2202B76D1BB68002BE0
:101C100002D0FB88002B01D101236FE0FB6893F811
:101C20006830012B01D1022368E0FB68012283F8B0
:101C30006820FB680022DA66FB68212283F86920AD
:101C400000F024FF7861FB68FA88A3F85020FB6855
:101C5000FA88A3F8522033E0FB68B3F852309BB205
:101C6000013B9AB2FB68A3F852203B6800937B6962
:101C700000228021F86800F0D3F90346002B01D040
:101C800003233BE0FB689B68B3F5805F11D1FB68E1
:101C90001B69002B0DD1BB683B613B691B881A4651
:101CA000FB681B68C2F308029A62BB680233BB6020
:101CB00006E0BB685A1CBA601A78FB681B689A6217
:101CC000FB68B3F852309BB2002BC5D13B68009340
:101CD0007B6900224021F86800F0A2F90346002B3E
:101CE00001D003230AE0FB68202283F86920FB6807
:101CF000002283F86820002300E0022318461837EA
:101D0000BD4680BD80B485B000AFF860B9601346B1
:101D1000FB80FB6893F86A30DBB2202B72D1BB6882
:101D2000002B02D0FB88002B01D101236BE0FB6864
:101D300093F86830012B01D1022364E0FB68012293
:101D400083F86820FB68BA685A65FB68FA88A3F8CC
:101D50005820FB68FA88A3F85A20FB689B68B3F503
:101D6000805F0ED1FB681B69002B05D1FB6840F238
:101D7000FF12A3F85C2028E0FB68FF22A3F85C2098
:101D800023E0FB689B68002B0DD1FB681B69002BCF
:101D900004D1FB68FF22A3F85C2016E0FB687F22D9
:101DA000A3F85C2011E0FB689B68B3F1805F0CD165
:101DB000FB681B69002B04D1FB687F22A3F85C2021
:101DC00003E0FB683F22A3F85C20FB680022DA6690
:101DD000FB68222283F86A20FB68002283F86820CF
:101DE000FB681B689A68FB681B6842F001029A60F6
:101DF000FB681B681A68FB681B6842F490721A60E3
:101E0000002300E0022318461437BD465DF8047B2A
:101E10007047000080B586B000AF78607B681B68B3
:101E2000DB697B617B681B681B683B617B681B68A7
:101E30009B68FB607B6903F00F03BB60BB68002BF2
:101E40000DD17B6903F02003002B08D03B6903F020
:101E50002003002B03D0786800F0C5F9DAE0BB68F6
:101E6000002B00F0B980FB6803F00103002B05D1C3
:101E70003B6903F49073002B00F0AE807B6903F0A4
:101E80000103002B0ED03B6903F48073002B09D0B3
:101E90007B681B6801221A627B68DB6E43F00102DB
:101EA0007B68DA667B6903F00203002B0ED0FB68C7
:101EB00003F00103002B09D07B681B6802221A6221
:101EC0007B68DB6E43F004027B68DA667B6903F0B3
:101ED0000403002B0ED0FB6803F00103002B09D094
:101EE0007B681B6804221A627B68DB6E43F0020287
:101EF0007B68DA667B6903F00803002B13D03B692B
:101F000003F02003002B04D1FB6803F00103002B36
:101F100009D07B681B6808221A627B68DB6E43F07D
:101F200008027B68DA667B68DB6E002B71D07B6908
:101F300003F02003002B07D03B6903F02003002BA4
:101F400002D0786800F04FF97B68DB6E03F008037D
:101F5000002B06D17B681B689B6803F04003002BB5
:101F600031D0786800F0AAF97B681B689B6803F0A1
:101F70004003002B23D07B681B689A687B681B6832
:101F800022F040029A607B685B6E002B13D07B6866
:101F90005B6E224A1A657B685B6E184603F0D9FABD
:101FA0000346002B16D07B685B6E1B6D7A68526E01
:101FB000104698470EE0786800F09CF80AE07868D0
:101FC00000F098F806E0786800F094F87B6800224A
:101FD000DA661EE000BF1CE07B6903F08003002B83
:101FE00008D03B6903F08003002B03D0786800F031
:101FF0008BF80FE07B6903F04003002B0AD03B69AC
:1020000003F04003002B05D0786800F0D4F800BF3F
:1020100000E000BF1837BD4680BD00BFB5200008F6
:1020200080B584B000AFF860B9603B601346FB71C7
:102030002CE0BB69B3F1FF3F28D0BB69002B07D070
:1020400000F024FD02463B68D31ABA699A421DD8B3
:10205000FB681B681A68FB681B6822F4D0721A6060
:10206000FB681B689A68FB681B6822F001029A6093
:10207000FB68202283F86920FB68202283F86A200D
:10208000FB68002283F8682003230FE0FB681B68CD
:10209000DA69BB681340BA689A420CBF0123002377
:1020A000DBB21A46FB799A42C3D000231846103798
:1020B000BD4680BD80B584B000AF78607B689B6B07
:1020C000FB60FB680022A3F85A20FB680022A3F8FB
:1020D0005220F86800F00EF800BF1037BD4680BDF2
:1020E00080B483B000AF786000BF0C37BD465DF8A8
:1020F000047B704780B483B000AF786000BF0C37BA
:10210000BD465DF8047B704780B485B000AF786051
:102110007B6893F86930DBB2212B45D17B68B3F83B
:1021200052309BB2002B11D17B681B681A687B6808
:102130001B6822F080021A607B681B681A687B6843
:102140001B6842F040021A6000232EE07B689B6807
:10215000B3F5805F14D17B681B69002B10D17B68BD
:10216000DB6CFB60FB681B881A467B681B68C2F34C
:1021700008029A627B68DB6C9A1C7B68DA6408E070
:102180007B68DB6C591C7A68D1641A787B681B68A1
:102190009A627B68B3F852309BB2013B9AB27B687B
:1021A000A3F85220002300E0022318461437BD464E
:1021B0005DF8047B704780B582B000AF78607B68C3
:1021C0001B681A687B681B6822F040021A607B68F3
:1021D000202283F869207868FFF782FF00231846E1
:1021E0000837BD4680BD90B585B000AF78607B688C
:1021F000B3F85C30FB817B6893F86A30DBB2222B4A
:102200004FD17B689B68B3F5805F15D17B681B69F4
:10221000002B11D17B685B6DBB607B681B685B6AC0
:102220009AB2FB8913409AB2BB681A807B685B6DD7
:102230009A1C7B685A650DE07B681B685B6AD9B2A3
:10224000FB89DAB27B685B6D5C1C786844650A4088
:10225000D2B21A707B68B3F85A309BB2013B9BB282
:102260007A681946A2F85A10002B18D17B681B68AF
:102270001A687B681B6822F490721A607B681B687E
:102280009A687B681B6822F001029A607B682022B2
:1022900083F86A20786804F0D3FD00230AE0002365
:1022A00008E07B681B689A697B681B6842F008023B
:1022B0009A61022318461437BD4690BD80B483B09E
:1022C00000AF78607B681B681A687B681B6822F423
:1022D00090721A607B681B689A687B681B6822F0A2
:1022E00001029A607B68202283F86A2000BF0C37C5
:1022F000BD465DF8047B704780B586B000AF78605E
:102300000023FB601023FB7500237B810023BB822D
:102310000023FB747B689A687B681B691A437B689F
:102320005B691A437B68DB691343FB607B681B684E
:102330001A68AD4B13407A681268F9680B43136052
:102340007B681B685B6823F440517B68DA687B68B4
:102350001B680A435A607B689A697B681B6A13434F
:10236000FB607B681B689B6823F430617B681B689B
:10237000FA680A439A607B681B689C4A93421FD1A3
:102380009B4BD3F8903003F00303032B00F2298119
:1023900001A252F823F000BFA9230008B5230008CA
:1023A000AF230008BB2300080123FB7519E10223BA
:1023B000FB7516E10423FB7513E10823FB7510E19F
:1023C0007B681B688B4A934230D1894BD3F890309D
:1023D00003F00C030C2B00F2048101A252F823F04D
:1023E00015240008E3250008E3250008E32500087C
:1023F00021240008E3250008E3250008E325000860
:102400001B240008E3250008E3250008E325000855
:10241000272400080023FB75E3E00223FB75E0E0BE
:102420000423FB75DDE00823FB75DAE07B681B689D
:10243000714A93421CD16E4BD3F8903003F03003B5
:10244000102B0FD0102B02D8002B05D0C9E0202B69
:1024500005D0302B09D0C4E00023FB75C1E0022376
:10246000FB75BEE00423FB75BBE00823FB75B8E0F9
:102470007B681B68614A93421CD15D4BD3F8903056
:1024800003F0C003402B0FD0402B02D8002B05D007
:10249000A7E0802B05D0C02B09D0A2E00023FB755C
:1024A0009FE00223FB759CE00423FB7599E0082361
:1024B000FB7596E07B681B68514A934220D14C4BD8
:1024C000D3F8903003F44073B3F5807F12D0B3F5A6
:1024D000807F02D8002B07D083E0B3F5007F06D0C1
:1024E000B3F5407F09D07CE00023FB7579E002233F
:1024F000FB7576E00423FB7573E00823FB7570E041
:102500007B681B683F4A934220D1394BD3F8903007
:1025100003F44063B3F5806F12D0B3F5806F02D837
:10252000002B07D05DE0B3F5006F06D0B3F5406F28
:1025300009D056E00123FB7553E00223FB7550E000
:102540000423FB754DE00823FB754AE07B681B689C
:102550002D4A934220D1264BD3F8903003F44053B8
:10256000B3F5805F12D0B3F5805F02D8002B07D09F
:1025700037E0B3F5005F06D0B3F5405F09D030E037
:102580000023FB752DE00223FB752AE00423FB7575
:1025900027E00823FB7524E07B681B681B4A9342F5
:1025A00036D1134BD3F8903003F44043B3F5804F4A
:1025B00012D0B3F5804F02D8002B07D011E0B3F54D
:1025C000004F06D0B3F5404F09D00AE00023FB7559
:1025D00007E00223FB7504E00423FB7501E00823F8
:1025E000FB7500BF15E000BFF369FFEF001001406D
:1025F000003802400044004000480040004C0040C9
:10260000005000400014014000780040007C004071
:1026100000BF7B68DB69B3F5004F6CD1FB7D082BF5
:1026200054D801A252F823F04D260008692600086C
:1026300085260008CD2600089B260008CD26000828
:10264000CD260008CD260008B726000801F096F92F
:1026500003465A007B685B685B081A447B685B68CA
:10266000B2FBF3F3BB8234E001F09CF903465A005D
:102670007B685B685B081A447B685B68B2FBF3F3BA
:10268000BB8226E07B685B685A08514B13447A682A
:102690005268B3FBF2F3BB821BE001F08BF80346F8
:1026A0005A007B685B685B081A447B685B68B2FB16
:1026B000F3F3BB820DE07B685B685B0803F5803257
:1026C0007B685B68B2FBF3F3BB8202E00123FB741F
:1026D00000BFBB8A23F00F037B81BB8A5B109BB2D8
:1026E00003F007039AB27B8913437B817B681B68E5
:1026F0007A89DA6067E0FB7D082B61D801A252F885
:1027000023F000BF2927000849270008692700088F
:10271000C127000885270008C1270008C127000835
:10272000C1270008A527000801F028F902467B68A8
:102730005B685B081A447B685B68B2FBF3F39AB290
:102740007B681B68DA603EE001F02CF902467B688A
:102750005B685B081A447B685B68B2FBF3F39AB270
:102760007B681B68DA602EE07B685B685A08194B4F
:1027700013447A685268B3FBF2F39AB27B681B6821
:10278000DA6020E001F016F802467B685B685B08BF
:102790001A447B685B68B2FBF3F39AB27B681B68F0
:1027A000DA6010E07B685B685B0803F500427B68D9
:1027B0005B68B2FBF3F39AB27B681B68DA6002E0F5
:1027C0000123FB7400BFFB7C18461837BD4680BD53
:1027D0000048E8010024F40080B483B000AF7860C2
:1027E0007B685B6A03F00103002B0AD07B681B68DF
:1027F0005B6823F400317B689A6A7B681B680A4334
:102800005A607B685B6A03F00203002B0AD07B6886
:102810001B685B6823F480317B68DA6A7B681B681D
:102820000A435A607B685B6A03F00403002B0AD0FA
:102830007B681B685B6823F480217B681A6B7B686C
:102840001B680A435A607B685B6A03F00803002B2D
:102850000AD07B681B685B6823F400417B685A6B75
:102860007B681B680A435A607B685B6A03F010034D
:10287000002B0AD07B681B689B6823F480517B681F
:102880009A6B7B681B680A439A607B685B6A03F0FB
:102890002003002B0AD07B681B689B6823F400513F
:1028A0007B68DA6B7B681B680A439A607B685B6AAB
:1028B00003F04003002B1AD07B681B685B6823F48D
:1028C00080117B681A6C7B681B680A435A607B68BE
:1028D0001B6CB3F5801F0AD17B681B685B6823F40F
:1028E000C0017B685A6C7B681B680A435A607B682E
:1028F0005B6A03F08003002B0AD07B681B685B686F
:1029000023F400217B689A6C7B681B680A435A6039
:1029100000BF0C37BD465DF8047B704780B586B0BC
:1029200002AF78600023FB607B680022DA6600F06B
:10293000ADF8F8607B681B681B6803F00803082B80
:102940000ED16FF07E430093FB6800224FF400111C
:102950007868FFF765FB0346002B01D003230CE0EA
:102960007B68202283F869207B68202283F86A2014
:102970007B68002283F86820002318461037BD4684
:1029800080BD80B500AF0320FFF766F8002000F09F
:1029900039F805F055FA0023184680BD80B500AF20
:1029A000134B4FF0FF321A62114B00221A62104B88
:1029B0004FF0FF325A620E4B00225A620C4B4FF01E
:1029C000FF321A610A4B00221A61094B4FF0FF32A5
:1029D0005A61074B00225A61054B4FF0FF329A6152
:1029E000034B00229A6100F005F80023184680BDD1
:1029F0000038024080B400AF00BFBD465DF8047BE4
:102A00007047000080B582B000AF7860124B1A6842
:102A1000124B1B7819464FF47A73B3FBF1F3B2FBF8
:102A2000F3F31846FFF75BF80346002B01D00123B0
:102A30000EE07B680F2B0AD8002279684FF0FF3038
:102A4000FFF715F8064A7B681360002300E00123B6
:102A500018460837BD4680BD2C0100202801002003
:102A60002401002080B400AF064B1B781A46064BA9
:102A70001B681344044A136000BFBD465DF8047B25
:102A8000704700BF280100204803002080B400AF39
:102A9000034B1B681846BD465DF8047B704700BFBA
:102AA0004803002080B584B000AF7860FFF7EEFFE8
:102AB000B8607B68FB60FB68B3F1FF3F05D0094B52
:102AC0001B781A46FB681344FB6000BFFFF7DEFF6C
:102AD0000246BB68D31AFA689A42F7D800BF10378B
:102AE000BD4680BD2801002080B485B000AF78606D
:102AF00039607B6893F83C30012B01D102233DE023
:102B00007B68012283F83C207B681B685B68FB6064
:102B10007B681B689B68BB607B681B681A4A934292
:102B200004D07B681B68194A934208D1FB6823F4E0
:102B30007003FB603B685B68FA681343FB60FB68EB
:102B400023F07003FB603B681B68FA681343FB606B
:102B5000BB6823F08003BB603B689B68BA68134383
:102B6000BB607B681B68FA685A607B681B68BA6840
:102B70009A607B68002283F83C20002318461437B3
:102B8000BD465DF8047B7047000001400004014031
:102B900080B483B000AF786000BF0C37BD465DF8ED
:102BA000047B704780B483B000AF786000BF0C37FF
:102BB000BD465DF8047B704780B584B000AFF86017
:102BC000B9607A60FB6893F83C30012B01D1022395
:102BD00005E1FB68012283F83C20FB68022283F8B0
:102BE0003D207B68142B00F2F08001A252F823F004
:102BF000452C0008CB2D0008CB2D0008CB2D00085C
:102C0000852C0008CB2D0008CB2D0008CB2D00080B
:102C1000C72C0008CB2D0008CB2D0008CB2D0008B9
:102C2000072D0008CB2D0008CB2D0008CB2D000868
:102C3000492D0008CB2D0008CB2D0008CB2D000816
:102C4000892D0008FB681B68B968184601F0DCFE96
:102C5000FB681B689A69FB681B6842F008029A616E
:102C6000FB681B689A69FB681B6822F004029A6182
:102C7000FB681B689969BB681A69FB681B680A4393
:102C80009A61A3E0FB681B68B968184601F032FF3F
:102C9000FB681B689A69FB681B6842F400629A61D2
:102CA000FB681B689A69FB681B6822F480629A6162
:102CB000FB681B689969BB681B691A02FB681B6883
:102CC0000A439A6182E0FB681B68B968184601F004
:102CD0008BFFFB681B68DA69FB681B6842F008021F
:102CE000DA61FB681B68DA69FB681B6822F0040282
:102CF000DA61FB681B68D969BB681A69FB681B68E5
:102D00000A43DA6162E0FB681B68B968184601F0A3
:102D1000E5FFFB681B68DA69FB681B6842F4006228
:102D2000DA61FB681B68DA69FB681B6822F4806261
:102D3000DA61FB681B68D969BB681B691A02FB680A
:102D40001B680A43DA6141E0FB681B68B9681846F2
:102D500000F04AF8FB681B685A6DFB681B6842F07C
:102D600008025A65FB681B685A6DFB681B6822F0F5
:102D700004025A65FB681B68596DBB681A69FB68D9
:102D80001B680A435A6521E0FB681B68B96818464E
:102D900000F082F8FB681B685A6DFB681B6842F400
:102DA00000625A65FB681B685A6DFB681B6822F459
:102DB00080625A65FB681B68596DBB681B691A0203
:102DC000FB681B680A435A6500E000BFFB680122EC
:102DD00083F83D20FB68002283F83C20002318463E
:102DE0001037BD4680BD00BF80B487B000AF7860AB
:102DF000396000233B610023FB6000237B617B681B
:102E00001B6A23F480327B681A627B681B6AFB6052
:102E10007B685B687B617B685B6D3B613A691B4BE0
:102E200013403B613B681B683A6913433B61FB6895
:102E300023F40033FB603B689B681B04FA68134370
:102E4000FB607B68124A934203D07B68114A93422D
:102E500009D17B6923F480337B613B685B691B028A
:102E60007A6913437B617B687A695A607B683A6947
:102E70005A653B685A687B689A657B68FA681A628B
:102E800000BF1C37BD465DF8047B70478FFFFEFF17
:102E9000000001400004014080B487B000AF7860BA
:102EA000396000233B610023FB6000237B617B686A
:102EB0001B6A23F480127B681A627B681B6AFB60C2
:102EC0007B685B687B617B685B6D3B613A691C4B2F
:102ED00013403B613B681B681B023A6913433B612B
:102EE000FB6823F40013FB603B689B681B05FA68D2
:102EF0001343FB607B68134A934203D07B68124AFA
:102F0000934209D17B6923F480237B613B685B6931
:102F10009B027A6913437B617B687A695A607B689C
:102F20003A695A653B685A687B68DA657B68FA6873
:102F30001A6200BF1C37BD465DF8047B704700BFB6
:102F4000FF8FFFFE000001400004014080B582B009
:102F500000AFFFF79BFD7860654B1B68644A43F048
:102F60000103136008E0FFF791FD02467B68D31A66
:102F7000022B01D90323B6E05D4B1B6803F002036B
:102F8000002BF0D05A4B1B68594A43F08003136062
:102F9000FFF77CFD7860564B00229A600AE0FFF74D
:102FA00075FD02467B68D31A41F28832934201D9FB
:102FB000032398E04E4B9B6803F00C03002BEED1EB
:102FC000FFF764FD78604A4B1B68494A23F450239D
:102FD000136008E0FFF75AFD02467B68D31A642BA2
:102FE00001D903237FE0424B1B6803F40033002B1D
:102FF000F0D1FFF74BFD78603D4B1B683C4A23F056
:103000008073136008E0FFF741FD02467B68D31A26
:10301000022B01D9032366E0354B1B6803F00073D4
:10302000002BF0D1FFF732FD7860314B1B68304A3E
:1030300023F08063136008E0FFF728FD02467B68F9
:10304000D31A642B01D903234DE0294B1B6803F0ED
:103050000063002BF0D1FFF719FD7860244B1B684B
:10306000234A23F08053136008E0FFF70FFD024668
:103070007B68D31A642B01D9032334E01C4B1B68F3
:1030800003F00053002BF0D1194B1A4A5A60184B29
:10309000194AC3F88420164B174AC3F88820144BEA
:1030A000DB68134A23F4FE43D360114BDB68104AFC
:1030B00043F47F03D3600E4B5B6F0D4A23F0010393
:1030C00053670B4B5B6F0A4A43F0807353670B4B9C
:1030D0000B4A1A600020FFF795FC0346002B01D035
:1030E000012300E0002318460837BD4680BD00BF1D
:1030F0000038024010300024003000242C01002051
:103100000024F40080B586B000AF78600023FB7522
:103110007B68002B01D101235CE27B681B6803F014
:103120000103002B00F08780964B9B6803F00C0393
:10313000042B0CD0934B9B6803F00C03082B12D18B
:10314000904B5B6803F48003B3F5800F0BD18D4B7C
:103150001B6803F40033002B6CD07B685B68002B8A
:1031600068D1012336E27B685B68B3F5803F06D106
:10317000844B1B68834A43F4803313602EE07B68E2
:103180005B68002B0CD17F4B1B687E4A23F4803395
:1031900013607C4B1B687B4A23F4802313601DE083
:1031A0007B685B68B3F5A02F0CD1764B1B68754A22
:1031B00043F480231360734B1B68724A43F48033DB
:1031C00013600BE06F4B1B686E4A23F4803313606F
:1031D0006C4B1B686B4A23F4802313607B685B682D
:1031E000002B13D0FFF752FC386108E0FFF74EFCCC
:1031F00002463B69D31A642B01D90323EAE1614BF0
:103200001B6803F40033002BF0D014E0FFF73EFC02
:10321000386108E0FFF73AFC02463B69D31A642B99
:1032200001D90323D6E1574B1B6803F40033002B6D
:10323000F0D100E000BF7B681B6803F00203002BA5
:1032400069D0504B9B6803F00C03002B0BD04D4B07
:103250009B6803F00C03082B1CD14A4B5B6803F4FA
:103260008003002B16D1474B1B6803F00203002B91
:1032700005D07B68DB68012B01D00123AAE1414B1B
:103280001B6823F0F8027B681B69DB003D49134390
:103290000B6040E07B68DB68002B23D0394B1B6858
:1032A000384A43F001031360FFF7F0FB386108E090
:1032B000FFF7ECFB02463B69D31A022B01D903232B
:1032C00088E1304B1B6803F00203002BF0D02D4B3C
:1032D0001B6823F0F8027B681B69DB002949134354
:1032E0000B6018E0274B1B68264A23F0010313608C
:1032F000FFF7CCFB386108E0FFF7C8FB02463B69EB
:10330000D31A022B01D9032364E11E4B1B6803F07F
:103310000203002BF0D17B681B6803F00803002B2D
:1033200038D07B685B69002B19D0164B5B6F154A50
:1033300043F001035367FFF7A9FB386108E0FFF78B
:10334000A5FB02463B69D31A022B01D9032341E1B5
:103350000C4B5B6F03F00203002BF0D01AE0094B1B
:103360005B6F084A23F001035367FFF78FFB386157
:103370000AE0FFF78BFB02463B69D31A022B03D905
:10338000032327E100380240944B5B6F03F00203F4
:10339000002BEED17B681B6803F00403002B00F0C8
:1033A000A4808E4B1B6C03F08053002B0DD18B4BF4
:1033B0001B6C8A4A43F080531364884B1B6C03F0E8
:1033C0008053FB60FB680123FB75854B1B6803F48E
:1033D0008073002B18D1824B1B68814A43F48073A1
:1033E0001360FFF753FB386108E0FFF74FFB02461D
:1033F0003B69D31A642B01D90323EBE0784B1B689C
:1034000003F48073002BF0D07B689B68012B06D1FE
:10341000724B1B6F714A43F0010313672DE07B6809
:103420009B68002B0CD16D4B1B6F6C4A23F0010382
:1034300013676A4B1B6F694A23F0040313671CE090
:103440007B689B68052B0CD1644B1B6F634A43F070
:1034500004031367614B1B6F604A43F0010313675A
:103460000BE05E4B1B6F5D4A23F0010313675B4B60
:103470001B6F5A4A23F0040313677B689B68002B79
:1034800015D0FFF703FB38610AE0FFF7FFFA0246A9
:103490003B69D31A41F28832934201D9032399E060
:1034A0004E4B1B6F03F00203002BEED014E0FFF72E
:1034B000EDFA38610AE0FFF7E9FA02463B69D31AF0
:1034C00041F28832934201D9032383E0434B1B6FBF
:1034D00003F00203002BEED1FB7D012B05D13F4B06
:1034E0001B6C3E4A23F0805313647B689B69002B5E
:1034F0006FD03A4B9B6803F00C03082B67D07B68B6
:103500009B69022B49D1354B1B68344A23F08073E9
:103510001360FFF7BBFA386108E0FFF7B7FA02461D
:103520003B69D31A022B01D9032353E02B4B1B68B1
:1035300003F00073002BF0D17B68DA697B681B6AAB
:103540001A437B685B6A9B011A437B689B6A5B0832
:10355000013B1B041A437B68DB6A1B0613431F4AAB
:1035600043F0005353601D4B1B681C4A43F08073AB
:103570001360FFF78BFA386108E0FFF787FA02461D
:103580003B69D31A022B01D9032323E0134B1B6899
:1035900003F00073002BF0D01BE0104B1B680F4AA8
:1035A00023F080731360FFF771FA386108E0FFF7CA
:1035B0006DFA02463B69D31A022B01D9032309E0B5
:1035C000064B1B6803F00073002BF0D101E00123D0
:1035D00000E0002318461837BD4680BD0038024081
:1035E0000070004080B584B000AF7860396000237F
:1035F000FB607B68002B01D10123CEE0694B1B6887
:1036000003F00F033A689A4210D9664B1B6823F007
:103610000F0264493B6813430B60624B1B6803F065
:103620000F033A689A4201D00123B6E07B681B6819
:1036300003F00203002B20D07B681B6803F0040317
:10364000002B05D0584B9B68574A43F4E0539360D6
:103650007B681B6803F00803002B05D0524B9B6866
:10366000514A43F4604393604F4B9B6823F0F00250
:103670007B689B684C4913438B607B681B6803F035
:103680000103002B40D07B685B68012B07D1464BC0
:103690001B6803F40033002B15D101237DE07B6808
:1036A0005B68022B07D1404B1B6803F00073002BB3
:1036B00009D1012371E03C4B1B6803F00203002B8E
:1036C00001D1012369E0384B9B6823F003027B683A
:1036D0005B68354913438B60FFF7D8F9F8600AE05F
:1036E000FFF7D4F90246FB68D31A41F288329342BD
:1036F00001D9032351E02C4B9B6803F00C027B683B
:103700005B689B009A42EBD1264B1B6803F00F03CA
:103710003A689A4210D2234B1B6823F00F022149CA
:103720003B6813430B601F4B1B6803F00F033A68A1
:103730009A4201D0012330E07B681B6803F0040348
:10374000002B08D0184B9B6823F4E0527B68DB68A1
:10375000154913438B607B681B6803F00803002B3B
:1037600009D0114B9B6823F460427B681B69DB0026
:103770000D4913438B6000F01DF801460A4B9B680E
:103780001B0903F00F03094AD35C21FA03F3084A2B
:1037900013600020FFF736F9002318461037BD46A6
:1037A00080BD00BF003C0240003802403480000869
:1037B0002C010020F0B585B000AF00237B60002312
:1037C000FB6000233B600023BB60634B9B6803F0FE
:1037D0000C03042B07D0082B08D0002B40F0B4803A
:1037E0005E4BBB60B3E05E4BBB60B0E05A4B5B68C6
:1037F00003F03F037B60584B5B6803F48003002BAE
:103800004AD0554B5B689B094FF0000440F2FF1112
:103810004FF0000203EA010504EA02062946324697
:103820004FF000034FF00004540144EAD1644B010F
:1038300019462246491B62EB06024FF000034FF087
:103840000004940144EA91648B015B1A64EB020466
:103850004FF000014FF00002E20042EA5372D9003B
:103860000B4614465B1944EB06044FF000014FF081
:103870000002620242EAD35259020B46144618462D
:1038800021467B684FF000041A462346FCF7FCFCF7
:1038900003460C46FB6049E02F4B5B689B094FF0E9
:1038A000000440F2FF114FF0000203EA010504EAB0
:1038B0000206294632464FF000034FF0000454013F
:1038C00044EAD1644B0119462246491B62EB0602C9
:1038D0004FF000034FF00004940144EA91648B011F
:1038E0005B1A64EB02044FF000014FF00002E200AB
:1038F00042EA5372D9000B4614465B1944EB0604A6
:103900004FF000014FF00002A20242EA93529902E6
:103910000B461446184621467B684FF000041A46B1
:103920002346FCF7B1FC03460C46FB600A4B5B6880
:103930001B0C03F0030301335B003B60FA683B6838
:10394000B2FBF3F3BB6002E0044BBB6000BFBB689B
:1039500018461437BD46F0BD003802400024F4007C
:1039600000127A0080B400AF034B1B681846BD46B6
:103970005DF8047B704700BF2C01002080B500AFCC
:10398000FFF7F0FF0146054B9B689B0A03F0070316
:10399000034AD35C21FA03F3184680BD0038024085
:1039A0004480000880B500AFFFF7DCFF0146054BFF
:1039B0009B685B0B03F00703034AD35C21FA03F314
:1039C000184680BD003802404480000880B584B0AD
:1039D00000AF78607B68002B01D1012384E07B6815
:1039E00000229A627B6893F85D30DBB2002B06D12F
:1039F0007B68002283F85C20786803F0A5FA7B6876
:103A0000022283F85D207B681B681A687B681B684C
:103A100022F040021A607B68DB68B3F5E06F02D9E0
:103A20000023FB6002E04FF48053FB607B68DB689F
:103A3000B3F5706F07D07B68DB68B3F5E06F02D039
:103A40007B6800229A627B681B6B002B0BD17B6822
:103A5000DB68B3F5E06F03D97B6802221A6302E0EA
:103A60007B6801221A637B685A687B689B681A43EB
:103A70007B681B691A437B685B691A437B689B6997
:103A800003F400731A437B68DB691A437B681B6A83
:103A900042EA03017B689A6A7B681B680A431A60E2
:103AA0007B689B691B0C03F004027B685B6A1A430A
:103AB0007B685B6B1A437B68DB6842EA03017B68C7
:103AC0001B68FA680A435A607B681B68DA697B687E
:103AD0001B6822F40062DA617B6800221A667B6848
:103AE000012283F85D20002318461037BD4680BDB3
:103AF00080B582B000AF78607B68002B01D10123D4
:103B00001AE07B68022283F85D207B681B681A68D4
:103B10007B681B6822F040021A60786803F04CFA58
:103B20007B6800221A667B68002283F85D207B6830
:103B3000002283F85C20002318460837BD4680BD6C
:103B400080B489B000AFF860B9607A607B800023F0
:103B5000BB6100237B610023FB77FB6893F85C303B
:103B6000012B01D1022395E0FB68012283F85C2040
:103B7000FB6893F85D30DBB2BB61FB685B687B611F
:103B8000BB69012B0DD07B69B3F5827F06D1FB6841
:103B90009B68002B02D1BB69042B02D00223FB7768
:103BA00073E0BB68002B05D07B68002B02D07B88BC
:103BB000002B02D10123FB7767E0FB6893F85D30AF
:103BC000DBB2042B03D0FB68052283F85D20FB6881
:103BD00000221A66FB68BA689A63FB687A889A873B
:103BE000FB687A88DA87FB687A681A64FB687A88E7
:103BF000A3F84420FB687A88A3F84620FB68DB68BA
:103C0000B3F5E06F06D9FB68254ADA64FB68254AFC
:103C10001A6505E0FB68244ADA64FB68234A1A65E2
:103C2000FB68DB68B3F5E06F05D8FB68B3F8463096
:103C30009BB2012B08D9FB681B685A68FB681B689C
:103C400022F480525A6007E0FB681B685A68FB68E0
:103C50001B6842F480525A60FB681B685A68FB6814
:103C60001B6842F0E0025A60FB681B681B6803F0A7
:103C70004003402B08D0FB681B681A68FB681B6870
:103C800042F040021A6000E000BFFB68002283F8A7
:103C90005C20FB7F18462437BD465DF8047B7047E7
:103CA0002B40000891400008E33E00089D3F0008BB
:103CB00080B588B000AF78607B681B685B68FB618B
:103CC0007B681B689B68BB61BB6903F04003002BEA
:103CD0000ED1BB6903F00103002B09D0FB6903F08F
:103CE0004003002B04D07B68DB6C78689847B1E018
:103CF000BB6903F00203002B09D0FB6903F08003CA
:103D0000002B04D07B681B6D78689847A2E0BB69E4
:103D100003F4B073002B00F09D80FB6903F02003D7
:103D2000002B00F09780BB6903F04003002B23D0E9
:103D30007B6893F85D30DBB2032B11D07B681B6E80
:103D400043F004027B681A6600237B617B681B6872
:103D5000DB687B617B681B689B687B617B690BE030
:103D600000233B617B681B68DB683B617B681B68E9
:103D70009B683B613B696DE0BB6903F02003002B4E
:103D800014D07B681B6E43F001027B681A66002327
:103D9000FB607B681B689B68FB607B681B681A681C
:103DA0007B681B6822F040021A60FB68BB6903F461
:103DB0008073002B0CD07B681B6E43F008027B687D
:103DC0001A660023BB607B681B689B68BB60BB688E
:103DD0007B681B6E002B3CD07B681B685A687B6835
:103DE0001B6822F0E0025A607B68012283F85D20A4
:103DF000FB6903F00203002B04D1FB6903F001030C
:103E0000002B22D07B681B685A687B681B6822F0F5
:103E100003025A607B689B6D002B08D07B689B6D0A
:103E20000E4A1A657B689B6D184601F092FB7B6811
:103E30005B6D002B0CD07B685B6D084A1A657B6854
:103E40005B6D184601F085FB02E0786800F01CF815
:103E500000BF00BF2037BD4680BD00BFB93E00088F
:103E600080B483B000AF786000BF0C37BD465DF80A
:103E7000047B704780B483B000AF786000BF0C371C
:103E8000BD465DF8047B704780B483B000AF7860B6
:103E900000BF0C37BD465DF8047B704780B483B02B
:103EA00000AF78607B6893F85D30DBB218460C3762
:103EB000BD465DF8047B704780B584B000AF786084
:103EC0007B689B6BFB60FB680022A3F84620FB68C5
:103ED0000022DA87F868FFF7D7FF00BF1037BD462A
:103EE00080BD80B582B000AF78607B68B3F84630A3
:103EF0009BB2012B23D97B681B68DA687B681B6C3B
:103F000092B21A807B681B6C9A1C7B681A647B686F
:103F1000B3F846309BB2023B9AB27B68A3F84620C6
:103F20007B68B3F846309BB2012B1DD17B681B68C0
:103F30005A687B681B6842F480525A6014E07B68C0
:103F40001B6803F10C027B681B6C581C79680864C1
:103F50001278D2B21A707B68B3F846309BB2013B3C
:103F60009AB27B68A3F846207B68B3F846309BB2D0
:103F7000002B0FD17B681B685A687B681B6822F096
:103F800060025A607B68DB8F9BB2002B02D178689D
:103F900000F0C8F900BF0837BD4680BD80B582B0CB
:103FA00000AF78607B68DB8F9BB2012B12D97B68F6
:103FB0009B6B1A887B681B68DA607B689B6B9A1C1A
:103FC0007B689A637B68DB8F9BB2023B9AB27B680B
:103FD000DA8710E07B689B6B591C7A6891637A687A
:103FE00012680C321B7813707B68DB8F9BB2013B2D
:103FF0009AB27B68DA877B68DB8F9BB2002B10D18B
:104000007B681B685A687B681B6822F080025A60D4
:104010007B68B3F846309BB2002B02D1786800F081
:1040200081F900BF0837BD4680BD80B582B000AFC2
:1040300078607B681B68DA687B681B6C92B21A80B8
:104040007B681B6C9A1C7B681A647B68B3F84630EB
:104050009BB2013B9AB27B68A3F846207B68B3F819
:1040600046309BB2002B0FD17B681B685A687B6877
:104070001B6822F040025A607B68DB8F9BB2002BEA
:1040800002D1786800F04EF900BF0837BD4680BD08
:1040900080B582B000AF78607B689B6B1A887B68C4
:1040A0001B68DA607B689B6B9A1C7B689A637B68F1
:1040B000DB8F9BB2013B9AB27B68DA877B68DB8F30
:1040C0009BB2002B10D17B681B685A687B681B6809
:1040D00022F080025A607B68B3F846309BB2002B16
:1040E00002D1786800F01EF900BF0837BD4680BDD8
:1040F00080B584B000AFF860B9607A603B604DE095
:104100003B68B3F1FF3F49D03B68002B07D0FEF777
:10411000BDFC0246BB69D31A3A689A423ED8FB6896
:104120001B685A68FB681B6822F0E0025A60FB6853
:104130005B68B3F5827F11D1FB689B68B3F5004FD4
:1041400004D0FB689B68B3F5806F07D1FB681B68E0
:104150001A68FB681B6822F040021A60FB689B6AC1
:10416000B3F5005F10D1FB681B681968FB681A681B
:104170004DF6FF730B401360FB681B681A68FB6801
:104180001B6842F400521A60FB68012283F85D202C
:10419000FB68002283F85C20032308E0FB681B68AF
:1041A0009A68BB6813407A689A42A9D100231846DE
:1041B0001037BD4680BD80B586B000AFF860B960ED
:1041C0007A603B605BE0BB68B3F5C06F09D17B6888
:1041D000002B06D1FB681B680C331B78DBB2FB7528
:1041E000FB7D3B68B3F1FF3F49D03B68002B07D014
:1041F000FEF74CFC02463B6AD31A3A689A423ED814
:10420000FB681B685A68FB681B6822F0E0025A6072
:10421000FB685B68B3F5827F11D1FB689B68B3F5DF
:10422000004F04D0FB689B68B3F5806F07D1FB6833
:104230001B681A68FB681B6822F040021A60FB6862
:104240009B6AB3F5005F10D1FB681B681968FB68B7
:104250001A684DF6FF730B401360FB681B681A6801
:10426000FB681B6842F400521A60FB68012283F865
:104270005D20FB68002283F85C20032308E0FB68D4
:104280001B689A68BB6813407A689A429BD10023E6
:1042900018461837BD4680BD80B586B002AFF860BD
:1042A000B9607A607B680093BB6800224FF4C0510C
:1042B000F868FFF780FF0346002B07D0FB681B6EF2
:1042C00043F02002FB681A66032327E07B68009313
:1042D000BB6800228021F868FFF70AFF0346002B25
:1042E00007D0FB681B6E43F02002FB681A660323AD
:1042F00014E07B680093BB6800224FF4C061F8684B
:10430000FFF759FF0346002B07D0FB681B6E43F0F5
:104310002002FB681A66032300E0002318461037CA
:10432000BD4680BD80B584B000AF78600023FB60DF
:10433000FEF7ACFBF8607B681B685A687B681B68FB
:1043400022F020025A60FA6864217868FFF7A4FF1F
:104350000346002B05D07B681B6E43F020027B6870
:104360001A667B681B6E002B15D17B6893F85D3055
:10437000DBB2042B07D17B68012283F85D207868CB
:10438000FFF76EFD0EE07B68012283F85D20786800
:10439000FFF770FD06E07B68012283F85D207868F6
:1043A000FFF772FD00BF1037BD4680BD80B582B0FB
:1043B00000AF78607B68002B01D101231DE07B6892
:1043C00093F83D30DBB2002B06D17B68002283F8E6
:1043D0003C20786802F07EF87B68022283F83D205A
:1043E0007B681A687B6804331946104600F05CFA53
:1043F0007B68012283F83D20002318460837BD461C
:1044000080BD80B582B000AF78607B68002B01D1A1
:1044100001231DE07B6893F83D30DBB2002B06D111
:104420007B68002283F83C20786802F09FF87B6864
:10443000022283F83D207B681A687B6804331946A2
:10444000104600F031FA7B68012283F83D200023FA
:1044500018460837BD4680BD80B582B000AF786091
:104460007B681B681B6903F00203022B22D17B6867
:104470001B68DB6803F00203022B1BD17B681B68FF
:104480006FF002021A617B6801221A777B681B6851
:104490009B6903F00303002B03D0786800F0E6F972
:1044A00005E0786800F0D8F9786800F0E9F97B68F1
:1044B00000221A777B681B681B6903F00403042B36
:1044C00022D17B681B68DB6803F00403042B1BD13B
:1044D0007B681B686FF004021A617B6802221A77FE
:1044E0007B681B689B6903F44073002B03D07868DA
:1044F00000F0BCF905E0786800F0AEF9786800F0EB
:10450000BFF97B6800221A777B681B681B6903F080
:104510000803082B22D17B681B68DB6803F00803C3
:10452000082B1BD17B681B686FF008021A617B683F
:1045300004221A777B681B68DB6903F00303002BF6
:1045400003D0786800F092F905E0786800F084F90B
:10455000786800F095F97B6800221A777B681B6801
:104560001B6903F01003102B22D17B681B68DB68EA
:1045700003F01003102B1BD17B681B686FF0100237
:104580001A617B6808221A777B681B68DB6903F471
:104590004073002B03D0786800F068F905E0786874
:1045A00000F05AF9786800F06BF97B6800221A77FE
:1045B0007B681B681B6903F00103012B0ED17B682C
:1045C0001B68DB6803F00103012B07D17B681B68C4
:1045D0006FF001021A61786802F016FC7B681B68B4
:1045E0001B6903F08003802B0ED17B681B68DB689E
:1045F00003F08003802B07D17B681B686FF080027B
:104600001A617868FEF7CEFA7B681B681B6903F4B1
:104610008073B3F5807F0ED17B681B68DB6803F085
:104620008003802B07D17B681B686FF080021A61C2
:104630007868FEF7B7FA7B681B681B6903F04003D4
:10464000402B0ED17B681B68DB6803F04003402BD6
:1046500007D17B681B686FF040021A61786800F030
:1046600019F97B681B681B6903F02003202B0ED10E
:104670007B681B68DB6803F02003202B07D17B6875
:104680001B686FF020021A617868FEF781FA00BF9C
:104690000837BD4680BD000080B584B000AF7860AB
:1046A00039600023FB607B6893F83C30012B01D11B
:1046B0000223C8E07B68012283F83C207B68022249
:1046C00083F83D207B681B689B68FB60FA68604B41
:1046D0001340FB60FB6823F47F43FB607B681B682F
:1046E000FA689A603B681B68402B77D0402B0ED845
:1046F000102B00F08A80102B02D8002B7ED099E07E
:10470000202B00F08980302B00F08D8092E0702B00
:1047100016D0702B04D8502B40D0602B4ED089E09F
:10472000B3F5805F03D0B3F5005F24D082E07B68EF
:104730001B6899687B681A68464B0B40936079E068
:104740007B6818683B6899683B685A683B68DB6817
:1047500000F0ADFB7B681B689B68FB60FA683C4B14
:104760001340FB60FB6843F07703FB607B681B68CA
:10477000FA689A605EE07B6818683B6899683B68F5
:104780005A683B68DB6800F092FB7B681B689A689C
:104790007B681B6842F480429A604BE07B68186833
:1047A0003B6859683B68DB681A4600F0F9FA7B6899
:1047B0001B685021184600F05AFB3BE07B681868E4
:1047C0003B6859683B68DB681A4600F01CFB7B6855
:1047D0001B686021184600F04AFB2BE07B681868D4
:1047E0003B6859683B68DB681A4600F0D9FA7B6879
:1047F0001B684021184600F03AFB1BE07B681B68F1
:104800000021184600F033FB14E07B681B68102180
:10481000184600F02CFB0DE07B681B682021184631
:1048200000F025FB06E07B681B683021184600F08D
:104830001EFB00BF7B68012283F83D207B680022BD
:1048400083F83C20002318461037BD4680BD00BFCA
:1048500088FFFEFFF8FFFEFF80B483B000AF7860F2
:1048600000BF0C37BD465DF8047B704780B483B051
:1048700000AF786000BF0C37BD465DF8047B704721
:1048800080B483B000AF786000BF0C37BD465DF8E0
:10489000047B704780B483B000AF786000BF0C37F2
:1048A000BD465DF8047B704780B485B000AF78608A
:1048B00039600023FB607B681B68FB607B68474AAC
:1048C000934213D07B68B3F1804F0FD07B68444A8A
:1048D00093420BD07B68434A934207D07B68424A9D
:1048E000934203D07B68414A934201D1012300E007
:1048F0000023002B08D0FB6823F07003FB603B68AB
:104900005B68FA681343FB607B68344A93422BD0A0
:104910007B68B3F1804F27D07B68314A934223D024
:104920007B68304A93421FD07B682F4A93421BD04A
:104930007B682E4A934217D07B682D4A934213D04E
:104940007B682C4A93420FD07B682B4A93420BD052
:104950007B682A4A934207D07B68294A934203D056
:104960007B68284A934201D1012300E00023002BF9
:1049700008D0FB6823F44073FB603B68DB68FA688F
:104980001343FB60FB6823F080023B685B691343C1
:10499000FB607B68FA681A603B689A687B68DA6239
:1049A0003B681A687B689A627B680C4A934203D022
:1049B0007B680E4A934201D1012300E00023002BC3
:1049C00003D03B681A697B681A637B6801225A61CD
:1049D00000BF1437BD465DF8047B704700000140FE
:1049E0000004004000080040000C004000040140AA
:1049F00000400140004401400048014000180040D0
:104A0000001C00400020004080B487B000AF7860F8
:104A100039600023FB6000237B6100233B617B68DE
:104A20001B6A23F001027B681A627B681B6A7B6148
:104A30007B685B683B617B689B69FB60FA682A4B1B
:104A40001340FB60FB6823F00303FB603B681B68BB
:104A5000FA681343FB607B6923F002037B613B68C8
:104A60009B687A6913437B617B68204A934203D039
:104A70007B681F4A934201D1012300E00023002BF1
:104A80001ED07B6923F008037B613B68DB687A6991
:104A900013437B617B6923F004037B613B6923F44F
:104AA00080733B613B6923F400733B613B685B6946
:104AB0003A6913433B613B689B693A6913433B6125
:104AC0007B683A695A607B68FA689A613B685A6801
:104AD0007B685A637B687A691A6200BF1C37BD46DF
:104AE0005DF8047B704700BF8FFFFEFF00000140B0
:104AF0000004014080B487B000AF786039600023C3
:104B0000FB6000237B6100233B617B681B6A23F011
:104B100010027B681A627B681B6A7B617B685B683A
:104B20003B617B689B69FB60FA682C4B1340FB6020
:104B3000FB6823F44073FB603B681B681B02FA6848
:104B40001343FB607B6923F020037B613B689B6818
:104B50001B017A6913437B617B68214A934203D02E
:104B60007B68204A934201D1012300E00023002BFF
:104B700021D07B6923F080037B613B68DB681B01EC
:104B80007A6913437B617B6923F040037B613B6956
:104B900023F480633B613B6923F400633B613B6822
:104BA0005B699B003A6913433B613B689B699B00CF
:104BB0003A6913433B617B683A695A607B68FA68DB
:104BC0009A613B685A687B689A637B687A691A6263
:104BD00000BF1C37BD465DF8047B7047FF8FFFFEAA
:104BE000000001400004014080B487B000AF78604D
:104BF00039600023FB6000237B6100233B617B68FD
:104C00001B6A23F480727B681A627B681B6A7B6173
:104C10007B685B683B617B68DB69FB60FA682C4BF7
:104C20001340FB60FB6823F00303FB603B681B68D9
:104C3000FA681343FB607B6923F400737B613B6874
:104C40009B681B027A6913437B617B68214A93420C
:104C500003D07B68204A934201D1012300E0002366
:104C6000002B21D07B6923F400637B613B68DB6808
:104C70001B027A6913437B617B6923F480637B6148
:104C80003B6923F480533B613B6923F400533B6150
:104C90003B685B691B013A6913433B613B689B6955
:104CA0001B013A6913433B617B683A695A607B6830
:104CB000FA68DA613B685A687B68DA637B687A690C
:104CC0001A6200BF1C37BD465DF8047B704700BF09
:104CD0008FFFFEFF000001400004014080B487B058
:104CE00000AF7860396000233B610023FB60002344
:104CF0007B617B681B6A23F480527B681A627B6845
:104D00001B6AFB607B685B687B617B68DB693B617E
:104D10003A69204B13403B613B6923F440733B618C
:104D20003B681B681B023A6913433B61FB6823F431
:104D30000053FB603B689B681B03FA681343FB60EE
:104D40007B68154A934203D07B68144A934201D191
:104D5000012300E00023002B09D07B6923F480436A
:104D60007B613B685B699B017A6913437B617B686C
:104D70007A695A607B683A69DA613B685A687B688D
:104D80001A647B68FA681A6200BF1C37BD465DF87A
:104D9000047B7047FF8FFFFE0000014000040140CC
:104DA00080B487B000AFF860B9607A6000237B619F
:104DB00000233B61FB681B6A3B61FB681B6A23F0B5
:104DC0000102FB681A62FB689B697B617B6923F0C7
:104DD000F0037B617B681B017A6913437B613B694C
:104DE00023F00A033B613A69BB6813433B61FB68EC
:104DF0007A699A61FB683A691A6200BF1C37BD463E
:104E00005DF8047B704780B487B000AFF860B9608C
:104E10007A6000237B6100233B61FB681B6A23F0FF
:104E20001002FB681A62FB689B697B61FB681B6A66
:104E30003B617B6923F470437B617B681B037A6968
:104E400013437B613B6923F0A0033B61BB681B01FB
:104E50003A6913433B61FB687A699A61FB683A6976
:104E60001A6200BF1C37BD465DF8047B704780B4F2
:104E700085B000AF78600B467B800023FB607B68C9
:104E80009B68FB60FB6823F07003FB607B8843F04A
:104E900007039BB21A46FB681343FB607B68FA6802
:104EA0009A6000BF1437BD465DF8047B704780B43C
:104EB00087B000AFF860B9607A603B6000237B6127
:104EC000FB689B687B617B6923F47F437B613B6864
:104ED0001A027B681A43BB6813437A6913437B61E8
:104EE000FB687A699A6000BF1C37BD465DF8047B99
:104EF0007047000080B582B000AF00237B60234B79
:104F00001B6C224A43F080531364204B1B6C03F04C
:104F100080533B603B681E4B1B681D4A43F4803343
:104F20001360FDF7B3FD786009E0FDF7AFFD0246C1
:104F30007B68D31AB3F57A7F01D9032322E0144B9F
:104F40005B6803F48033B3F5803FEED1104B1B68F0
:104F50000F4A43F400331360FDF798FD786009E0D1
:104F6000FDF794FD02467B68D31AB3F57A7F01D929
:104F7000032307E0064B5B6803F40033B3F5003FFF
:104F8000EED1002318460837BD4680BD00380240E8
:104F90000070004080B489B000AF786039600023B1
:104FA000FB6100237B6100233B610023BB61002385
:104FB000FB6175E10122FB6902FA03F37B613B6847
:104FC0001B687A6913403B613A697B699A4240F0F9
:104FD00064813B685B68022B03D03B685B68122BE3
:104FE00023D1FB69DA087B68083253F82230BB61B1
:104FF000FB6903F007039B000F2202FA03F3DB4374
:10500000BA691340BB613B681A69FB6903F0070387
:105010009B0002FA03F3BA691343BB61FB69DA0828
:105020007B680832B96943F822107B681B68BB6152
:10503000FB695B00032202FA03F3DB43BA69134006
:10504000BB613B685B6803F00302FB695B0002FA2B
:1050500003F3BA691343BB617B68BA691A603B68A2
:105060005B68012B0BD03B685B68022B07D03B6869
:105070005B68112B03D03B685B68122B30D17B68D7
:105080009B68BB61FB695B00032202FA03F3DB430D
:10509000BA691340BB613B68DA68FB695B0002FADE
:1050A00003F3BA691343BB617B68BA699A607B6892
:1050B0005B68BB610122FB6902FA03F3DB43BA6957
:1050C0001340BB613B685B681B0903F00102FB698D
:1050D00002FA03F3BA691343BB617B68BA695A6089
:1050E0007B68DB68BB61FB695B00032202FA03F3A8
:1050F000DB43BA691340BB613B689A68FB695B009C
:1051000002FA03F3BA691343BB617B68BA69DA60D8
:105110003B685B6803F08053002B00F0BE80654B5A
:105120005B6C644A43F480435364624B5B6C03F4EE
:105130008043FB60FB68604AFB699B08023352F8BE
:105140002330BB61FB6903F003039B000F2202FACB
:1051500003F3DB43BA691340BB617B68574A934250
:1051600037D07B68564A934231D07B68554A934288
:105170002BD07B68544A934225D07B68534A934294
:105180001FD07B68524A934219D07B68514A9342A0
:1051900013D07B68504A93420DD07B684F4A9342AC
:1051A00007D07B684E4A934201D1092312E00A23BB
:1051B00010E008230EE007230CE006230AE0052395
:1051C00008E0042306E0032304E0022302E00123B5
:1051D00000E00023FA6902F0030292009340BA69EA
:1051E0001343BB613449FB699B080233BA6941F838
:1051F00023203C4B1B68BB613B69DB43BA6913400E
:10520000BB613B685B6803F48033002B03D0BA6951
:105210003B691343BB61334ABB691360314B5B6825
:10522000BB613B69DB43BA691340BB613B685B68A8
:1052300003F40033002B03D0BA693B691343BB610D
:10524000284ABB695360274B9B68BB613B69DB43C2
:10525000BA691340BB613B685B6803F48013002BA1
:1052600003D0BA693B691343BB611E4ABB699360B3
:105270001C4BDB68BB613B69DB43BA691340BB6114
:105280003B685B6803F40013002B03D0BA693B69E9
:105290001343BB61134ABB69D360FB690133FB61F4
:1052A000FB690F2B7FF686AE00BF2437BD465DF845
:1052B000047B704700380240003801400000024083
:1052C0000004024000080240000C024000100240AE
:1052D0000014024000180240001C0240002002405E
:1052E00000240240003C014080B487B000AF7860E9
:1052F000396000233B610023FB600023BB60002377
:105300007B61D9E001227B6902FA03F33B613A68D1
:105310003B691340FB60FA683B699A4240F0C980E0
:105320007B681A687B695B00032101FA03F3DB43A6
:105330001A407B681A607B69DA087B68083253F888
:1053400022107B6903F007039B000F2202FA03F38C
:10535000DB437A69D20819407B68083243F822108F
:105360007B689A687B695B00032101FA03F3DB43E6
:105370001A407B689A607B685A6801217B6901FA50
:1053800003F3DB431A407B685A607B68DA687B6909
:105390005B00032101FA03F3DB431A407B68DA6008
:1053A0004A4A7B699B08023352F82330BB607B6911
:1053B00003F003039B000F2202FA03F3BA681340C1
:1053C000BB607B68424A934237D07B68414A934234
:1053D00031D07B68404A93422BD07B683F4A93424E
:1053E00025D07B683E4A93421FD07B683D4A93425A
:1053F00019D07B683C4A934213D07B683B4A934266
:105400000DD07B683A4A934207D07B68394A934271
:1054100001D1092312E00A2310E008230EE007233C
:105420000CE006230AE0052308E0042306E003233A
:1054300004E0022302E0012300E000237A6902F085
:10544000030292009340BA689A4232D17B6903F01A
:1054500003039B000F2202FA03F3BB601B4A7B6924
:105460009B08023352F82310BB68DA4317487B6964
:105470009B080A40023340F823201F4B1A68FB6840
:10548000DB431D4913400B601B4B5A68FB68DB4331
:10549000194913404B60184B9A68FB68DB43164967
:1054A00013408B60144BDA68FB68DB4312491340EE
:1054B000CB607B6901337B617B690F2B7FF622AF69
:1054C00000BF1C37BD465DF8047B704700380140C3
:1054D000000002400004024000080240000C0240AC
:1054E000001002400014024000180240001C02405C
:1054F0000020024000240240003C014080B483B000
:1055000000AF78600B467B8013467B707B78002B66
:1055100003D07A887B689A6103E07B881A047B68F1
:105520009A6100BF0C37BD465DF8047B704780B4BC
:1055300083B000AF78600B467B807B685A697B88BC
:105540005A407B685A6100BF0C37BD465DF8047B4A
:10555000704780B483B000AF78607B6893F83530D3
:10556000DBB2022B04D07B6880225A6501230CE059
:105570007B68052283F835207B681B681A687B6886
:105580001B6822F001021A60002318460C37BD4642
:105590005DF8047B7047000080B485B000AF786090
:1055A0000B46FB700023FB60FB78002B02D100232D
:1055B000FB6010E0FB78012B03D14FF48073FB609C
:1055C00009E0FB78022B03D14FF40073FB6002E08B
:1055D0004FF44073FB60144B1B69134A23F4407370
:1055E0001361114B1A691049FB6813430B610E4B91
:1055F0001B690D4A23F0F80313610B4B1A697B6892
:10560000DB001343084A43F002031361064B1B6996
:10561000054A43F480331361BFF34F8F00BF143743
:10562000BD465DF8047B7047003C024080B483B007
:1056300000AF786039607B6893F84130DBB2202B93
:1056400038D17B6893F84030012B01D1022332E03E
:105650007B68012283F840207B68242283F8412064
:105660007B681B681A687B681B6822F001021A605D
:105670007B681B681A687B681B6822F480521A607A
:105680007B681B6819687B681B683A680A431A6064
:105690007B681B681A687B681B6842F001021A600D
:1056A0007B68202283F841207B68002283F8402019
:1056B000002300E0022318460C37BD465DF8047B4A
:1056C000704780B485B000AF786039600023FB601C
:1056D0007B6893F84130DBB2202B39D17B6893F89B
:1056E0004030012B01D1022333E07B68012283F893
:1056F00040207B68242283F841207B681B681A685D
:105700007B681B6822F001021A607B681B681B68BB
:10571000FB60FB6823F47063FB603B681B02FA6864
:105720001343FB607B681B68FA681A607B681B6820
:105730001A687B681B6842F001021A607B682022AD
:1057400083F841207B68002283F84020002300E09A
:10575000022318461437BD465DF8047B70470000ED
:1057600080B588B000AF786000237B6100233B6187
:105770000023FB600023FB610023BB617B681B6887
:1057800003F00103002B12D0694B9B68684A23F495
:1057900000039360664B9A687B685B6B64491343B4
:1057A0008B607B685B6B002B01D10123FB617B6805
:1057B0001B6803F40023002B17D05D4BD3F88C300B
:1057C00023F440127B68DB6B59491343C1F88C30DA
:1057D0007B68DB6BB3F5801F01D10123FB617B6824
:1057E000DB6B002B01D10123BB617B681B6803F4D9
:1057F0008013002B17D04E4BD3F88C3023F440028B
:105800007B681B6C4A491343C1F88C307B681B6C66
:10581000B3F5800F01D10123FB617B681B6C002B6A
:1058200001D10123BB617B681B6803F08073002BEF
:1058300001D00123FB617B681B6803F02003002B70
:1058400000F08B803A4B1B6C394A43F08053136451
:10585000374B1B6C03F08053BB60BB68354B1B6838
:10586000344A43F480731360FDF710F9786108E05F
:10587000FDF70CF902467B69D31A642B01D9032387
:1058800055E32C4B1B6803F48073002BF0D0284B9E
:105890001B6F03F440733B613B69002B35D07B6881
:1058A0001B6B03F440733A699A422ED0204B1B6F56
:1058B00023F440733B611E4B1B6F1D4A43F480333E
:1058C00013671B4B1B6F1A4A23F480331367184A64
:1058D0003B691367164B1B6F03F00103002B14D0B9
:1058E000FDF7D4F878610AE0FDF7D0F802467B694D
:1058F000D31A41F28832934201D9032317E30C4BA8
:105900001B6F03F00203002BEED07B681B6B03F4CC
:105910004073B3F5407F11D1054B9B6823F4F81217
:105920007B68196B044B0B40014913438B600BE000
:105930000038024000700040FFFCFF0FB04B9B6836
:10594000AF4A23F4F8139360AD4B1A6F7B681B6B5F
:10595000C3F30B03AA4913430B677B681B6803F06F
:105960001003002B10D0A64BD3F88C30A44A23F0A0
:105970008073C2F88C30A24BD3F88C207B689B6B71
:105980009F491343C1F88C307B681B6803F4804344
:10599000002B0AD09A4BD3F8903023F440327B6826
:1059A0005B6E97491343C1F890307B681B6803F422
:1059B0000043002B0AD0924BD3F8903023F44022BE
:1059C0007B689B6E8E491343C1F890307B681B68DF
:1059D00003F48033002B0AD0894BD3F8903023F4A2
:1059E00040127B68DB6E86491343C1F890307B68B8
:1059F0001B6803F40033002B0AD0814BD3F890309E
:105A000023F440027B681B6F7D491343C1F890303B
:105A10007B681B6803F04003002B0AD0784BD3F857
:105A2000903023F003027B685B6C75491343C1F827
:105A300090307B681B6803F08003002B0AD0704B0A
:105A4000D3F8903023F00C027B689B6C6C491343B5
:105A5000C1F890307B681B6803F48073002B0AD078
:105A6000674BD3F8903023F030027B68DB6C6449DD
:105A70001343C1F890307B681B6803F40073002B5C
:105A80000AD05F4BD3F8903023F0C0027B681B6DC7
:105A90005B491343C1F890307B681B6803F4806353
:105AA000002B0AD0564BD3F8903023F440727B6819
:105AB0005B6D53491343C1F890307B681B6803F456
:105AC0000063002B0AD04E4BD3F8903023F4406291
:105AD0007B689B6D4A491343C1F890307B681B6813
:105AE00003F48053002B0AD0454BD3F8903023F4B5
:105AF00040527B68DB6D42491343C1F890307B68AC
:105B00001B6803F40053002B0AD03D4BD3F89030B0
