:020000040800F2
:1000000000000520114A0008314000083540000872
:10001000394000083D400008414000080000000051
:100020000000000000000000000000004540000843
:1000300049400008000000004D4000085140000801
:10004000614A0008614A0008614A0008614A0008E4
:10005000614A0008614A0008614A0008614A0008D4
:10006000614A0008614A0008614A0008614A0008C4
:10007000614A0008614A0008614A0008614A0008B4
:10008000614A0008614A0008614A0008614A0008A4
:10009000614A0008614A0008614A0008614A000894
:1000A000614A0008614A0008614A0008614A000884
:1000B00061400008614A0008614A0008614A00087E
:1000C000614A0008614A0008614A000805480008C2
:1000D000614A0008614A0008614A0008614A000854
:1000E000614A0008614A0008614A0008614A000844
:1000F000614A0008614A0008614A0008614A000834
:10010000614A0008614A0008614A0008614A000823
:1001100081400008614A0008614A0008614A0008FD
:10012000614A0008614A0008614A0008614A000803
:10013000614A0008614A0008614A0008614A0008F3
:10014000614A0008614A0008614A0008614A0008E3
:10015000614A0008614A0008614A0008614A0008D3
:10016000614A0008614A0008614A0008614A0008C3
:10017000614A0008614A0008614A00080000000066
:10018000614A0008614A0008614A0008614A0008A3
:10019000614A0008614A0008614A0008614A000893
:1001A000614A0008614A0008614A0008614A000883
:1001B000614A0008614A0008614A0008614A000873
:0801C000614A0008614A0008D1
:100200000348044B834202D0034B03B118477047A5
:100210004801002048010020000000000548064970
:10022000091A891001EBD171491002D0034B03B1B7
:1002300018477047480100204801002000000000D6
:1002400010B5064C237843B9FFF7DAFF044B13B11E
:100250000448AFF300800123237010BD4801002043
:1002600000000000644A000808B5044B1BB10449B3
:100270000448AFF30080BDE80840CFE7000000006D
:100280004C010020644A000853B94AB9002908BF4C
:1002900000281CBF4FF0FF314FF0FF3000F072B963
:1002A000ADF1080C6DE904CE00F006F8DDF804E0CD
:1002B000DDE9022304B070472DE9F047089E0446AB
:1002C0008846002B4BD18A42154667D9B2FA82F292
:1002D0004AB1C2F1200701FA02F320FA07F795406C
:1002E00047EA030894404FEA154E230CB8FBFEF78B
:1002F0001FFA85FC0EFB178843EA084307FB0CF145
:10030000994209D9EB1807F1FF3080F01B8199421F
:1003100040F21881023F2B445B1AA4B2B3FBFEF0FB
:100320000EFB103344EA034400FB0CFCA44509D93E
:100330002C1900F1FF3380F00781A44540F20481BD
:1003400002382C4440EA0740A4EB0C0400271EB1FD
:10035000D4400023C6E900433946BDE8F0878B420C
:1003600009D9002E00F0EB800027C6E900013846CD
:100370003946BDE8F087B3FA83F7002F47D18B42A7
:1003800002D3824200F2FA80841A61EB0303012057
:100390009846002EE0D0C6E90048DDE702B9FFDE4E
:1003A000B2FA82F2002A40F08F80491B4FEA154EC4
:1003B0001FFA85F80127B1FBFEFC230C0EFB1C1174
:1003C00043EA014308FB0CF1994207D9EB180CF101
:1003D000FF3002D2994200F2CD808446591AA3B26E
:1003E000B1FBFEF00EFB101443EA044408FB00F8D6
:1003F000A04507D92C1900F1FF3302D2A04500F225
:10040000B6801846A4EB080440EA0C409FE7C7F109
:10041000200CBB4022FA0CFE4EEA030E01FA07F450
:1004200020FA0CF521FA0CF34FEA1E482543B3FBE2
:10043000F8F92C0C08FB19331FFA8EFA44EA03432F
:1004400009FB0AF49C4202FA07F200FA07F10BD901
:100450001EEB030309F1FF3080F087809C4240F2DD
:100460008480A9F1020973441B1BADB2B3FBF8F001
:1004700008FB103345EA034400FB0AFAA24508D9F9
:100480001EEB040400F1FF336BD2A24569D9023898
:10049000744440EA0940A0FB0289A4EB0A044C45DD
:1004A000C2464B4654D351D0002E69D0B1EB0A0559
:1004B00064EB030404FA0CFCFD40FC404CEA050527
:1004C000C6E90054002747E7C2F1200320FA03F7EA
:1004D000954001FA02F021FA03F34FEA154E384332
:1004E000010CB3FBFEF71FFA85F80EFB173341EA48
:1004F000034107FB08F38B4204FA02F407D9691899
:1005000007F1FF3C2FD28B422DD9023F2944CB1A51
:1005100081B2B3FBFEF00EFB103341EA034100FB56
:1005200008F38B4207D9691800F1FF3C17D28B42C0
:1005300015D902382944C91A40EA07473BE737462C
:10054000304609E70746E7E61846FBE64145ABD2E9
:10055000B8EB020A69EB0E0201381346A4E76046C5
:10056000E9E7184695E76746D1E781467CE7023818
:100570002C4447E7ACF1020C2B442FE7384608E740
:100580003746E9E6704700BF70B50D4E0D4D761B3E
:10059000B61006D00024013455F8043B9847A64213
:1005A000F9D1094E094D761B04F05CFAB61006D05D
:1005B0000024013455F8043B9847A642F9D170BD98
:1005C000F04B0008F04B0008F44B0008F04B00081B
:1005D000024B0146186800F043B900BFC00000207C
:1005E000024B0146186800F0E7B800BFC0000020C9
:1005F000844641EA000313F003036DD1403A41D32E
:1006000051F8043B40F8043B51F8043B40F8043BEC
:1006100051F8043B40F8043B51F8043B40F8043BDC
:1006200051F8043B40F8043B51F8043B40F8043BCC
:1006300051F8043B40F8043B51F8043B40F8043BBC
:1006400051F8043B40F8043B51F8043B40F8043BAC
:1006500051F8043B40F8043B51F8043B40F8043B9C
:1006600051F8043B40F8043B51F8043B40F8043B8C
:1006700051F8043B40F8043B51F8043B40F8043B7C
:10068000403ABDD2303211D351F8043B40F8043B1C
:1006900051F8043B40F8043B51F8043B40F8043B5C
:1006A00051F8043B40F8043B103AEDD20C3205D32C
:1006B00051F8043B40F8043B043AF9D2043208D024
:1006C000D2071CBF11F8013B00F8013B01D30B8896
:1006D00003806046704700BF082A13D38B078DD074
:1006E00010F003038AD0C3F10403D21ADB071CBF46
:1006F00011F8013B00F8013B80D331F8023B20F8B0
:10070000023B7BE7043AD9D3013A11F8013B00F8E8
:10071000013BF9D20B7803704B7843708B78837070
:1007200060467047F0B4860743D0541E002A3ED07E
:10073000CAB2034602E014F1FF3438D303F8012BA8
:100740009D07F8D1032C2BD9CDB245EA05250F2CF6
:1007500045EA054516D9A4F110073F0903F1200623
:1007600006EB071603F1100242E9045542E902556F
:100770001032B242F8D104F00F040137032C03EB1E
:1007800007130DD91E462246043A032A46F8045B95
:10079000FAD8221F22F003020432134404F00304A7
:1007A0002CB1C9B21C4403F8011B9C42FBD1F0BC24
:1007B000704714460346C5E779B338B551F8043C91
:1007C0000C1F002BB8BFE418054600F067F9234B57
:1007D0001A682AB1A2420DD921686018824230D02D
:1007E000626028461C60BDE8384000F059B9A34259
:1007F00003D81A465368002BF9D111685018A0424B
:1008000013D00BD821686018834220D063605460F5
:100810002846BDE8384000F043B970470C232B60F0
:100820002846BDE8384000F03BB920680144501824
:1008300083421160ECD1D3E900030144536011609D
:10084000E6E7D2E90002014462602160C9E7D3E92A
:1008500000030144636021605460D9E76401002013
:10086000F8B5CD1C25F0030508350C2D38BF0C2537
:10087000002D06463ADBA94238D82A4F00F00EF97F
:100880003A6852B113685B1B04D433E023685B1BE6
:1008900025D522465468002CF8D1796800293BD030
:1008A0002946304600F040F8431C2AD0C41C24F0EE
:1008B0000304A04205D0211A304600F035F801307B
:1008C0001FD02560304600F0EBF804F10B0020F05B
:1008D0000700231DC31A01D05A42E250F8BD0B2B6A
:1008E0000BD8A24215D063685360EBE70C2333604A
:1008F0000020F8BD0B2B0BD9144623601C44256047
:10090000E0E70C233046336000F0CAF80020F8BD61
:1009100054683C601446D5E7304600F005F878602E
:10092000BEE700BF6401002038B5074C0023054630
:100930000846236000F086FD431C00D038BD2368C4
:10094000002BFBD02B6038BD3408002000000000D5
:100950000000000000000000000000000000000097
:100960000000000000000000000000000000000087
:100970000000000000000000000000000000000077
:1009800090F800F06DE9024520F007016FF0000CCF
:1009900010F0070491F820F040F049804FF0000477
:1009A0006FF00700D1E9002391F840F000F1080052
:1009B00082FA4CF2A4FA8CF283FA4CF3A2FA8CF38A
:1009C0004BBBD1E9022382FA4CF200F10800A4FAF1
:1009D0008CF283FA4CF3A2FA8CF3E3B9D1E9042345
:1009E00082FA4CF200F10800A4FA8CF283FA4CF37C
:1009F000A2FA8CF37BB9D1E9062301F1200182FA36
:100A00004CF200F10800A4FA8CF283FA4CF3A2FA3B
:100A10008CF3002BC6D0002A04BF04301A4612BA49
:100A2000B2FA82F2FDE8024500EBD2007047D1E94C
:100A3000002304F00305C4F100004FEAC50514F0DB
:100A4000040F91F840F00CFA05F562EA05021CBFAC
:100A500063EA050362464FF00004A9E730B59BB096
:100A6000074D00916FF00044049169460594CDE96B
:100A7000024500F0F1F8009B00221A701BB030BD57
:100A80000802FFFF10B4044C13460A4601462068D2
:100A90005DF8044BFFF7E2BFC0000020704700BFC5
:100AA000704700BF2DE9F0478E681D46AE420C46E8
:100AB0000B68174627D88046888910F4906F31D08C
:100AC000D1E9041606EB4606A3EB010906EBD67640
:100AD0006B1C76104B44B342324684BF1E463246EE
:100AE000430521D511464046FFF7BAFE824678B34A
:100AF0004A462169FFF77CFDA38923F4906343F004
:100B00008003A38115E02E4618462A46394600F098
:100B100007FCA2682368961B2B44A6602360002074
:100B2000BDE8F0873546EFE7404600F05DFC8246C1
:100B300050B1A6EB09020AEB09036661C4F810A0E4
:100B40002360A2602E46DFE721694046FFF734FEAE
:100B50000C23C8F80030A38943F04003A3814FF071
:100B6000FF30DDE72DE9F04F936883B09046002B0E
:100B70006CD017688D6882460C460868083742E0DA
:100B8000A38913F4906F2DD0D4E9041505EB450526
:100B9000A0EB010B05EBD575701C6D105844A842F5
:100BA0002A4684BF05462A465B0536D5114650467F
:100BB000FFF756FE00283AD05A4621690190FFF708
:100BC00017FDA289019B22F4906242F08002A2816B
:100BD000A5EB0B0203EB0B00656123612060A260B3
:100BE0003546B3465A46494600F09AFBD8F80830D5
:100BF000A2682068551B58449E1BA5602060C8F859
:100C000008601EB3083757E90296AB46002EF9D0AC
:100C1000AE42B5D23546B346E4E7504600F0E4FBB9
:100C200003460028D4D121695046FFF7C5FD0C23A7
:100C3000CAF80030A389002243F040034FF0FF3090
:100C4000A381C8E9012203B0BDE8F08F0020C8F8F5
:100C5000040003B0BDE8F08F2DE9F04F14468A89F7
:100C60009FB015068946029003D50A69002A00F054
:100C70001281059330238DF832302378904E002175
:100C800020220B918DF831200127002B00F092805B
:100C9000252B254603D118E0252B00F0BD8015F843
:100CA000013F002BF8D1B5EB040B00F08380224606
:100CB0005B4649460298FFF7F5FE01307AD00B9B60
:100CC0002A785B440B93002A74D000234FF0FF3244
:100CD00001350693CDE908338DF85B301C930792FC
:100CE00005E0069A07FA03F3134355460693AA460E
:100CF00005221AF8011B304600F0C2FAD346831BC6
:100D00000028EED1069BD90644BF20228DF85B2037
:100D100029781A0744BF2B228DF85B202A2953D04B
:100D2000A1F13003092B00F2AB80099A02E055468D
:100D30000AF1010A9AF8001002EB820203EB420268
:100D4000A1F13003092BD346F1D905F1020A09922A
:100D50002E2945D05B4C0322204600F091FA002852
:100D600057D0001B069A402404FA00F00243069272
:100D70000AF101049AF8001053488DF83010062249
:100D800000F07EFA002859D0504B002B49D005AB1B
:100D900000934A464E4B029806A9AFF30080804666
:100DA000B8F1FF3F06D00B9B43440B932378002BF5
:100DB0007FF46EAFB9F80C305B0654BF0B984FF060
:100DC000FF301FB0BDE8F08F059A1168043200298A
:100DD00005922DDB099169782E2905F1020AB9D116
:100DE0009BF801102A2933D1059B9BF802101A6841
:100DF00007920433002A05930BF102000BF1030A5A
:100E000040DB304C83460322204600F039FA0028AC
:100E1000A7D15446DA46ADE7B5EB040B3FF455AF26
:100E200045E7059B073323F0070308330593BAE72B
:100E3000494243F0020309910693CCE705AB0093C6
:100E40004A46234B029806A900F0D2F88046A7E74D
:100E5000A1F1300000220928079201D917E0DA46F3
:100E60009AF8011002EB820200EB4202A1F130007D
:100E700009280AF1010BF2D90AF1020A079269E77F
:100E8000AB4665E74FF0FF328346079262E7D346F1
:100E90000AF1010A5EE740210393FFF7E1FC039B9F
:100EA000C9F80000C9F8100018B14022C9F8142090
:100EB000DFE6029A0C2313604FF0FF3081E700BF9A
:100EC000AC4B0008B44B0008B84B00080000000011
:100ED000A50A00082DE9F0470C4691460A69896881
:100EE000DDF820808A42B8BF0A46C9F8002094F88D
:100EF000431006461F4611B10132C9F8002023688D
:100F000099065FD5D9F800200232C9F8002023687D
:100F100013F0060F19461DD1E1688A1A002AD8BFBE
:100F2000194617DD04F1190A002505E0E368D9F830
:100F300000209B1AAB420CDD012352463946304655
:100F4000C047013005F10105F0D14FF0FF30BDE899
:100F5000F087216894F84330003318BF01238A06D4
:100F60000AD5E1185A1C302081F84300224494F835
:100F7000451082F84310023304F1430239463046EB
:100F8000C0470130E1D02368D9F80050216903F04F
:100F90000603042BD4E902201AD08A421FDD4FF049
:100FA0000009521A91441A34002501E04D4516D02B
:100FB0000123224639463046C047013005F101057C
:100FC000F4D1C2E713F0060F0CD1D9F80020A3E743
:100FD000401B8A4220EAE079E3DC0028E3DC0020C1
:100FE000BDE8F08794F84330003318BF0123C3E70E
:100FF0002DE9F0430C46097E85B06E2906460C9D0E
:101000001746984604F1430C4AD00FD8632900F0E4
:10101000FF8000F2BF8000294ED0582940F0E180C7
:1010200084F845102268DFF844E212E0732900F0EA
:10103000C6807AD86F2900F0DB80702940F0D1801B
:10104000206840F0200222607823DFF824E284F850
:1010500045302B68191D1B682960150602D45006FF
:1010600048BF9BB2D10744BF42F020022260002B50
:101070006DD1D4E9001284F84330002A21F0200316
:101080002360A2607EDB21F0240121601021002A70
:1010900079D1654608294ED0ACEB050323610EE0FB
:1010A0002B6822686169181D286015061B6802D428
:1010B000500600F1C7801960002365462361CDF812
:1010C00000803B4603AA21463046FFF703FF01306C
:1010D00020D02A46236939463046C047013019D00E
:1010E00022680398E368920719D51A1A002A16DDB8
:1010F00004F11909002504E0E36803981A1AAA42CA
:101100000DDD01234A4639463046C047013005F11E
:101110000105F1D14FF0FF3005B0BDE8F0839842F2
:10112000B8BF184605B0BDE8F083752960D07829AE
:1011300057D1226888E72368DB07ADD56268236949
:101140009A42A9DC302305F8013C013DA4E71021B7
:10115000002284F843206268A260002A2CDB206809
:1011600020F004002060002B91D06546B3FBF1F223
:1011700001FB123013461EF8002005F8012D002B4C
:10118000F4D187E710219EF8003084F8423004F152
:1011900042057FE7642901D0692922D120682B68A4
:1011A000010603F1040245D51B682A60002B4BDBC6
:1011B000DFF8B8E00A21CEE7002BD6D1E3E72B68B1
:1011C0006268191D29601D680021284600F058F842
:1011D000002848D0401B60602061002384F8433021
:1011E0006DE7012384F84210236104F14205F4E71E
:1011F00020682B6810F0800F03F1040213D01B68E5
:101200002A606F290CBF08210A21DFF860E09FE700
:101210002B681A68191D0123296084F84220236174
:1012200004F14205D9E7400653BF1B682A601B88BA
:101230002A60E6E7410653BF1B682A60B3F9003015
:101240002A60B3E7198037E76268A2602D21002A7F
:1012500084F84310C3F10003DFF810E04FF00A01F7
:10126000BFF67EAF81E76068B6E700BFC04B0008FD
:10127000D44B000800000000000000000000000047
:1012800001F0FF01102A2BDB10F0070F08D010F837
:10129000013B013A8B422DD010F0070F42B3F6D13B
:1012A000F0B441EA012141EA014122F007047FF054
:1012B00000070023F0E80256083C85EA010586EAAB
:1012C000010685FA47F5A3FA87F586FA47F6A5FAE7
:1012D00087F68EB9EED1F0BC01F0FF0102F00702F3
:1012E00032B110F8013B013A83EA010313B1F8D19E
:1012F0000020704701387047002D06BF354603387F
:10130000073815F0010F07D1013015F4807F02BFB7
:10131000013015F4C03F0130F0BC0138704700BF08
:101320008842F0B40DD98B1883420AD9841832B19F
:10133000224613F8014D02F8014D9942F9D1F0BC53
:1013400070470F2A49D940EA01039B0747D1A2F110
:1013500010031B0901F1200707EB031701F110042B
:1013600000F1100554F8106C45F8106C54F80C6C32
:1013700045F80C6C54F8086C45F8086C54F8046C8B
:1013800045F8046C1034BC4205F11005EAD1013374
:1013900002F00F051B01032D1944034421D91F1F1F
:1013A0000E462C46043C56F804CB47F804CF032CD9
:1013B000F8D82C1F24F0030404342344214402F001
:1013C0000302002ABBD0013B0A4411F8014B03F889
:1013D000014F9142F9D1F0BC70470346F1E7034653
:1013E000F1E72A46EDE700BFE1B1F8B51446E2B1F6
:1013F00006460D4600F01EF8A04202D32F4638469E
:10140000F8BD21463046FFF72BFA07460028F6D0F4
:1014100022462946FFF7ECF830462946FFF7CCF97B
:101420003846F8BD1146FFF71BBAFFF7C5F9274646
:10143000E5E700BF51F8043C181F002BBCBF0B5858
:10144000C0187047044A05491368002B08BF0B46B3
:1014500018441060184670476C01002038080020BE
:101460002DE9F84F7D4F3C7D012C5BD09B4691468A
:10147000002301228A4680463A754CF25036BB6101
:1014800000F026FE764C054604E000F021FE401BED
:10149000B0424AD8E368DB03F7D4E36813F0F20FF5
:1014A000E36840F0AE80DA0701D50123E360B8F1CC
:1014B000030F14D8DFE808F00252663E684B5FFA6B
:1014C00089F91A6922F440721A611A691A611A6953
:1014D00042F001021A618AF80090BFF34F8F002397
:1014E0005F4C4CF25036BB6100F0F2FD054605E062
:1014F00000F0EEFD401BB04200F28180E368DB03A8
:10150000F6D4E068E36810F0F2004DD113F0010367
:1015100000F0A2800123E360514A136923F0010324
:10152000136103E00220BDE8F88F032000233B7520
:10153000BDE8F88F4A4B1A6922F440721A611A69A1
:1015400042F440721A611A6942F001021A61CAF843
:101550000090CAF804B0BFF34F8FC0E7404B1FFAAA
:1015600089F91A6922F440721A611A6942F4807288
:101570001A611A6942F001021A61AAF80090BFF3D9
:101580004F8FACE7364B1A6922F440721A611A6920
:1015900042F400721A611A6942F001021A61CAF833
:1015A0000090BFF34F8F9AE79C0703D5BB6943F0C8
:1015B0002003BB612A4BDB68D80603D5BB6943F027
:1015C0001003BB61264BDB68990603D5BB6943F06A
:1015D0000803BB61224BDB685A0603D5BB6943F0A5
:1015E0000403BB611E4BDB681B0603D5BB6943F0DC
:1015F0000203BB611A4BF2220120DA608CE7032060
:101600008AE79E0703D5BB6943F02003BB61144BF7
:10161000DB68DD0603D5BB6943F01003BB61104BEB
:10162000DB689C0603D5BB6943F00803BB610C4B28
:10163000DB68580603D5BB6943F00403BB61084B64
:10164000DB68190603D5BB6943F00203BB61044B99
:10165000F2220120DA6069E718465DE72C030020DA
:10166000003C0240064B1A69002A01DB002070474B
:101670000449054A59605A601869C00F704700BF95
:10168000003C024023016745AB89EFCD034A0020AF
:10169000136943F000431361704700BF003C0240F0
:1016A00007490002074BCA6800F4E06010B44FF627
:1016B000FF0422405DF8044B13431843C860704791
:1016C00000ED00E00000FA05174BDB68C3F30223CE
:1016D00030B4C3F107051C1D042D28BF0425062CBA
:1016E00018D9033B4FF0FF349C4022EA04044FF02A
:1016F000FF32002802FA05F221EA020101FA03F2A0
:1017000042EA04024FEA0212D2B206DB074B1A5435
:1017100030BC704700242346E9E700F00F00044B7B
:101720001A5430BC704700BF00ED00E000E400E058
:1017300014ED00E000F01F010123034A40098B4033
:1017400042F82030704700BF00E100E04309012269
:1017500000F01F000349203302FA00F041F8230093
:10176000704700BF00E100E00138B0F1807F0DD28A
:10177000074B0022072130B4F025064C5860104674
:1017800084F823509A60196030BC7047012070477C
:1017900010E000E000ED00E0044A042813680CBFEC
:1017A00043F0040323F004031360704710E000E0EB
:1017B000704700BF08B5FFF7FBFF08BD2DE9F041FA
:1017C0001E4690F8693082B0202B47D18846002908
:1017D00048D0B2FA82F301925B09002B42D190F813
:1017E00068100546012939D0C3660121212380F8FC
:1017F000681080F8693000F06BFC019A07462C688D
:10180000A5F85020A5F85220B5F852309BB2C3B1CC
:10181000B5F85220013A92B2A5F85220721C25D197
:10182000E2691306FCD5AB68B3F5805F3CD098F84D
:10183000003008F10108A362B5F852309BB2002BCA
:10184000E6D1711C39D1E3695A06FCD50023202268
:10185000184685F8692085F8683000E0022002B05B
:10186000BDE8F081012002B0BDE8F081E36918060F
:10187000D9D42EB100F02CFCC01B2C688642CDD8E8
:10188000236820220021032023F4D0732360A3685F
:1018900023F00103A36085F8692085F8681085F8B6
:1018A0006A2002B0BDE8F0812B69002BBFD138F867
:1018B000023BC3F30803A362A6E7E3695B06C5D452
:1018C000002EDDD000F004FCC01B2C688642B8D886
:1018D000D6E700BF034690F86A0020282DD171B3E7
:1018E0006AB393F86800012827D0986810B4B0F55F
:1018F000805F4FF001045965A3F85820A3F85A20DF
:1019000083F868401DD040BB1A6912BBFF22A3F8C0
:101910005C2000241A682221DC66204683F86A10C5
:10192000916883F8684041F001015DF8044B9160D3
:10193000136843F4907313607047022070470120CE
:1019400070471A69002AE1D140F2FF12A3F85C2027
:10195000DFE77F22A3F85C20DBE7B0F1805FD8D11E
:101960001A69002AF5D03F22A3F85C20D1E700BF16
:10197000704700BF704700BF0368DA6970B516078B
:1019800004461868996828D1950602D5810600F1A9
:101990008C80160604D4510601D542067AD470BD57
:1019A0000506F8D594F86920212AF8D1B4F8522018
:1019B00092B2002A00F0E180A168E26CB1F5805F8C
:1019C00000F0F280511CE16412789A62B4F852304F
:1019D000013B9BB2A4F8523070BD11F0010102D15D
:1019E00010F4907FD5D0D60707D5C50505D50125BC
:1019F0001D62E56E45F00105E566960739D4560788
:101A000001D500293FD1150703D5860676D40029D4
:101A100074D1E16E0029C2D0950601D580067DD42F
:101A2000E26E110704D49D6815F0400500F0A08017
:101A30001A68202122F490721A609A6822F001023A
:101A40009A6084F86A109A6852065ED59A68616E48
:101A500022F040029A60002957D05D4B08460B6582
:101A600001F0C2FC00289AD0606EBDE87040036DA2
:101A700018470029C7D002251D62E56E45F0040510
:101A8000E5665507BFD504251D62E56E45F00205E4
:101A9000E566B8E71A682021204622F040021A6065
:101AA00084F86910FFF764FF70BD94F86A20222A59
:101AB0002FD1A068B4F85C10B0F5805F626D6AD079
:101AC0005B6A501C0B4060651370B4F85A30013BE0
:101AD0009BB2A4F85A30002B7FF461AF2368202119
:101AE00020461A6822F490721A609A6822F0010265
:101AF0009A6084F86A1002F0C9FA70BD0821196270
:101B0000E16E41F00801E16683E72046FFF732FF0E
:101B100070BD9A6942F008029A6170BD94F86A201B
:101B2000222A33D1A068B4F85C10B0F5805F626DF2
:101B300045D05B6A501C0B40606513702368B4F895
:101B40005A20013A92B2A4F85A20002A7FF468AFD2
:101B50001A682021204622F490721A609A6822F0B6
:101B600001029A6084F86A1002F090FA236857E73D
:101B70002046FFF7FFFEE56670BD1A6822F080027E
:101B80001A601A6842F040021A6070BD9A6942F009
:101B900008029A6144E72069002891D15B6A0B40F2
:101BA00022F8023B626590E7216900297FF40AAFC1
:101BB00032F8021BC1F308019962E26406E720696A
:101BC0000028B6D1586A014022F8021B6265B6E7C8
:101BD000D51B000808B50022836BA3F85A201846CD
:101BE000A3F85220FFF7C6FE08BD00BF436ADA071C
:101BF00010B406D50168846A4A6822F40032224390
:101C00004A609C0706D50168C46A4A6822F480329B
:101C100022434A60590706D50168046B4A6822F4DA
:101C2000802222434A601A0706D50168446B4A683D
:101C300022F4004222434A60DC0606D50168846B28
:101C40008A6822F4805222438A60990606D5016888
:101C5000C46B8A6822F4005222438A605A060AD56D
:101C60000168046C4A68B4F5801F22F4801242EACD
:101C700004024A600BD01B0606D50268816C5368CB
:101C800023F400230B4353605DF8044B70474A680C
:101C9000446C22F4C00222434A60ECE7002800F0C2
:101CA0002981F8B590F86930044603F0FF02002B53
:101CB00047D023682421206984F86910A268196834
:101CC0000243606921F00101BB4D0243E0691960E4
:101CD00019680243E6680D40A1692A43256A1A6023
:101CE00041EA05025968B54D21F44051AB4241EA41
:101CF00006015960996821F4306142EA01029A6054
:101D000024D0AF4A934243D0AE4A934200F0A2801F
:101D1000AD4A934245D0AD4A934200F0B280AC4AFE
:101D2000934200F03481AB4A934200F06381AA4AA7
:101D3000934200F01981B0F5004F00F0708101204E
:101D4000F8BD80F8682002F02FF8B2E7A34AA44952
:101D5000D2F8902002F003028A5CB0F5004F2FD039
:101D6000082AECD801A151F822F000BF4F1E00084C
:101D7000E91D0008711E00083F1D00089B1E000899
:101D80003F1D00083F1D00083F1D0008A11E000860
:101D900002F5FA329349D2F8902002F00C028A5CE4
:101DA000DBE702F5F632D2F8902002F0C002402ABA
:101DB00070D045D9802A58D0C02A00F0A580BAE753
:101DC000082A00F22C81DFE812F0CC00B000C70036
:101DD0002A01C4002A012A012A01A200002AAAD14C
:101DE000B0F5004F00F0A18000F008FDD4E900310B
:101DF00000EB5102B2FBF1F292B2DA60626A002AA1
:101E000057D15A68002122F490425A609A6822F011
:101E10002A029A601A6842F001021A60E16600F034
:101E200057F9236806461A68120747D42022002370
:101E300084F86920184684F86A2084F86830F8BD70
:101E4000002A7FF478AFB0F5004F00F08A8000F0F0
:101E5000C5FCCBE702F5F832D2F8902002F0300250
:101E6000102A17D0ECD9202A70D1B0F5004F73D0CA
:101E700061685D4A02EB5102B2FBF1F292B2DA60A4
:101E8000BCE702F5F432D2F8902002F44072B2F5C9
:101E9000807F31D1B0F5004F5BD000F065FCA5E745
:101EA00061684A0802F50042B2FBF1F292B2DA60D0
:101EB000A4E72046FFF79AFE2368A2E74B4FDD69AF
:101EC00015F40015B2D100F003F9801B2368B84265
:101ED000F5D91A682021032022F4D0721A609A687A
:101EE00022F001029A6084F8691084F8685084F83E
:101EF0006A10F8BD01207047A2D9B2F5007FB4D0B6
:101F0000B2F5407F7FF417AFB0F5004FC8D16168DC
:101F10004A0802F58032B2FBF1F222F00F01C2F35F
:101F2000420289B20A43DA6068E700F067FCD4E94C
:101F300000314A0802EB4000B0FBF1F020F00F0244
:101F4000C0F3420092B21043D86057E7302ADBD08A
:101F5000F1E600F009FCEAE76168254A02EB51026C
:101F6000D9E700F03BFCE2E702F5DE32D2F8902040
:101F700002F44042B2F5804F8CD07FF661AFB2F5EB
:101F8000004F3FF472AFB2F5404FBDD0D3E602F53B
:101F90009232D2F8902002F44062B2F5806F3FF4A2
:101FA00079AF7FF61BAFB2F5006F3FF45EAFB2F5CD
:101FB000406FA9D0BFE600BFF369FFEF00100140FA
:101FC0000044004000480040004C004000500040E9
:101FD0000014014000780040007C004000380240BE
:101FE0007C4A0008804A00080024F400FEFFFF013C
:101FF0000048E80102F5E032D2F8902002F44052A5
:10200000B2F5805F3FF446AF7FF61AAFB2F5005FDE
:102010003FF42BAFB2F5405F3FF476AF8BE6002282
:102020000120DA60F8BD00BF704700BF10B5094B52
:102030004FF0FF3200241A621C625A625C621A611D
:102040001C615A615C619A619C61FFF7EDFF20465B
:1020500010BD00BF003802400E4A4FF47A730E499B
:102060001278B3FBF2F310B504460868B0FBF3F046
:10207000FFF77AFB08B90F2C01D9012010BD00220F
:1020800021464FF0FF30FFF71FFB044B00201C6080
:1020900010BD00BF240100202C01002028010020D9
:1020A00008B50320FFF7FCFA0020FFF7D5FF02F088
:1020B0007FFC002008BD00BF034A044B11681B7859
:1020C0000B441360704700BF480300202401002028
:1020D000014B1868704700BF4803002038B504461C
:1020E000FFF7F6FF0546631C02D0044B1B781C4427
:1020F000FFF7EEFF401BA042FAD338BD24010020B9
:10210000704700BF704700BFF8B5FFF7E1FF464BCF
:1021100005461A681C4642F001021A6004E0FFF707
:10212000D7FF401B02287DD823689807F7D523687E
:1021300041F288373C4D43F080032360FFF7C8FF2E
:1021400000230646A36004E0FFF7C2FF801BB842ED
:1021500068D8AB6813F00C0FF6D1FFF7B9FF2B6806
:102160000646314C23F450232B6004E0FFF7B0FF08
:10217000801B642856D823689903F7D4FFF7A8FF7B
:1021800023680646284D23F08073236004E0FFF7A0
:102190009FFF801B022845D82B689A01F7D4FFF7D0
:1021A00097FF2B680646204C23F080632B6004E0E9
:1021B000FFF78EFF801B642834D823681B01F7D4F7
:1021C000FFF786FF23680646174D23F080532360F0
:1021D00004E0FFF77DFF801B642823D8286810F0F7
:1021E0000050F6D1114B124A12496A60C5F884308A
:1021F000C5F88830EB68104A23F4FE43EB60EB68C7
:1022000043F47F03EB606B6F23F001036B676B6F2D
:1022100043F080736B671160FFF71EFF003018BF3B
:102220000120F8BD0320F8BD003802400030002432
:10223000103000240024F4002C010020002800F0BD
:10224000348103682DE9F041DD0782B0044635D5BD
:10225000AB498A6802F00C02042A00F0FE808A680A
:1022600002F00C02082A00F0F4806368B3F5803FA6
:1022700010D0002B00F01B81B3F5A02FA04B1A68E3
:1022800000F0628122F480321A601A6822F48022FF
:102290001A6004E09A4A136843F480331360FFF72E
:1022A00017FF974D064605E0FFF712FF801B6428D5
:1022B00000F2EE802B689A03F6D523689F0742D47C
:1022C0001A0717D56369002B00F0B0808C4B5A6F4A
:1022D0001D4642F001025A67FFF7FAFE064605E086
:1022E000FFF7F6FE801B022800F2D2806B6F9B077F
:1022F000F6D523685D076BD5814B1A6CD00000F1D1
:10230000ED801A6C012542F080521A641B6C03F0B8
:1023100080530193019B7B4B1A68D10540F1A78044
:10232000A368012B39D0002B00F0DA80052B744B09
:102330001A6F00F0118122F001021A671A6F22F061
:1023400004021A672EE06E4A916811F00C0F62D0F9
:10235000916801F00C0108295AD0E368002B00F0C5
:10236000DF80674B1A681D4642F001021A60FFF7D2
:10237000AFFE064605E0FFF7ABFE801B022800F229
:1023800087802B689807F6D52B68226923F0F8031D
:1023900043EAC2032B60236892E7594A136F43F064
:1023A00001031367FFF794FE554E804641F28837CC
:1023B00005E0FFF78DFEA0EB0800B84268D8336F48
:1023C0009B07F6D525B14E4A136C23F08053136456
:1023D000A369CBB14A4A916801F00C01082921D0C8
:1023E000022B136800F0C08023F080731446136042
:1023F000FFF76EFE054604E0FFF76AFE401B022869
:1024000046D823689B01F7D4002002B0BDE8F081D4
:1024100052685602A1D43A4A126895073CD5E26840
:10242000012A39D0012002B0BDE8F081344B5A6F47
:102430001D4622F001025A67FFF74AFE064604E0F5
:10244000FFF746FE801B022822D86B6F9F07F7D448
:102450004FE74A6850027FF508AF294A1268910396
:102460007FF52CAF6268002A7FF428AFDAE71A689C
:102470001E4642F480721A60FFF72AFE0746336850
:10248000DA053FF54DAFFFF723FEC01B6428F6D9F0
:10249000032002B0BDE8F081194920690A6822F0E2
:1024A000F80242EAC0020A600AE701207047144BB2
:1024B0001A681D4622F480321A601A6822F48022BB
:1024C0001A60FFF705FE064604E0FFF701FE801BD9
:1024D0006428DDD82B689B03F7D4EEE600251AE7C5
:1024E000074B41F288381A6F1E4622F001021A6724
:1024F0001A6F22F004021A67FFF7EAFD074608E0A8
:102500000038024000700040FFF7E2FDC01B40456C
:10251000BED8336F9807F7D4002D3FF459AF52E778
:102520002B4B1A681D4622F001021A60FFF7D0FDFE
:10253000064604E0FFF7CCFD801B0228A8D82B68D4
:102540009907F7D42368BBE642F480221A601A6820
:1025500042F480321A60A2E642F004021A671A6F4F
:1025600042F001021A671DE723F0807315461360DD
:10257000FFF7AEFD064604E0FFF7AAFD801B022828
:1025800086D82B689901F7D4D4E90732606A1343DF
:10259000D4E90A2143F000530D4C520843EA80135A
:1025A000013A43EA016343EA02436B602B6843F05C
:1025B00080732B60FFF78CFD054605E0FFF788FD73
:1025C000401B02283FF664AF23689A01F6D51BE74B
:1025D0000038024078B15E4A136803F00F038B4263
:1025E0000BD2136823F00F030B431360136803F03F
:1025F0000F038B4201D00120704703682DE9F041A1
:102600009D0714D55C0704D5524CA26842F4E052F1
:10261000A2601A0704D54F4CA26842F46042A2603F
:102620004C4C8568A26822F0F0022A43A260DF07C2
:1026300004460D4621D54268464B012A1B6863D0EB
:10264000022A78D0990728D5424941F288388B6808
:102650000E4623F0030313438B60FFF739FD074653
:1026600004E0FFF735FDC01B404562D8B3686268DF
:1026700003F00C03B3EB820FF3D1354A136803F078
:102680000F03AB420CD9136823F00F032B431360E5
:10269000136803F00F03AB4202D00120BDE8F081C4
:1026A00023685A0706D52B49E0688A6822F4E0526D
:1026B00002438A601B0707D5264A2169936823F4E1
:1026C000604343EAC103936022498B6803F00C0323
:1026D000042B1CD0082B2AD14A684B6802F03F0219
:1026E000496813F4800329D11B48C1F38811A1FB69
:1026F0000001FDF7C9FD174B5B68C3F301430133CC
:102700005B00B0FBF3F303E09E039DD4C5E7134BDE
:10271000104A0020124C92681249C2F30312A25CC4
:10272000D3400B60FFF798FC0020BDE8F0810A4B16
:10273000EEE70320B2E7980186D4AEE70748C1F37D
:1027400088110023A1FB0001FDF79EFDD3E700BF28
:10275000003C0240003802400024F40000127A00DD
:10276000004B00082C010020164908B58B6803F0C7
:102770000C03042B1BD0082B17D14A684B6802F0BE
:102780003F02496813F4800313D10F48C1F3881145
:10279000A1FB0001FDF778FD0A4B5B68C3F3014321
:1027A00001335B00B0FBF3F008BD074808BD0748E4
:1027B00008BD0648C1F388110023A1FB0001FDF705
:1027C00063FDE9E7003802400024F40000127A00BB
:1027D000014B1868704700BF2C010020044B054ACC
:1027E0009B680549C3F382230868D35CD8407047CF
:1027F00000380240104B00082C010020044B054A11
:102800009B680549C3F342330868D35CD8407047DE
:1028100000380240104B00082C01002030B504465F
:1028200083B00D4604E0FFF753FC401B632821D81A
:1028300023689A6812F4C05FF5D105E0FFF748FC01
:10284000401B2368632816D89A681206F6D40BE05A
:102850001B7BDBB28DF807309DF80730FFF738FCA3
:10286000401B2368632806D8986810F4C060EFD135
:1028700003B030BD236861685A68B1F5827F22F0E9
:10288000E0025A601AD0A26AB2F5005F0CD00123B0
:102890000022032084F85D30236E84F85C2043F02E
:1028A0002003236603B030BD1A684DF6FF710A405D
:1028B0001A601A6842F400521A60E8E7A268B2F59A
:1028C000004F02D0B2F5806FDDD11A6822F04002CD
:1028D0001A60A26AB2F5005FD9D1E5E700285DD0A1
:1028E000002290F85D302DE9F0418262044603F049
:1028F000FF02002B4DD0E76802232268B7F5E06F96
:1029000084F85D3027F40061136894BF4FF480555C
:10291000002523F04003B1F5E06F136035D1A66ABE
:10292000236B2BB9B7F5E06F8CBF02230123236320
:10293000A1684FF00008636820690B436169034395
:102940000B43D4E906010B43616A4FEA104C00F4D3
:10295000007E0F43216A0CF0040C40460B43616B70
:102960000F4343EA0E034FF0010E47EA0C073343CF
:102970003D4313605560D36923F40063D361C4F809
:10298000608084F85DE0BDE8F08100231E46A3620C
:10299000C6E780F85C2001F0D1FBACE7012070476E
:1029A00098B10268022310B580F85D3004461368C0
:1029B00023F04003136001F0EFFB00232366184669
:1029C00084F85D3084F85C3010BD0120704700BF92
:1029D00030B4044690F85C0001284CD094F85D00B7
:1029E0000125C0B284F85C50A8420ED06568B5F5E8
:1029F000827F05D00220002384F85C3030BC704711
:102A0000A568002DF6D10428F4D1002B18BF002AA8
:102A10002FD071B394F85D00042802D0052084F80B
:102A20005D00E06800252264B0F5E06F2566A163D3
:102A3000E387A387A4F844302268A4F846301DD861
:102A4000B4F8463013481449012BC4E913101CD9BB
:102A5000536823F480535360536843F0E00353609A
:102A6000106810F040000ED1136843F0400313606B
:102A7000C1E70120BFE7022030BC70470749084B7F
:102A8000C4E91331E4E70020B5E7536843F4805309
:102A90005360E1E7792D0008B12A0008F92C0008FD
:102AA000752C0008704700BF704700BF704700BF1B
:102AB000B0F846200168012A036C20D9CA6823F8BF
:102AC000022BB0F846200364931E9BB2A0F8463058
:102AD000B0F846309BB2012B0CD0B0F846309BB218
:102AE0003BB90268536823F060035360C38F9BB205
:102AF00083B170474B6843F480534B60EDE75A1C39
:102B000002640A7B1A70B0F84630013B9BB2A0F811
:102B10004630E2E710B50446FFF7DAFA01462268CC
:102B20002046536823F020035360FFF777FE18B167
:102B3000236E43F020032366236E5BB994F85D3067
:102B40002046042B4FF0010384F85D3009D0FFF7D5
:102B5000ABFF10BD0123204684F85D30FFF7A6FFD0
:102B600010BDFFF79FFF10BD0268034630B55568E2
:102B700085B0916801F04104012C5FD0880707D52A
:102B80002C0605D51A6D184605B0BDE83040104733
:102B900011F4B07F50D0A8064ED54C060ED593F850
:102BA0005D00032851D0186E002440F00400186620
:102BB0000094D068009090680090009888060CD52A
:102BC000186E002440F0010018660294906802908C
:102BD000106820F0400010600298C90508D5196EF1
:102BE000002041F008011966039091680391039950
:102BF000196E09B31C465368012123F0E0035360AA
:102C0000AB0784F85D1014D05368A16D23F0030363
:102C1000536021B1114B08460B6500F0E5FB636D75
:102C200053B10E4A18461A6505B0BDE8304000F0B1
:102C3000DBBB2046FFF73AFF05B030BD6C069DD5E3
:102C4000C36C05B0BDE83040184700230193D3683A
:102C5000019393680193019BEEE700BF612C00088C
:102C600008B50022836BA3F846201846DA87FFF7E1
:102C70001DFF08BD0168026CCB6822F8023BB0F86A
:102C800046300264013B9BB2A0F84630B0F84630B3
:102C90009BB233B94B6823F040034B60C38F9BB2A8
:102CA00003B1704710B50446FFF712FA01462268D7
:102CB0002046536823F020035360FFF7AFFD18B19F
:102CC000236E43F020032366236E5BB994F85D30D6
:102CD0002046042B4FF0010384F85D3009D0FFF744
:102CE000E3FE10BD0123204684F85D30FFF7DEFED1
:102CF00010BDFFF7D7FE10BD826B016832F8023BB2
:102D0000CB60C38F8263013B9BB2C387C38F9BB2EF
:102D10003BB94B6823F080034B60B0F846309BB260
:102D200003B1704710B50446FFF7D2F90146226897
:102D30002046536823F020035360FFF76FFD18B15E
:102D4000236E43F020032366236E5BB994F85D3055
:102D50002046042B4FF0010384F85D3009D0FFF7C3
:102D6000A3FE10BD0123204684F85D30FFF79EFED0
:102D700010BDFFF797FE10BDC18F836B012902685C
:102D800014D933F8021BD160C28F8363931E9BB2A8
:102D9000C387C38F9BB243B90268536823F0800393
:102DA0005360B0F846309BB24BB17047591C8163F9
:102DB0001B781373C38F013B9BB2C387E9E710B540
:102DC0000446FFF785F9014622682046536823F040
:102DD00020035360FFF722FD18B1236E43F0200358
:102DE0002366236E5BB994F85D302046042B4FF0C8
:102DF000010384F85D3009D0FFF756FE10BD0123B2
:102E0000204684F85D30FFF751FE10BDFFF74AFE03
:102E100010BD00BF90F85D00704700BF704700BF55
:102E2000704700BF704700BF704700BF03681A6952
:102E3000910710B5044602D5DA68920768D41A697A
:102E4000520702D5DA6850074FD41A69110702D524
:102E5000DA68120737D41A69D00602D5DA68D106C3
:102E60001ED41A69D20702D5DA68D00769D41A6964
:102E7000110602D5DA6812066BD41A69D00502D59C
:102E8000DA6811066DD41A69520602D5DA6850065E
:102E90006FD41A69910602D5DA68920649D410BD3A
:102EA0006FF01001082220461961DB69227713F4C4
:102EB000407F6FD1FFF7B2FF2046FFF7B3FF00223C
:102EC00023682277CDE76FF00801042220461961BC
:102ED000DB6922779B075AD1FFF7A0FF2046FFF757
:102EE000A1FF002223682277B5E76FF004010222D8
:102EF000204619619B69227713F4407F44D1FFF784
:102F00008DFF2046FFF78EFF0022236822779CE783
:102F10006FF00201012219619B690277990730D194
:102F2000FFF77CFF2046FFF77DFF00222368227712
:102F300085E76FF0200220461A61BDE81040FFF7D8
:102F4000DFB86FF0010220461A6101F08FF82368A4
:102F50008DE76FF0800220461A61FFF7D3F82368EF
:102F60008BE76FF0800220461A61FFF7CBF82368E9
:102F700089E76FF0400220461A61FFF755FF23688A
:102F800087E7FFF74DFFD0E7FFF74AFFBCE7FFF702
:102F900047FFA6E7FFF744FF91E700BF1B4A1C4B22
:102FA000116C41F0805130B5116483B0126C1C4635
:102FB00002F080520192019A1A6842F480321A603B
:102FC000FFF786F8054605E0FFF782F8401BB0F5ED
:102FD0007A7F17D86368DA03F6D523680C4D43F47B
:102FE00000332360FFF774F8044605E0FFF770F83C
:102FF000001BB0F57A7F05D86B689B03F6D50020DF
:1030000003B030BD032003B030BD00BF0038024024
:10301000007000402DE9F04FDFF82CC283B08E46DF
:103020000025DFF82892D1F8008003E00135102D4B
:1030300000F0B6800123AB4008EA03018B42F5D1D2
:10304000DEF8044024F01007022F40F0AC80EF08B7
:1030500005F0070A4FF00F0BDEF8102000EB870792
:103060004FEA8A0A3E6A0BFA0AFB02FA0AF24FEAB0
:10307000450A26EA0B064FF0030B32430BFA0AFB14
:1030800004F003063A626FEA0B02076806FA0AF6D2
:1030900017403E4306608668C4F3001706EA020B39
:1030A000DEF80C60AF4006FA0AF646EA0B068660C8
:1030B000466826EA03031F434760C668E700DEF858
:1030C000083002EA060203FA0AF343EA0203C36085
:1030D000ACD5D9F8446025F0030705F003030F22AF
:1030E00046F4804607F180479B00C9F8446007F525
:1030F0009C37D9F8446002FA03FA06F48046019638
:10310000484E019AB042BA6822EA0A0220D006F577
:103110008066B0425ED0444EB04260D0434EB04272
:1031200062D0434EB04264D0424EB0426BD0424E69
:10313000B0426DD0414EB04260D0414EB0426CD0F2
:10314000404EB0420CBF09260A2606FA03F31A4382
:10315000BA60E603DCF800306FEA010205F1010510
:1031600054BF13400B43A703CCF80030DCF8043005
:1031700054BF13400B43E602CCF80430DCF80830AF
:1031800054BF13400B43A402CCF80830DCF80C30D9
:1031900054BF13400B43102DCCF80C307FF44AAFD2
:1031A00003B0BDE8F08F4FEA450A0322D0F800B023
:1031B000013F04EA020602FA0AF2012F6FEA020254
:1031C00006FA0AF602EA0B0B46EA0B0606603FF621
:1031D00074AF60E7012606FA03F31A43B8E7022644
:1031E00006FA03F31A43B3E7032606FA03F31A4376
:1031F000AEE7042606FA03F31A43A9E7072606FA00
:1032000003F31A43A4E7052606FA03F31A439FE7DC
:10321000062606FA03F31A439AE7082606FA03F38A
:103220001A4395E70000024000080240000C0240EB
:10323000001002400014024000180240001C02402E
:103240000020024000240240003C014000380240BF
:103250002DE9F04F0025DFF87CB103E00135102D9A
:1032600000F081804FF0010C0CFA05F333EA010203
:10327000F4D14FF0030805FA0CF2076805F00704D3
:1032800008FA02F225FA08F64FF00F09A400D2431B
:1032900000EB860609FA04F4DB43174025F0030E21
:1032A00007600EF1804ED6F820A005EA08070EF55B
:1032B0009C3E2AEA0404BF00346209FA07F48668D7
:1032C0001640866046681E404660C6683240384EEA
:1032D000C260B042DEF8082002EA040245D006F5DA
:1032E0008066B04246D0334EB04246D0324EB042F5
:1032F00047D0324EB04247D0314EB04248D0314E26
:10330000B04249D0304EB0424AD0304EB0424BD09D
:103310002F4EB0420CBF09260A2606FA07F7BA421A
:103320009CD1DEF80820013522EA0404102DCEF8E5
:103330000840DBF8002002EA0302CBF80020DBF8AB
:10334000042002EA0302CBF80420DBF8082002EA9A
:103350000302CBF80820DBF80C2003EA0203CBF8C9
:103360000C307FF47FAFBDE8F08F0027BA427FF4C6
:1033700075AFD6E70CFA07F7F8E7022606FA07F763
:10338000F4E708FA07F7F1E7042606FA07F7EDE78E
:10339000052606FA07F7E9E7062606FA07F7E5E73E
:1033A000072606FA07F7E1E7082606FA07F7DDE73A
:1033B0000000024000080240000C024000100240E1
:1033C0000014024000180240001C0240002002408D
:1033D00000240240003C014002B9090481617047A9
:1033E000436959404161704790F835200346022AED
:1033F00003D0802201205A65704702680521002011
:1034000083F83510136823F001031360704700BF81
:1034100039B101291ED002290CBF4FF400714FF4BD
:1034200040710E4B1A6922F440721A611A691143F5
:1034300019611A6922F0F8021A611A6942F002024F
:1034400042EAC00018611A6942F480321A61BFF37F
:103450004F8F70474FF48071E3E700BF003C02409C
:1034600003682DE9F04313F0010683B004460BD046
:10347000B84A916821F400019160466B916831432C
:10348000B6FA86F67609916013F4002510D0B1499A
:10349000E56BD1F88C20B5F5801F22F4401242EA8A
:1034A0000502C1F88C2000F0B081B5FA85F56D09F0
:1034B000D90210D5A748216CD0F88C20B1F5800F27
:1034C00022F4400242EA0102C0F88C2000F09B8105
:1034D000002908BF012513F0807F18BF01269A0636
:1034E00000F14981D9060CD59A4AD2F88C1021F006
:1034F0008071C2F88C10D2F88C10A06B0143C2F816
:103500008C105A0408D59349606ED1F8902022F4AB
:1035100040320243C1F890201F0408D58D49A06EA7
:10352000D1F8902022F440220243C1F89020D80321
:1035300008D58849E06ED1F8902022F44012024369
:10354000C1F89020990308D58249206FD1F89020C6
:1035500022F440020243C1F890205A0608D57D4962
:10356000606CD1F8902022F003020243C1F8902051
:103570001F0608D57749A06CD1F8902022F00C02E4
:103580000243C1F89020D80508D57249E06CD1F803
:10359000902022F030020243C1F89020990508D50E
:1035A0006C49206DD1F8902022F0C0020243C1F88E
:1035B00090205A0508D56749606DD1F8902022F413
:1035C00040720243C1F890201F0508D56149A06DE3
:1035D000D1F8902022F440620243C1F89020D80430
:1035E00008D55C49E06DD1F8902022F440520243A6
:1035F000C1F89020990408D55649206ED1F8902042
:1036000022F440420243C1F890205A0208D55149A1
:10361000A06FD1F8902022F080620243C1F8902080
:103620009F020CD54B49E06FD1F89020B0F1006FAC
:1036300022F0006208BF01250243C1F8902013F078
:10364000080F18BF0125580308D54249606FD1F80B
:10365000902022F040720243C1F8902019020BD44E
:10366000B3F1007F16D0F20714D4012D00F0D08002
:10367000002003B0BDE8F0833649B3F1007FD4F8F1
:103680008000D1F8902022F0805242EA0002C1F876
:103690009020E8D12F4B1A681E4622F080621A60F3
:1036A000FEF716FD074604E0FEF712FDC01B642876
:1036B0005DD833681B01F7D42368DF0712D5626B2E
:1036C00082B9D6F88420D6F8847002F4403260685B
:1036D00007F07067A1683A4342EA801242EA017239
:1036E000C6F884201E0300F11181D80204D5226C93
:1036F000B2F5800F00F00F81D90111D5154E606829
:10370000D6F88420D6F8847002F07062216907F040
:10371000E0473A4342EA801242EA0142C6F8842076
:103720009A010DD5236962681B04D4E9021043EAAB
:103730008213084A43EA006343EA0173C2F8843003
:10374000044B1A681E4642F080621A60FEF7C0FC05
:10375000074606E000380240FEF7BAFCC01B6428AA
:1037600005D833681B01F7D5012D81D150E0032026
:1037700003B0BDE8F083874A874B116C1F4641F0C8
:1037800080511164126C02F080520192019A1A6801
:1037900042F480721A60FEF79BFC804605E0FEF75B
:1037A00097FCA0EB08006428E1D83B68DB05F6D560
:1037B000784A236B116F03F4407011F4407111D0FB
:1037C00081420FD0116F176F21F4407147F4803799
:1037D0001767176F27F4803717671167116FCF07C7
:1037E00000F1C380B0F5407F00F0B18069498A687C
:1037F00022F4F8128A60674AC3F30B03116F0B437C
:10380000136723686EE6012665E6002501264FE66C
:10381000604B1A681D4622F080521A60FEF758FC71
:10382000064604E0FEF754FC801B64289FD82B68F2
:103830009F00F7D423681D0300F19280D8021DD5A4
:10384000226CDAB953496569D1F88820D1F88860CB
:1038500002F44032A06906F0E046324342EA8512A3
:1038600042EA0062C1F88820D1F88C20A06A22F4D4
:10387000F852013842EA0022C1F88C20990215D58D
:10388000E26FB2F1006F11D142496569D1F8882029
:10389000D1F8886002F07062206A06F0E046324398
:1038A00042EA851242EA0042C1F888201A0719D577
:1038B000384A6569D2F88810D2F8883001F0706112
:1038C000E06903F440330B4343EA851343EA007392
:1038D000C2F88830D2F88C30E16A23F440330B43CD
:1038E000C2F88C302B4B1A681C4642F080521A608A
:1038F000FEF7EEFB054605E0FEF7EAFB401B6428F9
:103900003FF635AF23689B00F6D5B1E6E26BB2F522
:10391000801F7FF4EAAE1F4E6068D6F88420D6F888
:10392000847002F44032E16807F0E0473A4342EA2B
:10393000801242EA0162C6F88420D6F88C10626ACE
:1039400021F01F01013A0A43C6F88C20D4E6114841
:1039500012498268194022F4F8120A4382604AE749
:10396000E26B002A3FF46EAF68E7174641F28838F1
:10397000FEF7AEFB814606E0FEF7AAFBA0EB0900CE
:1039800040453FF6F4AE3B6F9807F5D5236B03F443
:10399000407027E70038024000700040FFFCFF0F36
:1039A0000FB400B5B5B00B4937AB02A81A46019366
:1039B000FDF768F802A8FCF7E3FF02A982B26FF0F6
:1039C0007F430548FDF7FAFE35B05DF804EB04B01F
:1039D000704700BFE44A0008DC0400200FB400B5C3
:1039E000B5B036AB02A853F8041B1A460193FDF795
:1039F00049F8002809DD02A8FCF7C2FF02A982B23B
:103A00006FF07F430348FDF7D9FE35B05DF804EB56
:103A100004B07047DC04002040490223404A4FF0C4
:103A2000080C086C40F08050F0B50864B5B0096C23
:103A300009274FF48036012501F080514FF48004AE
:103A400007A800910099116841F4404111604FF4BA
:103A5000A8711268079702F4404208960C950192EB
:103A6000019A0D931091CDE91133CDE90E4CFEF77B
:103A7000E5FB00284BD1FFF791FA002841D10F2038
:103A8000022500244FF4A0524FF4805302900721E6
:103A900002A8CDE90354CDE90523FEF79BFD50BBF9
:103AA000002320494FF4007213A813911F9224930E
:103AB0002793CDE92A33CDE92C33CDE92E33FFF717
:103AC000CFFC28B14FF4877217491848FFF786FFDB
:103AD000FEF77EFE164BA3FB00308009FDF744FE87
:103AE0000420FDF759FE00224FF0FF301146FDF78C
:103AF000EBFD35B0F0BDFB220B490C48FFF76EFF24
:103B0000CEE7ED2208490948FFF768FFB7E7E6224C
:103B100005490648FFF762FFADE700BF00380240E5
:103B20000070004060F20300904A00089C4A0008C0
:103B3000D34D62102DE9F04784B0784E784C782050
:103B400000AFFCF745FD30607820764DFCF740FD76
:103B500020607420FCF73CFD734B1860FEF7A0FA60
:103B6000FFF75AFF00F0B4F900F0C2FA00F0FAF8DB
:103B70006E48FFF733FF3268216878236C48FEF700
:103B800027FF6C4EFEF7A4FA0446FEF7A1FA804622
:103B900000F0FCFE002857D1674B41F287324344C6
:103BA0001B1B9342F1D84445EFD06448FFF716FF42
:103BB000DFF89C814FF0FF32614B62490020C3F86F
:103BC0008020C3F88420C3F88820C3F88C20C3F871
:103BD0009020C3F89420C3F89820C3F89C20C3F821
:103BE0008021C3F88421C3F88821C3F88C21C3F84D
:103BF0009021C3F89421C3F89821C3F89C21086050
:103C000048608860D8F8043043F00073C8F8043086
:103C1000D8F8243023F4E023C8F82430FEF706FA5D
:103C2000FEF772FA4248FEF7BBFE474BC8F8083071
:103C30001A68336882F308889847FEF749FA804685
:103C400000F0A4FE0028A7D0FEF742FA044600F0D8
:103C5000A3FE4FF480512846FFF7C2FB381D00F049
:103C600035FEB7F90C30012B96D1D7E9019A00F057
:103C700099FE36485146FFF793FE5146484600F0FC
:103C800075FD4846FCF7ACFC2C48FFF7A7FEDFF8B3
:103C9000C0904FF0FF322A4B2A490020C3F8802001
:103CA000C3F88420C3F88820C3F88C20C3F8902080
:103CB000C3F89420C3F89820C3F89C20C3F880214F
:103CC000C3F88421C3F88821C3F88C21C3F890215C
:103CD000C3F89421C3F89821C3F89C210860486078
:103CE0008860D9F8043043F00073C9F80430D9F87B
:103CF000243023F4E023C9F82430FEF797F9FEF7C7
:103D000003FA0B48FEF74CFE0F4BC9F808301A684F
:103D1000336882F3088898473EE700BF20030020FD
:103D2000280300200004024024030020C44A0008A5
:103D3000CC0700200400010878ECFFFFB44A00081B
:103D400000E100E010E000E000000108E44A0008A3
:103D500000ED00E00A4601460148FFF73FBE00BF04
:103D60009C4A000838B50D4B00224FF4E1340C4D4D
:103D70000C2118461A615961C3E90054C3E90222B3
:103D8000C3E90622C3E90822FDF788FF00B938BD60
:103D900083210448BDE83840FFF7DCBFDC04002085
:103DA00000100140F44A00080368414A934270B58C
:103DB0008AB025D03F4A934245D03F4A93425DD0D6
:103DC0003E4A934201D00AB070BD3D4B4FF4F051D2
:103DD000022000265A6C0325072442F010025A6480
:103DE0005B6C059105A903F0100306903548049318
:103DF000049B0994CDE90765FFF70CF90AB070BD83
:103E00002F4B022000240822196C4FF44066032532
:103E100041F40021196405A91B6C069003F40023EA
:103E2000294809920193019B0596CDE90745FFF7C3
:103E3000F1F8224621463420FDF746FC3420FDF7F8
:103E400079FC0AB070BD1E4B4FF4C07102200026F1
:103E50001A6C0325082442F080421A641B6C0591F9
:103E600005A903F08043069018480293029B099429
:103E7000CDE90765FFF7CEF80AB070BD104B0320FF
:103E8000022600251A6C082405A942F000421A6493
:103E90001B6C059003F0004308900C480393039BB0
:103EA0000994CDE90665FFF7B5F80AB070BD00BF0B
:103EB000004C004000780040007C004000100140B1
:103EC000003802400000024000080240001002409A
:103ED000514B00224AF20E112DE9F0411C6B8EB0BD
:103EE0000126DFF8488144F004044C4F4C4D404615
:103EF0001C631C6B04F004040194019C1C6B44F0D3
:103F000020041C631C6B04F020040294029C1C6BB4
:103F100044F080041C631C6B04F080040394039C35
:103F20001C6B34431C631C6B34400494049C1C6B5A
:103F300044F040041C631C6B04F040040594059C91
:103F40001C6B44F010041C631C6B04F010040694FA
:103F5000069C1C6B44F002041C631C6B04F00204FE
:103F60000794079C1C6B44F008041C6314461B6BED
:103F700003F008030893089BFFF72EFA3846224601
:103F80004FF48E51FFF728FA224628464FF63C415F
:103F9000FFF722FA09A923480B94CDE90964FFF73A
:103FA00039F84FF4805309A91F480993CDE90A4411
:103FB000FFF730F84EF20E13404609A909930C940E
:103FC000CDE90A64FFF726F84FF48E53384609A965
:103FD00009930C94CDE90A64FFF71CF8082309A99A
:103FE00028460993CDE90A44FFF714F84FF6344305
:103FF00009A9284609930C94CDE90A64FFF70AF849
:10400000022309A928460993CDE90A44FFF702F8DB
:104010000EB0BDE8F08100BF00380240000402404D
:10402000000C024000000240001402400018024050
:10403000704700BFFEE700BFFEE700BFFEE700BF1E
:10404000FEE700BF704700BF704700BF704700BF6A
:1040500008B5FEF731F8BDE80840FDF7ABBB00BF7F
:104060000148FEF7E3BE00BFE4030020034B0268F3
:104070001B689A4200D0704700F0A8B8E403002003
:104080000148FDF779BC00BFBC050020034B026866
:104090001B689A4200D0704700F0A2BABC0500200D
:1040A0000F4A104BD2F888000F4940F4700070B4EA
:1040B000C2F88800002418684FF000650B4E40F0ED
:1040C000010018609C601868014019605E60196802
:1040D00021F480211960DC60956070BC704700BFDE
:1040E00000ED00E000380240FFFFF6FE1030002433
:1040F00038B50F4B00224FF4E0640E4D07211846EF
:104100001D60DC60D9629A619A62C3E90122C3E949
:104110000422C3E90822C3E90C22FEF7DFFB00B941
:1041200038BD47210448BDE83840FFF713BE00BF43
:10413000CC07002000300140184B00080268144BE7
:104140009A4200D0704703F5843302200522596C4F
:1041500041F4805170B5596486B05B6C00243826F8
:10416000032503F4805301A9029000930948009BA2
:1041700005920196CDE90345FEF74CFF22460F213B
:104180002320FDF7A1FA2320FDF7D4FA06B070BD75
:10419000003001400004024008B50268084B9A4212
:1041A00000D008BD074A38210748536C23F48053D8
:1041B0005364FFF74DF82320BDE80840FDF7C6BA69
:1041C000003001400038024000040240F8B5454C80
:1041D0002368012B00D02368434B1A68012A0DD0B5
:1041E0001A6801320AD0414B1A68012A00D01B68B4
:1041F0003F4B1A68012A00D01B68F8BD1D68012DCD
:1042000006D06368002BEEDC002323606360EAE7DE
:104210005A68002AF5DB5A68364E013A5A60376808
:10422000012F22D03368022B3BD03368032B4ED0B2
:104230003368042BE5D12A464FF480512E48FFF70E
:10424000CBF800224FF400512B48FFF7C5F82A465F
:104250004FF480612848FFF7BFF800224FF4006157
:104260002548FFF7B9F83560CBE73A464FF40051DF
:104270002148FFF7B1F800224FF480511E48FFF7A4
:10428000ABF83A464FF480611B48FFF7A5F80022CF
:104290004FF400611848FFF79FF83368013333602B
:1042A000AFE72A464FF400511348FFF795F8002274
:1042B0004FF480511048FFF78FF82A464FF4006101
:1042C0000D48FFF789F800224FF48061E2E72A46A3
:1042D0004FF480510848FFF77FF800224FF4005157
:1042E000E8E700BFDC0300204C030020640400204A
:1042F000D403002030010020000C0240F0B4384DFF
:104300000223384E2968338005293BD8DFE801F0C5
:104310000D161F283103344B1B78412B03D1334931
:1043200006224B712A60F0BC70472F4B1B78242B60
:10433000F9D12E4901220B702A60F4E72A4B1B7831
:10434000472BF0D1294902224B702A60EBE7264B1C
:104350001B78502BE7D1254903228B702A60E2E7B6
:10436000214B1B78472BDED120490422CB702A60D9
:10437000D9E71D4B1B78532BD5D11C4905220B7156
:104380002A60D0E78B1F402BCDD8174B1B780A2B08
:1043900004D016484A1C43542A60C4E7002314483A
:1043A0001C46C2180133642B82F8D040F9D1002496
:1043B0000E4A135D07190134DBB2A14287F8D030F1
:1043C000F7D100231946D1540133642BFBD10123CB
:1043D000084AC0F83441296033801380A3E700BF46
:1043E000A40200203E0100203008002040020020EE
:1043F0002C0600203C01002070B4354C0223354DC2
:1044000022682B80052A3BD8DFE802F00D161F2812
:104410003103314B1B78412B03D1304906224B71BC
:10442000226070BC70472C4B1B78242BF9D12B4990
:1044300001220B702260F4E7274B1B78472BF0D149
:10444000264902224B702260EBE7234B1B78502B4E
:10445000E7D1224903228B702260E2E71E4B1B78D2
:10446000472BDED11D490422CB702260D9E71A4BBD
:104470001B78472BD5D1194905220B712260D0E753
:10448000931F402BCDD8144B1B780A2B04D0134814
:10449000511C83542160C4E7002311491846C854B5
:1044A0000133642BFBD100260C48835DDBB28B55B6
:1044B0000136B242F9D100231A46C2540133642BAB
:1044C000FBD101234E66074922602B800B80A8E7B1
:1044D000D4010020360100203008002070010020A7
:1044E0002C06002034010020F8B5374D0223374E4A
:1044F00029683380052936D8DFE801F008111A232E
:104500002C03334B1B78432B39D0F8BD304B1B7831
:10451000242BFAD12F4901220B702A60F8BD2C4BB5
:104520001B78472BF1D12B4902224B702A60F8BD32
:10453000274B1B78502BE8D1264903228B702A6029
:10454000F8BD234B1B78522BDFD122490422CB70BC
:104550002A60F8BD1E4B1B784D2BD6D11D49052274
:104560000B712A60F8BD8B1F402BCED8184B1B78DF
:104570000A2B09D017484A1C43542A60F8BD154934
:1045800006224B712A60F8BD002313481C46C2184E
:104590000133642B82F83841F9D10E4A0023C41844
:1045A000013312F8017B994284F83871F7D1642203
:1045B00000210848FCF7B6F801230021074A3380A0
:1045C00029601380F8BD00BF0C03002042010020C9
:1045D00030080020A80200202C0600204001002006
:1045E0002DE9F843574CB4F90030012B01D0FFF707
:1045F0007BFF554DB5F90030012B01D0FFF7FCFED4
:10460000524EB6F90030012B01D0FFF777FE504F24
:10461000B7F90030012B11D1B4F90020012A03D1E0
:10462000B5F90020012A19D04A4B002401224A483A
:1046300019461C70BDE8F843FDF74CB9DFF824813A
:104640000222DFF82491D8F80010A9F800200529EB
:1046500048D8DFE801F03D33291F150BB6F90020DB
:10466000012AE1D1012BDFD1BDE8F883394A127864
:104670004C2AD1D1394806214271C8F80010CBE745
:10468000344A12784C2AC7D1344805210271C8F83F
:104690000010C1E72F4A1278472ABDD12F480421C4
:1046A000C270C8F80010B7E72A4A1278502AB3D16E
:1046B0002A4803218270C8F80010ADE7254A127815
:1046C000472AA9D1254802214270C8F80010A3E763
:1046D000204A1278242A9FD1204801210270C8F86C
:1046E000001099E78A1F402A96D81A4A12780A2A97
:1046F00005D01A4F481C7A54C8F800008CE70023F4
:1047000017489C46C2180133642B82F868C0F9D15F
:10471000124A002300EB030C013312F801EB99421B
:104720008CF868E0F6D1642200210C48FBF7FAFF10
:1047300001220023A9F80020C8F8003013463A806F
:104740006AE700BF40010020340100203C01002046
:104750003801002030080020BC050020D8010020CE
:104760002C0600203C0200203A0100202DE9F041F7
:104770000D460746FCF776FF1D48FFF72FF902218B
:104780000846FEF745FE02210320FEF741FE022106
:104790000420FEF73DFE02210520FEF739FE3220FF
:1047A000FDF79CFC1348FFF719F9BDB13D44124ECB
:1047B0007C1EDFF84C80013DF61B01E0A5420DD0C8
:1047C0003119002014F8012F0023FCF749FE0028BE
:1047D000F4D04046FFF702F9A542F1D1FCF756FFAD
:1047E0000648FFF7FBF86420BDE8F041FDF776BC12
:1047F000244B00083C4B000801000108744B0008E2
:10480000604B000870B52A48FEF7AEF92848FEF75D
:1048100001FB01280ED0274B1B881BB203B170BDD2
:10482000254A78232549126809682148BDE8704067
:10483000FEF7CEB8204C21680B88DAB2552AEAD1AF
:104840001B0A502BE7D11E4D742202312868FBF75A
:10485000CFFE2D680023EA1D05F1730012F8011F39
:104860000B4490429BB2F9D1164968680A6830B18E
:104870002D6825B12468B4F876409C420FD0124BC5
:10488000002119800D4B45F2550514121B681014B8
:10489000110E9A711D80DC7118725972BBE790423B
:1048A000EDD10132084B01200A601880EAE700BF11
:1048B000CC07002012030020200300202803002042
:1048C0002403002044010020100300202DE9F047BC
:1048D000284E054637687C68012C17D0DFF8A48085
:1048E000D8F800006C2207F1080102FB04006C38C4
:1048F000FBF77EFE3368D3E900329A421ED00022D5
:104900002846C5E900292A81BDE8F087DFF878A0AC
:10491000BAF90030002BE1D13A684FF06C09164B20
:1049200009FB02F9DFF85C804846C3F80090FBF70A
:104930004FFEAAF80040C8F80000D3E70F484FF038
:10494000FF34FFF74BF80E49326800230968322024
:104950000B80A1F87630C2E90043FDF7BFFB064AA1
:10496000D8F800100123126828462B81C5E90012EF
:10497000BDE8F087240300201C0300209C4B0008A6
:10498000200300201403002018030020014B188886
:1049900000B2704710030020014B002018807047C0
:1049A00010030020014B01221A80704712030020DF
:1049B00008B50320FCF774FE00226FF00B001146CF
:1049C000FCF782FE00226FF00A001146FCF77CFE25
:1049D00000226FF009001146FCF776FE00226FF00E
:1049E00004001146FCF770FE00226FF00300114630
:1049F000FCF76AFE00226FF001001146FCF764FE2E
:104A000000224FF0FF301146BDE80840FCF75CBEC5
:104A1000DFF834D0002103E00C4B5B5843500431E5
:104A20000B480C4B42189A42F6D30B4A02E0002383
:104A300042F8043B094B9A42F9D3FFF731FBFBF7ED
:104A4000A3FDFFF777F8704700000520F84B00083A
:104A5000C000002048010020480100203808002044
:104A6000FEE70000F8B500BFF8BC08BC9E467047E2
:0C4A7000F8B500BFF8BC08BC9E467047BB
:104A7C000104020800101010041010100210101085
:104A8C00080000005372632F6D61696E2E63000085
:104A9C004552524F52204556454E54202573202DD9
:104AAC002025640D0A000000426F6F74696E672E3A
:104ABC002E2E0D0A00000000426F6F746C6F616443
:104ACC00657220496E697469616C697A696E672ECA
:104ADC002E2E0D0A0000000066696C655F73697A02
:104AEC00653A2025640D0A005372632F7573617249
:104AFC00742E63000000000000000000010203049B
:104B0C000607080900000000010203045372632F1A
:104B1C007370692E630000004D656D6F72792045CE
:104B2C0072656173696E672E2E2E0D0A00000000EF
:104B3C0055706461746546696C6520697320777281
:104B4C006974696E67206F6E206D656D6F72790D7B
:104B5C000A00000048616C20666C61736820657205
:104B6C00726F720D0A0000005570646174654669BD
:104B7C006C6520686173206265656E20777269745C
:104B8C00656E206F6E206D656D6F72790D0A000079
:104B9C00557067726164696E672E2E2E0D0A0000C7
:104BAC00232D302B20000000686C4C006566674597
:104BBC0046470000303132333435363738394142CC
:104BCC00434445460000000030313233343536372B
:0C4BDC0038396162636465660000000007
:084BE800D0B6FF7F01000000C0
:044BF000690200084E
:044BF4004102000872
:104BF800C4000020000000000000000000000000C9
:104C0800000000000000000000000000000000009C
:104C1800000000000000000000000000000000008C
:104C2800000000000000000000000000000000007C
:104C3800000000000000000000000000000000006C
:104C4800000000000000000000000000000000005C
:104C58000000000001000000100000000024F40023
:104C6800010000000200020002000200020002002F
:084C780002000200010000002F
:0400000508004A1194
:00000001FF
