:020000040801F1
:1000000000000520C5A50108198F0108278F0108E8
:100010002D8F0108338F0108398F0108000000007F
:10002000000000000000000000000000617F0108E7
:100030003F8F010800000000318101084D8F010849
:1000400015A6010815A6010815A6010815A60108A0
:1000500015A6010815A6010815A6010815A6010890
:1000600015A6010815A6010815A6010815A6010880
:1000700015A6010815A6010815A6010815A6010870
:1000800015A6010815A6010815A6010815A6010860
:1000900015A6010815A6010815A6010815A6010850
:1000A00015A6010815A6010815A6010815A6010840
:1000B000598F010815A601086D8F010815A60108C2
:1000C00015A6010815A6010815A60108FD9F01083F
:1000D00015A6010815A6010815A6010815A6010810
:1000E00015A6010815A6010815A6010815A6010800
:1000F00015A6010815A6010815A6010815A60108F0
:1001000015A6010815A6010815A6010815A60108DF
:10011000E19E010815A6010815A6010815A601080B
:1001200015A6010815A6010815A6010815A60108BF
:1001300015A6010815A6010815A6010815A60108AF
:1001400015A6010815A6010815A6010815A601089F
:1001500015A6010815A6010815A6010815A601088F
:1001600015A6010815A6010815A6010815A601087F
:1001700015A6010815A6010815A601080000000033
:1001800015A6010815A6010815A6010815A601085F
:1001900015A6010815A6010815A6010815A601084F
:1001A00015A6010815A6010815A6010815A601083F
:1001B00015A6010815A6010815A6010815A601082F
:0801C00015A6010815A60108AF
:10020000044B05481B1A062B02D9044B03B11847AF
:10021000704700BF4F0100204C010020000000008B
:1002200005490648091A891001EBD171491002D01D
:10023000034B03B1184770474C0100204C010020CC
:100240000000000010B5064C237843B9FFF7D8FF33
:10025000044B13B10448AFF300800123237010BD99
:100260004C0100200000000018A6010808B5084B4A
:100270001BB108490848AFF300800848036813B968
:10028000BDE80840CCE7064B002BF9D09847F7E7CC
:10029000000000005001002018A601084C010020B9
:1002A0000000000053B94AB9002908BF00281CBF4C
:1002B0004FF0FF314FF0FF3000F07AB9ADF1080C8C
:1002C0006DE904CE00F006F8DDF804E0DDE9022374
:1002D00004B070472DE9F0478C460D460446089E51
:1002E000002B51D18A4217466DD9B2FA82FEBEF177
:1002F000000F0BD0CEF1200C01FA0EF520FA0CFC09
:1003000002FA0EF74CEA050C00FA0EF44FEA174A0F
:10031000250CBCFBFAF81FFA87F90AFB18CC45EA52
:100320000C4508FB09F3AB420AD9ED1908F1FF327D
:1003300080F02381AB4240F22081A8F102083D44C5
:10034000ED1AA4B2B5FBFAF00AFB105544EA0544D5
:1003500000FB09F9A14509D9E41900F1FF3380F048
:100360000A81A14540F2078102383C44A4EB09040C
:1003700040EA08400021002E61D024FA0EF4002348
:1003800034607360BDE8F0878B4207D9002E54D0EB
:10039000002186E821000846BDE8F087B3FA83F122
:1003A000002940F08E80AB4202D3824200F2FA80F4
:1003B000841A65EB03050120AC46002E3FD086E889
:1003C0001010BDE8F08712B90127B7FBF2F7B7FAB2
:1003D00087FEBEF1000F34D1EB1B3A0C1FFA87FCED
:1003E0000121B3FBF2F8250C02FB183345EA034563
:1003F0000CFB08F3AB4207D9ED1908F1FF3002D22C
:10040000AB4200F2D1808046ED1AA3B2B5FBF2F008
:1004100002FB105543EA05440CFB00FCA44507D938
:10042000E41900F1FF3302D2A44500F2B880184667
:10043000A4EB0C0440EA08409DE731463046BDE895
:10044000F087CEF1200405FA0EF307FA0EF720FA32
:1004500004F83A0C25FA04F448EA0308B4FBF2F174
:100460004FEA184502FB11441FFA87FC45EA044590
:1004700001FB0CF3AB4200FA0EF409D9ED1901F1BE
:10048000FF3080F08A80AB4240F2878002393D44E1
:10049000EB1A1FFA88F5B3FBF2F002FB103345EAC2
:1004A000034500FB0CF3AB4207D9ED1900F1FF380F
:1004B0006FD2AB426DD902383D44EB1A40EA01419C
:1004C0008FE7C1F1200722FA07F88B4005FA01F403
:1004D00048EA030320FA07FE4FEA134CFD404EEAB8
:1004E000040EB5FBFCF94FEA1E440CFB19551FFA2C
:1004F00083F844EA054509FB08F4AC4202FA01F22C
:1005000000FA01FA08D9ED1809F1FF3043D2AC42E4
:1005100041D9A9F102091D442D1B1FFA8EFEB5FB1E
:10052000FCF00CFB10554EEA054400FB08F8A04512
:1005300007D9E41800F1FF3529D2A04527D90238A0
:100540001C4440EA0940A4EB0804A0FB02894C4586
:10055000C6464D4615D312D056B1BAEB0E0364EB26
:10056000050404FA07F7CB401F43CC4037607460A2
:100570000021BDE8F0871846F8E69046E0E6C2455F
:10058000EAD2B8EB020E69EB03050138E4E728462E
:10059000D7E7404691E78146BEE7014678E7023853
:1005A0003C4445E7084608E7A8F102083D442BE72C
:1005B000704700BF70B50F4E0F4D761BB61018BFB9
:1005C000002405D0013455F8043B9847A642F9D1E0
:1005D0000A4E0B4D761B0AF01FF8B61018BF002408
:1005E00006D0013455F8043B9847A642F9D170BDB6
:1005F00070BD00BFF0A90108F0A90108F4A9010825
:10060000F0A90108024B0146186800F0EDB800BFE0
:10061000C0000020024B0146186800F09DB800BFE2
:10062000C0000020844641EA000313F003036DD1AB
:10063000403A41D351F8043B40F8043B51F8043BA5
:1006400040F8043B51F8043B40F8043B51F8043BAC
:1006500040F8043B51F8043B40F8043B51F8043B9C
:1006600040F8043B51F8043B40F8043B51F8043B8C
:1006700040F8043B51F8043B40F8043B51F8043B7C
:1006800040F8043B51F8043B40F8043B51F8043B6C
:1006900040F8043B51F8043B40F8043B51F8043B5C
:1006A00040F8043B51F8043B40F8043B51F8043B4C
:1006B00040F8043B403ABDD2303211D351F8043BEC
:1006C00040F8043B51F8043B40F8043B51F8043B2C
:1006D00040F8043B51F8043B40F8043B103AEDD29B
:1006E0000C3205D351F8043B40F8043B043AF9D2EC
:1006F000043208D0D2071CBF11F8013B00F8013BBF
:1007000001D30B8803806046704700BF082A13D3CB
:100710008B078DD010F003038AD0C3F10403D21AE3
:10072000DB071CBF11F8013B00F8013B80D331F817
:10073000023B20F8023B7BE7043AD9D3013A11F897
:10074000013B00F8013BF9D20B7803704B78437002
:100750008B7883706046704791B151F8043C04393E
:10076000002BB8BFC9181F4B1A68FAB18A4230B4BF
:100770000AD908680C18A24226D04A60196030BC19
:1007800070478B4203D81A465368002BF9D114687E
:1007900015198D420DD006D808680C189C4219D046
:1007A0004B605160EBE70C230360E8E74A60196097
:1007B000704709680C44111999421460DFD10ACBC3
:1007C0000C4453601460DAE7146852684A602044AD
:1007D0000860D3E71C685B684B6020440860516088
:1007E000CDE700BF6801002070B5CC1C24F00304E5
:1007F00008340C2C38BF0C24002C06463BDBA142ED
:1008000039D8274D296851B10A68121B04D436E043
:100810001A68121B1AD519464B68002BF8D1696863
:10082000002937D02146304600F03CF8431C22D046
:10083000C31C23F00305A84205D0291A304600F056
:1008400031F8013017D02C602B4604E00B2A0DD96B
:100850001A6013441C6003F10B0020F007001A1DFE
:10086000821A02D05142995070BD70BD8B420ED099
:100870005A684A60EFE70C233360002070BD0B2AF2
:1008800003D84A680B462A60E5E70B46E0E70A46CC
:100890000B46F8E7304600F005F86860C2E700BF95
:1008A0006801002038B5074C002305460846236040
:1008B00000F084FD431C00D038BD2368002BFBD022
:1008C0002B6038BDF0450020000000000000000053
:1008D0000000000000000000000000000000000018
:1008E0000000000000000000000000000000000008
:1008F00000000000000000000000000000000000F8
:1009000090F800F06DE9024520F007016FF0000C4F
:1009100010F0070491F820F040F049804FF00004F7
:100920006FF00700D1E9002391F840F000F10800D2
:1009300082FA4CF2A4FA8CF283FA4CF3A2FA8CF30A
:100940004BBBD1E9022382FA4CF200F10800A4FA71
:100950008CF283FA4CF3A2FA8CF3E3B9D1E90423C5
:1009600082FA4CF200F10800A4FA8CF283FA4CF3FC
:10097000A2FA8CF37BB9D1E9062301F1200182FAB6
:100980004CF200F10800A4FA8CF283FA4CF3A2FABC
:100990008CF3002BC6D0002A04BF04301A4612BACA
:1009A000B2FA82F2FDE8024500EBD2007047D1E9CD
:1009B000002304F00305C4F100004FEAC50514F05C
:1009C000040F91F840F00CFA05F562EA05021CBF2D
:1009D00063EA050362464FF00004A9E7F0B59BB057
:1009E0000D466FF000444FF402774FF6FF766946EC
:1009F00000950495ADF80C7002940594ADF80E6066
:100A000000F0F2F8009B00221A701BB0F0BD00BF8E
:100A100010B4044C13460A46014620685DF8044BA6
:100A2000FFF7DCBFC00000202DE9F0478E689E4232
:100A30000C461D46174628D88046888910F4906FCA
:100A400032D04E692368096906EB4606A3EB01091B
:100A500006EBD6766B1C76104B44B342324684BF0D
:100A60001E463246430522D511464046FFF7BCFEDE
:100A7000824680B34A462169FFF7D4FDA38923F457
:100A8000906343F08003A38116E008681E462A465F
:100A9000394600F0FDFBA2682368961B2B44A66034
:100AA00023600020BDE8F08708683546EFE7404640
:100AB00000F052FC824650B1A6EB09030AEB090094
:100AC0006661C4F810A02060A3602E46DFE72169AC
:100AD0004046FFF741FE0C23C8F80030A38943F0DD
:100AE0004003A3814FF0FF30BDE8F0872DE9F04FC0
:100AF000936883B09046002B70D082460C461768EE
:100B00008D68086842E0A38913F4906F2ED0656960
:100B1000216905EB4505A0EB010B05EBD5750BF144
:100B200001006D103044A8422A4684BF05462A467B
:100B30005B0538D511465046FFF756FE00283CD0DD
:100B40005A4621690190FFF76DFDA289019B22F4AD
:100B5000906242F08002A281A5EB0B0203EB0B0036
:100B6000656123612060A2603546B3465A46494616
:100B700000F08EFBD8F80830A2682068551B584456
:100B80009E1BA5602060C8F808603EB37E683B46A7
:100B90000837002EFAD0AE42D3F80090AB46B2D25E
:100BA0003546B346E2E7504600F0D6FB0346002840
:100BB000D2D121695046FFF7CFFD0C23CAF800308F
:100BC000A389002243F040034FF0FF30A381C8F80F
:100BD0000820C8F8042003B0BDE8F08F0020C8F852
:100BE000040003B0BDE8F08F2DE9F04F14468A8968
:100BF0009DB0150689460393824603D50B69002BE9
:100C000000F0EB8030238DF82A3023787C4E0022D0
:100C1000202109928DF829100127002B00F08480F3
:100C2000252B254603D117E0252B00F0878015F8EA
:100C3000013F002BF8D1B5EB040B75D022465B4683
:100C400049465046FFF7F0FE01306DD0099B2A78E7
:100C50005B440993002A67D000234FF0FF3201352F
:100C60000493079306938DF853301A93059204E08A
:100C7000049A07FA03F313430493297805223046B4
:100C800000F0B6FA2C46831B01350028F0D1049BF6
:100C9000D90644BF20228DF8532021781A0744BF7B
:100CA0002B228DF853202A296BD0A1F13002092A7A
:100CB0000BD8079B14F8011F03EB830302EB4303DC
:100CC000A1F13002092AF5D907932E2941D04D4DC3
:100CD0000322284600F08CFA38B1049B401B4022C6
:100CE00002FA00F0034301340493217846488DF85A
:100CF00028100622013400F07BFA00284BD0434B29
:100D000003B303AB00934A46414B04A95046AFF3EB
:100D100000808046B8F1FF3F06D0099B4344099309
:100D20002378002B7FF47CAFB9F80C305B0654BFFE
:100D300009984FF0FF301DB0BDE8F08FB5EB040B04
:100D40008AD07BE7039B073323F007030833039321
:100D5000E3E761782A2904F1010026D0A1F13002ED
:100D60000023092A05930446B1D814F8011F03EBA8
:100D7000830302EB4303A1F13002092AF5D905935D
:100D8000A5E7039A11680432002903921FDB07913B
:100D90006178013499E703AB00934A461C4B04A9E0
:100DA000504600F0D1F88046B4E7039B1A680592DC
:100DB000002A03F104030393B8BF4FF0FF3204F19C
:100DC0000203AEBFA178A17805921C467FE7494295
:100DD00043F0020307910493DAE74021FFF704FD93
:100DE000C9F80000C9F8100018B14023C9F8143040
:100DF00008E70C23CAF800304FF0FF309BE700BF34
:100E0000ACA90108B4A90108B8A9010800000000B4
:100E1000290A01082DE9F0470C4691460A698968BC
:100E2000DDF820808A42B8BF0A46C9F8002094F84D
:100E3000431006461F4611B10132C9F8002023684D
:100E400099065DD5D9F800200232C9F80020236840
:100E500013F0060F19461DD1E1688A1A002AD8BF7F
:100E6000194617DD04F1190A002505E0E368D9F8F1
:100E700000209B1AAB420CDD012352463946304616
:100E8000C047013005F10105F0D14FF0FF30BDE85A
:100E9000F087216894F84330003318BF01238A0695
:100EA0000AD5E1185A1C302081F84300224494F8F6
:100EB000451082F84310023304F1430239463046AC
:100EC000C0470130E1D0236803F00603042B29D08A
:100ED000A36822699342C8BF4FF0000930DD9B1A16
:100EE00099441A34002501E04D4529D001232246BA
:100EF00039463046C047013005F10105F4D1C4E759
:100F000013F0060F08D1E168D9F800208A1A002AE8
:100F1000D8BF1946A6DCBDE794F84330003318BFAC
:100F20000123C9E7D9F80010E068A3682269A0EBA3
:100F30000109934229EAE979D1DCB9F1000FD0D156
:100F40000020BDE8F08700BF2DE9F0430C46097E84
:100F500085B06E29064617460C98984604F1430C56
:100F600055D00FD8632900F01B8100F2D6800029EC
:100F70005CD0582940F0E88084F845102268DFF8FA
:100F800060E213E0732900F0FD8000F289806F2990
:100F900000F0E480702940F0D780226842F02002FF
:100FA00022607823DFF83CE284F8453003681506B8
:100FB00003F1040100F1FF8055064BBF1B881B683D
:100FC00001600160D00744BF42F020022260002B84
:100FD00040F09580226822F0200222601021002239
:100FE00084F843206068A0600028C0F28D802268E9
:100FF00022F004022260002B67D1002840F0868096
:10100000654608296FD0ACEB0503236111E0236826
:101010001A0600F1D38013F0400F0368626903F1F0
:10102000040101601B6814BF1A801A600023654622
:101030002361CDF800803B4603AA21463046FFF7E6
:10104000E9FE013021D02A46236939463046C0479F
:1010500001301AD02368E06813F0020F039B19D007
:10106000C21A002A16DD04F11909002504E0E0681F
:10107000039BC21AAA420DDD01234A463946304677
:10108000C047013005F10105F1D14FF0FF3005B047
:10109000BDE8F0839842B8BF184605B0BDE8F083BC
:1010A00075295BD078294FD122687AE76168A16001
:1010B0002D200029C3F1000384F8430021DB22F036
:1010C0000402DFF81CE122600A216546B3FBF1F25D
:1010D00001FB123013461EF8002005F8012D002BED
:1010E000F4D108298FD12368D9078CD56268236988
:1010F0009A4288DC302305F8013C013D83E710214A
:101100006DE7DFF8DCE00A21002BDED19EF800302D
:1011100084F8423004F1420573E7642901D069295B
:1011200012D122680368150603F1040152D4550652
:101130004BBFB3F900301B6801600160002BB5DBC9
:10114000DFF89CE00A214DE7012384F84210236177
:1011500004F14205002384F843306AE723681A0645
:1011600033D413F0400F036803F1040215BF1B884A
:101170001B68026002606F2914BF0A210821DFF892
:1011800060E02CE703686268191D01601D6800219A
:10119000284600F02DF800B3401B60602061D9E7BD
:1011A00003681A68191D0123016004F1420584F8DF
:1011B00042202361CEE701601B6803E70368626990
:1011C000191D01601B681A6030E703681A1D026070
:1011D0001B68D0E701601B68B0E76068DEE700BF0E
:1011E000C0A90108D4A90108000000000000000007
:1011F00001F0FF01102A2BDB10F0070F08D010F8C8
:10120000013B013A8B422DD010F0070F42B3F6D1CB
:10121000F0B441EA012141EA014122F007047FF0E4
:1012200000070023F0E80256083C85EA010586EA3B
:10123000010685FA47F5A3FA87F586FA47F6A5FA77
:1012400087F68EB9EED1F0BC01F0FF0102F0070283
:1012500032B110F8013B013A83EA010313B1F8D12E
:101260000020704701387047002D06BF354603380F
:10127000073815F0010F07D1013015F4807F02BF48
:10128000013015F4C03F0130F0BC0138704700BF99
:101290008842F0B50DD98B1898420AD28418002ADA
:1012A00051D0224613F8014D02F8014D9942F9D16F
:1012B000F0BD0F2A48D941EA00039B0746D100F14F
:1012C000100401F11003154653F8106C44F8106C2B
:1012D00053F80C6C44F80C6C53F8086C44F8086C28
:1012E000103D53F8046C44F8046C0F2D03F1100307
:1012F00004F11004E8D8A2F1100323F00F0302F068
:101300000F0E1033BEF1030F1944034421D91E1FE1
:101310000D467446043C55F8047B46F8047F032CC4
:10132000F8D8AEF1040424F0030404342144234427
:1013300002F0030262B1013B0A4411F8014B03F8C9
:10134000014F8A42F9D1F0BD0346F3E70346F2E7C5
:10135000F0BD7246EEE700BFF8B51446F9B1C2B170
:1013600006460D4600F020F8844201D82846F8BD14
:1013700021463046FFF738FA074670B12246294623
:10138000FFF750F9294630463D46FFF7E5F9284674
:10139000F8BDFFF7E1F92546E8E70546E6E711461F
:1013A000BDE8F840FFF720BA51F8040C0028A0F17E
:1013B0000400BCBF0B58C018704700BF044A054961
:1013C0001368002B08BF0B4618441060184670477E
:1013D00070010020F845002080B582B000AF786031
:1013E0007B68002B01D101237EE07B6893F84130BC
:1013F000DBB2002B06D17B68002283F8402078689E
:1014000007F0D4FC7B68242283F841207B681B68AA
:101410007A681268126822F001021A607B681B6801
:101420007A68526822F070621A617B681B687A6879
:101430001268926822F400429A607B68DB68012B94
:1014400007D17B681B687A68926842F400429A6010
:1014500006E07B681B687A68926842F404429A60EE
:101460007B68DB68022B04D17B681B684FF4006249
:101470005A607B681A687B681B6859681C4B0B4371
:1014800053607B681B687A681268D26822F4004255
:10149000DA607B681B687A6811697A68526911435F
:1014A0007A68926912020A43DA607B681B687A687C
:1014B000D1697A68126A0A431A607B681B687A6885
:1014C0001268126842F001021A607B6800225A64B6
:1014D0007B68202283F841207B6800221A637B68A6
:1014E000002283F84220002318460837BD4680BDFD
:1014F0000080000280B588B002AFF8607A601A46BA
:101500000B467B8113463B8100237B61FB6893F88C
:101510004130DBB2202B40F0E480FB6893F8403090
:10152000012B01D10223DDE0FB68012283F840207A
:1015300001F0D2FD78617B690093192301224FF4F9
:101540000041F86800F0FCF90346002B01D00323AA
:10155000C8E0FB68212283F84120FB68102283F851
:101560004220FB6800225A64FB687A685A62FB6872
:101570003A895A85FB6800225A63FB685B8D9BB2EF
:10158000FF2B0ED9FB68FF221A85FB681B8DDAB290
:101590007989564B00934FF08073F86800F050FB48
:1015A00070E0FB685B8D9AB2FB681A85FB681B8D47
:1015B000DAB279894D4B00934FF00073F86800F070
:1015C0003FFB5FE07A69396AF86800F0F3F9034697
:1015D000002B07D0FB685B6C042B01D1012381E059
:1015E00003237FE0FB681A68FB685B6A581CF96894
:1015F00048621B789362FB685B8D9BB2013B9AB299
:10160000FB685A85FB681B8D013B9AB2FB681A8503
:10161000FB681B8D002B35D1FB685B8D9BB2002BCB
:1016200030D07B6900933B6A00228021F86800F08B
:1016300087F90346002B01D0032353E0FB685B8D41
:101640009BB2FF2B0ED9FB68FF221A85FB681B8D0E
:10165000DAB27989002300934FF08073F86800F0C4
:10166000EFFA0FE0FB685B8D9AB2FB681A85FB68A6
:101670001B8DDAB27989002300934FF00073F8686C
:1016800000F0DEFAFB685B8D9BB2002B9AD17A6981
:10169000396AF86800F0CEF90346002B07D0FB68E2
:1016A0005B6C042B01D101231CE003231AE0FB68CF
:1016B0001B682022DA61FB681A68FB681B6859689E
:1016C0000B4B0B405360FB68202283F84120FB68E2
:1016D000002283F84220FB68002283F84020002388
:1016E00000E0022318461837BD4680BD0020008068
:1016F00000E800FE80B588B002AFF8607A601A4654
:101700000B467B8113463B8100237B61FB6893F88A
:101710004130DBB2202B40F0E580FB6893F840308D
:10172000012B01D10223DEE0FB68012283F8402077
:1017300001F0D2FC78617B690093192301224FF4F8
:101740000041F86800F0FCF80346002B01D00323A9
:10175000C9E0FB68222283F84120FB68102283F84D
:101760004220FB6800225A64FB687A685A62FB6870
:101770003A895A85FB6800225A63FB685B8D9BB2ED
:10178000FF2B0ED9FB68FF221A85FB681B8DDAB28E
:101790007989574B00934FF08073F86800F050FA46
:1017A00071E0FB685B8D9AB2FB681A85FB681B8D44
:1017B000DAB279894E4B00934FF00073F86800F06D
:1017C0003FFA60E07A69396AF86800F06FF9034619
:1017D000002B07D0FB685B6C042B01D1012382E056
:1017E000032380E0FB685B6A591CFA685162FA685F
:1017F0001268526AD2B21A70FB681B8D013B9AB212
:10180000FB681A85FB685B8D9BB2013B9AB2FB6853
:101810005A85FB681B8D002B35D1FB685B8D9BB215
:10182000002B30D07B6900933B6A00228021F8684E
:1018300000F086F80346002B01D0032353E0FB6839
:101840005B8D9BB2FF2B0ED9FB68FF221A85FB68CC
:101850001B8DDAB27989002300934FF08073F8680A
:1018600000F0EEF90FE0FB685B8D9AB2FB681A8519
:10187000FB681B8DDAB27989002300934FF0007367
:10188000F86800F0DDF9FB685B8D9BB2002B99D105
:101890007A69396AF86800F0CDF80346002B07D062
:1018A000FB685B6C042B01D101231CE003231AE0CD
:1018B000FB681B682022DA61FB681A68FB681B68FA
:1018C00059680C4B0B405360FB68202283F8412081
:1018D000FB68002283F84220FB68002283F8402046
:1018E000002300E0022318461837BD4680BD00BF24
:1018F0000024008000E800FE80B483B000AF786070
:101900007B681B689B6903F00203022B03D17B6891
:101910001B6800229A627B681B689B6903F00103C5
:10192000012B07D07B681B687A681268926942F0C5
:1019300001029A6100BF0C37BD465DF8047B704719
:1019400080B584B000AFF860B9603B601346FB71AE
:101950001CE03B68B3F1FF3F18D03B68002B07D079
:1019600001F0BAFB0246BB69D21A3B689A420DD914
:10197000FB68202283F84120FB68002283F8422084
:10198000FB68002283F8402003230FE0FB681B68FC
:101990009A69BB681A40BB689A420CBF01230023B6
:1019A000DBB21A46FB799A42D3D00023184610378F
:1019B000BD4680BD80B584B000AFF860B9607A6084
:1019C0002CE07A68B968F86800F0DCF80346002B70
:1019D00001D001232AE0BB68B3F1FF3F1ED0BB68F2
:1019E000002B07D001F078FB02467B68D21ABB6857
:1019F0009A4213D9FB685B6C43F02002FB685A647F
:101A0000FB68202283F84120FB68002283F84220F3
:101A1000FB68002283F84020032307E0FB681B6873
:101A20009B6903F00203022BCBD100231846103729
:101A3000BD4680BD80B584B000AFF860B9607A6003
:101A400028E07A68B968F86800F09CF80346002B33
:101A500001D0012326E0BB68002B07D001F03CFB3E
:101A600002467B68D21ABB689A4213D9FB685B6C4A
:101A700043F02002FB685A64FB68202283F841206F
:101A8000FB68002283F84220FB68002283F8402094
:101A9000032307E0FB681B689B6903F02003202BEE
:101AA000CFD1002318461037BD4680BD80B584B025
:101AB00000AFF860B9607A6055E07A68B968F86894
:101AC00000F060F80346002B01D0012353E0FB68CF
:101AD0001B689B6903F02003202B29D1FB681B683E
:101AE0009B6903F00403042B05D1FB681B8D002BBD
:101AF00001D000233FE0FB681B682022DA61FB680D
:101B00001A68FB681B6859681D4B0B405360FB68E3
:101B100000225A64FB68202283F84120FB680022DF
:101B200083F84220FB68002283F84020012322E052
:101B3000BB68002B07D001F0CFFA02467B68D21AAF
:101B4000BB689A420FD9FB685B6C43F02002FB68CC
:101B50005A64FB68202283F84120FB68002283F846
:101B60004020032307E0FB681B689B6903F0040324
:101B7000042BA2D1002318461037BD4680BD00BFFC
:101B800000E800FE80B584B000AFF860B9607A600C
:101B9000FB681B689B6903F01003102B48D11CE005
:101BA000BB68B3F1FF3F18D0BB68002B07D001F032
:101BB00093FA02467B68D21ABB689A420DD9FB6839
:101BC000202283F84120FB68002283F84220FB6832
:101BD000002283F8402003232BE0FB681B689B69ED
:101BE00003F02003202BDBD1FB681B681022DA6195
:101BF000FB681B682022DA61F868FFF77DFEFB684E
:101C00001A68FB681B6859680C4B0B405360FB68F3
:101C100004225A64FB68202283F84120FB680022DA
:101C200083F84220FB68002283F84020012300E073
:101C3000002318461037BD4680BD00BF00E800FEF7
:101C400080B485B000AFF8607B600B467B811346A3
:101C50007B72FB681A68FB681B685968BB695B0D7F
:101C600003F480600B4B0343DB4319407B89C3F3D0
:101C700009007B7A1B0403F47F0318437B68184335
:101C8000BB6903430B43536000BF1437BD465DF887
:101C9000047B7047FF63FF0380B586B000AFF86038
:101CA000B960C7E900230123FB75274B1B7D012B7E
:101CB00001D1022343E0244B01221A754CF250302B
:101CC00000F078F80346FB75FB7D002B33D1FB68F1
:101CD000032B23D801A252F823F000BFED1C01080A
:101CE000F91C0108051D0108111D01083B78194662
:101CF000B86800F017F912E03B881946B86800F0A0
:101D0000EBF80CE03B681946B86800F0C1F806E053
:101D1000D7E90023B86800F08DF800E000BF4CF26E
:101D2000503000F047F80346FB75084A074B1B6923
:101D300023F001031361044B00221A75FB7D184642
:101D40001837BD4680BD00BF283F0020003C024040
:101D500080B483B000AF0023FB710B4B1B69002BD9
:101D60000BDA094B094A5A60074B094A5A60064B7D
:101D70001B69002B01DA0123FB71FB7918460C3734
:101D8000BD465DF8047B7047003C02402301674577
:101D9000AB89EFCD80B400AF054A054B1B6943F01A
:101DA0000043136100231846BD465DF8047B70476D
:101DB000003C024080B584B000AF78600023FB6037
:101DC0001A4B00229A6101F087F9F86010E07B68F5
:101DD000B3F1FF3F0CD07B68002B07D001F07CF9FA
:101DE0000246FB68D21A7B689A4201D9032319E0A4
:101DF0000F4BDB6803F48033002BE8D10C4BDB681E
:101E000003F0F203002B03D000F0B0F8012309E047
:101E1000074BDB6803F00103002B02D0044B0122C7
:101E2000DA60002318461037BD4680BD283F0020E9
:101E3000003C0240F0B484B000AFF860C7E9002372
:101E4000124A124B1B6923F4407313610F4A0F4B64
:101E50001B6943F4407313610C4A0C4B1B6943F03C
:101E600001031361FB683A681A60FB6804331A4681
:101E7000D7E90034250000262B461360BFF34F8FAF
:101E800000BF1037BD46F0BC704700BF003C0240A9
:101E900080B483B000AF786039600E4A0D4B1B6987
:101EA00023F4407313610B4A0A4B1B6943F400731C
:101EB0001361084A074B1B6943F0010313617B68F8
:101EC0003A681A60BFF34F8F00BF0C37BD465DF80C
:101ED000047B7047003C024080B483B000AF786060
:101EE0000B467B800E4A0E4B1B6923F44073136133
:101EF0000B4A0B4B1B6943F480731361084A084B70
:101F00001B6943F0010313617B687A881A80BFF371
:101F10004F8F00BF0C37BD465DF8047B704700BF94
:101F2000003C024080B483B000AF78600B46FB7089
:101F30000D4A0D4B1B6923F4407313610A4A0A4B87
:101F40001B691361084A084B1B6943F001031361C5
:101F50007B68FA781A70BFF34F8F00BF0C37BD460D
:101F60005DF8047B704700BF003C024080B400AFC6
:101F7000214BDB6803F00203002B05D01F4B9B694C
:101F800043F020031D4A93611B4BDB6803F01003F1
:101F9000002B05D0194B9B6943F01003174A93613E
:101FA000154BDB6803F02003002B05D0134B9B6916
:101FB00043F00803114A93610F4BDB6803F04003C1
:101FC000002B05D00D4B9B6943F004030B4A936132
:101FD000094BDB6803F08003002B05D0074B9B699E
:101FE00043F00203054A9361034BF222DA6000BF1B
:101FF000BD465DF8047B7047003C0240283F00204E
:1020000080B485B000AF78607B6803F00703FB60A5
:102010000B4BDB68BB60BA684FF6FF031340BB6035
:10202000FB681A02BB681A43064B1343BB60044AA1
:10203000BB68D36000BF1437BD465DF8047B7047B2
:1020400000ED00E00000FA0580B400AF044BDB684F
:102050001B0A03F007031846BD465DF8047B704772
:1020600000ED00E080B483B000AF0346FB71094986
:1020700097F907305B09FA7902F01F02012000FA94
:1020800002F241F8232000BF0C37BD465DF8047B07
:10209000704700BF00E100E080B483B000AF0346AA
:1020A0003960FB7197F90730002B0BDA0D49FB798A
:1020B00003F00F03043B3A68D2B21201D2B20B44D0
:1020C0001A7609E0084997F907303A68D2B2120146
:1020D000D2B20B4483F8002300BF0C37BD465DF835
:1020E000047B704700ED00E000E100E080B489B0BF
:1020F00000AFF860B9607A60FB6803F00703FB612A
:10210000FB69C3F10703042B28BF0423BB61FB69F0
:102110000433062B02D9FB69033B00E000237B61FB
:102120000122BB6902FA03F35A1EBB681A407B699D
:102130009A4001217B6901FA03F3591E7B680B4029
:10214000134318462437BD465DF8047B70470000F2
:1021500080B582B000AF78607B68013BB3F1807FCF
:1021600001D301230FE00A4A7B68013B53600F2132
:102170004FF0FF30FFF790FF054B00229A60044BB1
:1021800007221A60002318460837BD4680BD00BFED
:1021900010E000E080B582B000AF78607868FFF7AB
:1021A0002FFF00BF0837BD4680BD80B586B000AFA9
:1021B0000346B9607A60FB7300237B61FFF744FF3D
:1021C00078617A68B9687869FFF790FF024697F9F5
:1021D0000F3011461846FFF75FFF00BF1837BD46A6
:1021E00080BD80B582B000AF0346FB7197F9073020
:1021F0001846FFF737FF00BF0837BD4680BD80B5E2
:1022000082B000AF78607868FFF7A2FF03461846F7
:102210000837BD4680BD000080B483B000AF786051
:102220007B68042B06D1094A084B1B6843F0040362
:10223000136005E0054A054B1B6823F00403136097
:1022400000BF0C37BD465DF8047B704710E000E02E
:1022500080B582B000AF78607B68002B01D101238C
:1022600043E07B6893F86930DBB2002B06D17B68D2
:10227000002283F86820786806F078FB7B682422C7
:1022800083F869207B681B687A681268126822F0FC
:1022900001021A60786800F0BBFB0346012B01D1F4
:1022A000012322E07B685B6A002B02D0786800F093
:1022B0001DFE7B681B687A681268526822F490429F
:1022C0005A607B681B687A681268926822F02A025A
:1022D0009A607B681B687A681268126842F0010293
:1022E0001A60786800F0A4FE034618460837BD4619
:1022F00080BD80B588B002AFF860B9603B6013461E
:10230000FB8000237B61FB6893F86930DBB2202BF4
:1023100075D1BB68002B02D0FB88002B01D10123B3
:102320006EE0FB6893F86830012B01D1022367E06F
:10233000FB68012283F86820FB680022DA66FB68EC
:10234000212283F8692000F0C7FE7861FB68FA88D3
:10235000A3F85020FB68FA88A3F8522032E0FB680B
:10236000B3F852309BB2013B9AB2FB68A3F85220FB
:102370003B6800937B6900228021F86800F0D2F965
:102380000346002B01D003233AE0FB689B68B3F5BA
:10239000805F10D1FB681B69002B0CD1BB683B61CF
:1023A000FB681B683A691288C2F308029A62BB682C
:1023B0000233BB6006E0FB681A68BB68591CB96051
:1023C0001B789362FB68B3F852309BB2002BC6D1E6
:1023D0003B6800937B6900224021F86800F0A2F975
:1023E0000346002B01D003230AE0FB68202283F878
:1023F0006920FB68002283F86820002300E00223A4
:1024000018461837BD4680BD80B485B000AFF8606F
:10241000B9601346FB80FB6893F86A30DBB2202B6F
:1024200072D1BB68002B02D0FB88002B01D10123A5
:102430006BE0FB6893F86830012B01D1022364E064
:10244000FB68012283F86820FB68BA685A65FB685C
:10245000FA88A3F85820FB68FA88A3F85A20FB688A
:102460009B68B3F5805F0ED1FB681B69002B05D11B
:10247000FB6840F2FF12A3F85C2028E0FB68FF2213
:10248000A3F85C2023E0FB689B68002B0DD1FB6860
:102490001B69002B04D1FB68FF22A3F85C2016E027
:1024A000FB687F22A3F85C2011E0FB689B68B3F116
:1024B000805F0CD1FB681B69002B04D1FB687F2275
:1024C000A3F85C2003E0FB683F22A3F85C20FB68D4
:1024D0000022DA66FB68222283F86A20FB68002269
:1024E00083F86820FB681B68FA681268926842F0FB
:1024F00001029A60FB681B68FA681268126842F46D
:1025000090721A60002300E0022318461437BD467B
:102510005DF8047B7047000080B586B000AF78603E
:102520007B681B68DB697B617B681B681B683B61A0
:102530007B681B689B68FB607B6903F00F03BB60D3
:10254000BB68002B0DD17B6903F02003002B08D062
:102550003B6903F02003002B03D0786800F0CEF92C
:10256000DAE0BB68002B00F0B980FB6803F00103E0
:10257000002B05D13B6903F49073002B00F0AE8073
:102580007B6903F00103002B0ED03B6903F48073D9
:10259000002B09D07B681B6801221A627B68DB6E06
:1025A00043F001027B68DA667B6903F00203002BCB
:1025B0000ED0FB6803F00103002B09D07B681B6879
:1025C00002221A627B68DB6E43F004027B68DA66E3
:1025D0007B6903F00403002B0ED0FB6803F00103BA
:1025E000002B09D07B681B6804221A627B68DB6EB3
:1025F00043F002027B68DA667B6903F00803002B74
:1026000013D03B6903F02003002B04D1FB6803F0D7
:102610000103002B09D07B681B6808221A627B68C3
:10262000DB6E43F008027B68DA667B68DB6E002BAA
:1026300071D07B6903F02003002B07D03B6903F0C6
:102640002003002B02D0786800F058F97B68DB6E1D
:1026500003F00803002B06D17B681B689B6803F01E
:102660004003002B31D0786800F0B3F97B681B6819
:102670009B6803F04003002B23D07B681B687A68BB
:102680001268926822F040029A607B685B6E002BB1
:1026900013D07B685B6E224A1A657B685B6E1846B6
:1026A00003F027F90346002B16D07B685B6E1B6D89
:1026B0007A68526E104698470EE0786800F0A6F8E7
:1026C0000AE0786800F0A2F806E0786800F09EF86A
:1026D0007B680022DA661EE000BF1CE07B6903F025
:1026E0008003002B08D03B6903F08003002B03D04C
:1026F000786800F095F80FE07B6903F04003002B49
:102700000AD03B6903F04003002B05D0786800F045
:10271000DDF800BF00E000BF1837BD4680BD00BF38
:10272000B927010880B584B000AFF860B9603B609C
:102730001346FB712CE0BB69B3F1FF3F28D0BB69A6
:10274000002B07D000F0C8FC02463B68D21ABB69D8
:102750009A421DD3FB681B68FA681268126822F45B
:10276000D0721A60FB681B68FA681268926822F0DF
:1027700001029A60FB68202283F86920FB6820220E
:1027800083F86A20FB68002283F8682003230FE0A7
:10279000FB681B68DA69BB681A40BB689A420CBFC9
:1027A00001230023DBB21A46FB799A42C3D00023EF
:1027B00018461037BD4680BD80B584B000AF786044
:1027C0007B689B6BFB60FB680022A3F85A20FB68C8
:1027D0000022A3F85220F86800F018F800BF103764
:1027E000BD4680BD80B483B000AF786000BF0C37B9
:1027F000BD465DF8047B704780B483B000AF78605D
:1028000000BF0C37BD465DF8047B704780B483B0D1
:1028100000AF786000BF0C37BD465DF8047B7047A1
:1028200080B485B000AF78607B6893F86930DBB224
:10283000212B44D17B68B3F852309BB2002B11D1CD
:102840007B681B687A681268126822F080021A603E
:102850007B681B687A681268126842F040021A604E
:1028600000232DE07B689B68B3F5805F13D17B6804
:102870001B69002B0FD17B68DB6CFB607B681B68DE
:10288000FA681288C2F308029A627B68DB6C9A1CB1
:102890007B68DA6408E07B681A687B68DB6C581C2C
:1028A0007968C8641B7893627B68B3F852309BB236
:1028B000013B9AB27B68A3F85220002300E0022378
:1028C00018461437BD465DF8047B704780B582B06A
:1028D00000AF78607B681B687A681268126822F023
:1028E00040021A607B68202283F869207868FFF72D
:1028F00079FF002318460837BD4680BD80B584B0F7
:1029000000AF78607B68B3F85C30FB817B6893F83C
:102910006A30DBB2222B4FD17B689B68B3F5805FB6
:1029200015D17B681B69002B11D17B685B6DBB6087
:102930007B681B685B6A9AB2FB8913409AB2BB68DA
:102940001A807B685B6D9A1C7B685A650DE07B681A
:102950005B6D591C7A6851657A681268526AD1B207
:10296000FA89D2B20A40D2B21A707B68B3F85A30F0
:102970009BB2013B9BB27A681946A2F85A10002B11
:1029800018D17B681B687A681268126822F490720A
:102990001A607B681B687A681268926822F00102EC
:1029A0009A607B68202283F86A207868FFF724FF0A
:1029B00000230AE0002308E07B681B687A6812683D
:1029C000926942F008029A61022318461037BD4608
:1029D00080BD80B483B000AF78607B681B687A6884
:1029E0001268126822F490721A607B681B687A6819
:1029F0001268926822F001029A607B68202283F8B4
:102A00006A2000BF0C37BD465DF8047B70470000AC
:102A100090B587B000AF78600023FB601023FB7592
:102A200000237B810023BB820023FB747B689A68B0
:102A30007B681B691A437B685B691A437B68DB69A7
:102A40001343FB607B681A687B681B681968AA4B94
:102A50000B40F9680B4313607B681B687A68126847
:102A6000526822F440517A68D2680A435A607B68FF
:102A70009A697B681B6A1343FB607B681B687A68F2
:102A80001268926822F43061FA680A439A607B689F
:102A90001B689A4A93421FD1994BD3F8903003F0A8
:102AA0000303032B00F23E8101A252F823F000BF82
:102AB000C12A0108CD2A0108C72A0108D32A010822
:102AC0000123FB752EE10223FB752BE10423FB752B
:102AD00028E10823FB7525E17B681B68894A93423E
:102AE00030D1874BD3F8903003F00C030C2B00F25D
:102AF000198101A252F823F02D2B0108252D010880
:102B0000252D0108252D0108392B0108252D010847
:102B1000252D0108252D0108332B0108252D01083D
:102B2000252D0108252D01083F2B01080023FB75E9
:102B3000F8E00223FB75F5E00423FB75F2E00823BF
:102B4000FB75EFE07B681B686F4A93421CD16C4BAE
:102B5000D3F8903003F03003102B0FD0102B02D895
:102B6000002B05D0DEE0202B05D0302B09D0D9E09A
:102B70000023FB75D6E00223FB75D3E00423FB752D
:102B8000D0E00823FB75CDE07B681B685F4A934269
:102B90001CD15B4BD3F8903003F0C003402B0FD017
:102BA000402B02D8002B05D0BCE0802B05D0C02BD9
:102BB00009D0B7E00023FB75B4E00223FB75B1E058
:102BC0000423FB75AEE00823FB75ABE07B681B6854
:102BD0004F4A934220D14A4BD3F8903003F44073CC
:102BE000B3F5807F12D0B3F5807F02D8002B07D0D9
:102BF00098E0B3F5007F06D0B3F5407F09D091E0AF
:102C00000023FB758EE00223FB758BE00423FB752C
:102C100088E00823FB7585E07B681B683D4A93428A
:102C200020D1374BD3F8903003F44063B3F5806F75
:102C300012D0B3F5806F02D8002B07D072E0B3F545
:102C4000006F06D0B3F5406F09D06BE00123FB7530
:102C500068E00223FB7565E00423FB7562E008234E
:102C6000FB755FE07B681B682B4A934220D1244BA5
:102C7000D3F8903003F44053B3F5805F12D0B3F52E
:102C8000805F02D8002B07D04CE0B3F5005F06D080
:102C9000B3F5405F09D045E00023FB7542E0022315
:102CA000FB753FE00423FB753CE00823FB7539E02E
:102CB0007B681B68194A934235D1114BD3F8903089
:102CC00003F44043B3F5804F12D0B3F5804F02D8E0
:102CD000002B07D026E0B3F5004F06D0B3F5404FE8
:102CE0001ED01FE00023FB751CE00223FB7519E0DA
:102CF0000423FB7516E000BFF369FFEF00100140ED
:102D0000003802400044004000480040004C0040B1
:102D1000005000400014014000780040007C00405A
:102D20000823FB7500BF7B68DB69B3F5004F6CD1EE
:102D3000FB7D082B54D801A252F823F0612D010825
:102D40007D2D0108992D0108E12D0108AF2D010805
:102D5000E12D0108E12D0108E12D0108CB2D01082D
:102D600001F056F803465A007B685B685B081A441A
:102D70007B685B68B2FBF3F3BB8234E001F05CF884
:102D800003465A007B685B685B081A447B685B6893
:102D9000B2FBF3F3BB8226E07B685B685A08514BB9
:102DA00013447A685268B3FBF2F3BB821BE000F075
:102DB0004BFF03465A007B685B685B081A447B68DC
:102DC0005B68B2FBF3F3BB820DE07B685B685B087A
:102DD00003F580327B685B68B2FBF3F3BB8202E0F1
:102DE0000123FB7400BFBB8A23F00F037B81BB8AE6
:102DF0005B109BB203F007039AB27B8913437B817C
:102E00007B681B687A89DA6067E0FB7D082B61D8F4
:102E100001A252F823F000BF3D2E01085D2E0108EB
:102E20007D2E0108D52E0108992E0108D52E010806
:102E3000D52E0108D52E0108B92E01087B681C6823
:102E400000F0E6FF02467B685B685B081A447B681B
:102E50005B68B2FBF3F39BB2E3603EE07B681C6807
:102E600000F0EAFF02467B685B685B081A447B68F7
:102E70005B68B2FBF3F39BB2E3602EE07B681A68F9
:102E80007B685B685908184B0B4479684968B3FB49
:102E9000F1F39BB2D36020E07B681C6800F0D4FEA5
:102EA00002467B685B685B081A447B685B68B2FB20
:102EB000F3F39BB2E36010E07B681B687A685268AA
:102EC000520802F500417A685268B1FBF2F292B200
:102ED000DA6002E00123FB7400BFFB7C18461C375C
:102EE000BD4690BD0048E8010024F40080B483B0E2
:102EF00000AF78607B685B6A03F00103002B0AD0A7
:102F00007B681B687A681268526822F400317A681C
:102F1000926A0A435A607B685B6A03F00203002BE3
:102F20000AD07B681B687A681268526822F4803184
:102F30007A68D26A0A435A607B685B6A03F00403CA
:102F4000002B0AD07B681B687A681268526822F4EA
:102F500080217A68126B0A435A607B685B6A03F0CF
:102F60000803002B0AD07B681B687A6812685268D5
:102F700022F400417A68526B0A435A607B685B6AAC
:102F800003F01003002B0AD07B681B687A68126874
:102F9000926822F480517A68926B0A439A607B6847
:102FA0005B6A03F02003002B0AD07B681B687A68F9
:102FB0001268926822F400517A68D26B0A439A60D0
:102FC0007B685B6A03F04003002B1AD07B681B68A8
:102FD0007A681268526822F480117A68126C0A4387
:102FE0005A607B681B6CB3F5801F0AD17B681B6835
:102FF0007A681268526822F4C0017A68526C0A43F7
:103000005A607B685B6A03F08003002B0AD07B6800
:103010001B687A681268526822F400217A68926C00
:103020000A435A6000BF0C37BD465DF8047B704709
:1030300080B586B002AF78600023FB607B68002219
:10304000DA6600F049F8F8607B681B681B6803F0DB
:103050000803082B0ED16FF07E430093FB6800221B
:103060004FF400117868FFF75DFB0346002B01D099
:1030700003230CE07B68202283F869207B682022F0
:1030800083F86A207B68002283F8682000231846B2
:103090001037BD4680BD80B500AF0320FFF77AF83A
:1030A000002006F0C5FE06F091FE0023184680BD04
:1030B00080B400AF064B1B781A46064B1B681344BE
:1030C000044A136000BFBD465DF8047B704700BF33
:1030D00024010020443F002080B400AF034B1B6854
:1030E0001846BD465DF8047B704700BF443F002092
:1030F00080B584B000AF7860FFF7EEFFB8607B6802
:10310000FB60FB68B3F1FF3F05D0094B1B781A4603
:10311000FB681344FB6000BFFFF7DEFF0246BB689D
:10312000D21AFB689A42F7D300BF1037BD4680BD64
:103130002401002080B485B000AF786039607B68DE
:1031400093F83C30012B01D102233DE07B68012242
:1031500083F83C207B681B685B68FB607B681B68AE
:103160009B68BB607B681B681A4A934204D07B68EB
:103170001B68194A934208D1FB6823F47003FB6073
:103180003B685B68FA681343FB60FB6823F07003DD
:10319000FB603B681B68FA681343FB60BB6823F065
:1031A0008003BB603B689B68BA681343BB607B6865
:1031B0001B68FA685A607B681B68BA689A607B680B
:1031C000002283F83C20002318461437BD465DF8E2
:1031D000047B7047000001400004014080B483B0CC
:1031E00000AF786000BF0C37BD465DF8047B7047C8
:1031F00080B483B000AF786000BF0C37BD465DF887
:10320000047B704780B584B000AFF860B9607A6025
:10321000FB6893F83C30012B01D1022305E1FB68E8
:10322000012283F83C20FB68022283F83D207B6862
:10323000142B00F2F08001A252F823F09132010821
:10324000173401081734010817340108D132010876
:103250001734010817340108173401081333010823
:1032600017340108173401081734010853330108D3
:103270001734010817340108173401089533010881
:10328000173401081734010817340108D533010831
:10329000FB681B68B968184601F056FEFB681B689E
:1032A000FA681268926942F008029A61FB681B682A
:1032B000FA681268926922F004029A61FB681B683E
:1032C000FA6812689169BA6812690A439A61A3E0C0
:1032D000FB681B68B968184601F0ACFEFB681B6808
:1032E000FA681268926942F400629A61FB681B688E
:1032F000FA681268926922F480629A61FB681B681E
:10330000FA6812689169BA68126912020A439A61EE
:1033100082E0FB681B68B968184601F005FFFB688E
:103320001B68FA681268D26942F00802DA61FB6829
:103330001B68FA681268D26922F00402DA61FB683D
:103340001B68FA681268D169BA6812690A43DA61BF
:1033500062E0FB681B68B968184601F05FFFFB6814
:103360001B68FA681268D26942F40062DA61FB688D
:103370001B68FA681268D26922F48062DA61FB681D
:103380001B68FA681268D169BA68126912020A43A6
:10339000DA6141E0FB681B68B968184600F04AF83A
:1033A000FB681B68FA681268526D42F008025A65A1
:1033B000FB681B68FA681268526D22F004025A65B5
:1033C000FB681B68FA681268516DBA6812690A4393
:1033D0005A6521E0FB681B68B968184600F082F85E
:1033E000FB681B68FA681268526D42F400625A6505
:1033F000FB681B68FA681268526D22F480625A6595
:10340000FB681B68FA681268516DBA68126912028B
:103410000A435A6500E000BFFB68012283F83D20A3
:10342000FB68002283F83C20002318461037BD4675
:1034300080BD00BF80B487B000AF786039600023E2
:103440003B610023FB6000237B617B681B6A23F4E4
:1034500080327B681A627B681B6AFB607B685B68F2
:103460007B617B685B6D3B613A691B4B13403B6141
:103470003B681B683A6913433B61FB6823F40033E4
:10348000FB603B689B681B04FA681343FB607B6826
:10349000124A934203D07B68114A934209D17B6957
:1034A00023F480337B613B685B691B027A691343B9
:1034B0007B617B687A695A607B683A695A653B68C8
:1034C0005A687B689A657B68FA681A6200BF1C3785
:1034D000BD465DF8047B70478FFFFEFF0000014092
:1034E0000004014080B487B000AF786039600023E9
:1034F0003B610023FB6000237B617B681B6A23F434
:1035000080127B681A627B681B6AFB607B685B6861
:103510007B617B685B6D3B613A691C4B13403B618F
:103520003B681B681B023A6913433B61FB6823F449
:103530000013FB603B689B681B05FA681343FB6044
:103540007B68134A934203D07B68124A934209D1A5
:103550007B6923F480237B613B685B699B027A690A
:1035600013437B617B687A695A607B683A695A6564
:103570003B685A687B68DA657B68FA681A6200BF44
:103580001C37BD465DF8047B704700BFFF8FFFFE10
:10359000000001400004014080B586B000AF7860B3
:1035A0000023FB757B68002B01D101235CE27B6863
:1035B0001B6803F00103002B00F08780964B9B688B
:1035C00003F00C03042B0CD0934B9B6803F00C030B
:1035D000082B12D1904B5B6803F48003B3F5800F86
:1035E0000BD18D4B1B6803F40033002B6CD07B6830
:1035F0005B68002B68D1012336E27B685B68B3F51A
:10360000803F06D1844A844B1B6843F480331360A7
:103610002EE07B685B68002B0CD17F4A7E4B1B68D9
:1036200023F4803313607C4A7B4B1B6823F4802394
:1036300013601DE07B685B68B3F5A02F0CD1764A60
:10364000754B1B6843F480231360734A724B1B68ED
:1036500043F4803313600BE06F4A6F4B1B6823F415
:10366000803313606C4A6C4B1B6823F48023136017
:103670007B685B68002B13D0FFF72EFD386108E0F4
:10368000FFF72AFD02463B69D31A642B01D90323B5
:10369000EAE1614B1B6803F40033002BF0D014E027
:1036A000FFF71AFD386108E0FFF716FD02463B6997
:1036B000D31A642B01D90323D6E1574B1B6803F4BB
:1036C0000033002BF0D100E000BF7B681B6803F0E3
:1036D0000203002B69D0504B9B6803F00C03002BB6
:1036E0000BD04D4B9B6803F00C03082B1CD14A4BAD
:1036F0005B6803F48003002B16D1474B1B6803F073
:103700000203002B05D07B68DB68012B01D001236D
:10371000AAE14149404B1B6823F0F8027B681B6912
:10372000DB0013430B6040E07B68DB68002B23D099
:10373000394A394B1B6843F001031360FFF7CCFC97
:10374000386108E0FFF7C8FC02463B69D31A022B38
:1037500001D9032388E1304B1B6803F00203002BDF
:10376000F0D02D492C4B1B6823F0F8027B681B69B5
:10377000DB0013430B6018E0274A274B1B6823F03C
:1037800001031360FFF7A8FC386108E0FFF7A4FC11
:1037900002463B69D31A022B01D9032364E11E4B75
:1037A0001B6803F00203002BF0D17B681B6803F059
:1037B0000803002B38D07B685B69002B19D0164AB0
:1037C000154B5B6F43F001035367FFF785FC3861CE
:1037D00008E0FFF781FC02463B69D31A022B01D9AE
:1037E000032341E10C4B5B6F03F00203002BF0D08D
:1037F0001AE0094A084B5B6F23F001035367FFF798
:103800006BFC38610AE0FFF767FC02463B69D31A9C
:10381000022B03D9032327E100380240944B5B6F4E
:1038200003F00203002BEED17B681B6803F0040356
:10383000002B00F0A4808E4B1B6C03F08053002BF8
:103840000DD18B4A8A4B1B6C43F080531364884B19
:103850001B6C03F08053FB60FB680123FB75854BF9
:103860001B6803F48073002B18D1824A814B1B68BC
:1038700043F480731360FFF72FFC386108E0FFF713
:103880002BFC02463B69D31A642B01D90323EBE0DE
:10389000784B1B6803F48073002BF0D07B689B6827
:1038A000012B06D1724A724B1B6F43F00103136761
:1038B0002DE07B689B68002B0CD16D4A6C4B1B6F15
:1038C00023F0010313676A4A694B1B6F23F004035B
:1038D00013671CE07B689B68052B0CD1644A644B22
:1038E0001B6F43F004031367614A614B1B6F43F086
:1038F000010313670BE05E4A5D4B1B6F23F001036E
:1039000013675B4A5A4B1B6F23F0040313677B68F2
:103910009B68002B15D0FFF7DFFB38610AE0FFF74B
:10392000DBFB02463B69D31A41F28832934201D94C
:10393000032399E04E4B1B6F03F00203002BEED0E4
:1039400014E0FFF7C9FB38610AE0FFF7C5FB024648
:103950003B69D31A41F28832934201D9032383E0B1
:10396000434B1B6F03F00203002BEED1FB7D012BB9
:1039700005D13F4A3E4B1B6C23F0805313647B6898
:103980009B69002B6FD03A4B9B6803F00C03082B0C
:1039900067D07B689B69022B49D1354A344B1B6841
:1039A00023F080731360FFF797FB386108E0FFF79F
:1039B00093FB02463B69D31A022B01D9032353E040
:1039C0002B4B1B6803F00073002BF0D128497B6858
:1039D000DA697B681B6A1A437B685B6A9B011A433E
:1039E0007B689B6A5B08013B1B041A437B68DB6AAC
:1039F0001B06134343F000534B601D4A1C4B1B68CE
:103A000043F080731360FFF767FB386108E0FFF74E
:103A100063FB02463B69D31A022B01D9032323E03F
:103A2000134B1B6803F00073002BF0D01BE0104A0F
:103A30000F4B1B6823F080731360FFF74DFB386159
:103A400008E0FFF749FB02463B69D31A022B01D974
:103A5000032309E0064B1B6803F00073002BF0D131
:103A600001E0012300E0002318461837BD4680BD61
:103A7000003802400070004080B584B000AF78602C
:103A800039600023FB607B68002B01D10123CEE06D
:103A9000694B1B6803F00F023B689A4210D26649DB
:103AA000654B1B6823F00F023B6813430B60624BAE
:103AB0001B6803F00F023B689A4201D00123B6E075
:103AC0007B681B6803F00203002B20D07B681B6817
:103AD00003F00403002B05D0584A584B9B6843F46D
:103AE000E05393607B681B6803F00803002B05D04C
:103AF000524A524B9B6843F4604393604F494F4B8B
:103B00009B6823F0F0027B689B6813438B607B68A3
:103B10001B6803F00103002B40D07B685B68012B1E
:103B200007D1464B1B6803F40033002B15D101234A
:103B30007DE07B685B68022B07D1404B1B6803F07C
:103B40000073002B09D1012371E03C4B1B6803F08B
:103B50000203002B01D1012369E03849374B9B68F0
:103B600023F003027B685B6813438B60FFF7B4FAB2
:103B7000F8600AE0FFF7B0FA0246FB68D31A41F298
:103B80008832934201D9032351E02C4B9B6803F008
:103B90000C027B685B689B009A42EBD1264B1B684A
:103BA00003F00F023B689A4210D92349224B1B684D
:103BB00023F00F023B6813430B601F4B1B6803F09D
:103BC0000F023B689A4201D0012330E07B681B68FA
:103BD00003F00403002B08D01849184B9B6823F40A
:103BE000E0527B68DB6813438B607B681B6803F0E3
:103BF0000803002B09D01149104B9B6823F4604245
:103C00007B681B69DB0013438B6000F01DF80146E5
:103C10000A4B9B681B0903F00F03094AD35C21FA86
:103C200003F3084A1360002006F002F90023184647
:103C30001037BD4680BD00BF003C02400038024046
:103C400090A90108480100202DE9F04F8FB000AF86
:103C50000023FB6200237B630023BB6200233B63E2
:103C6000624B9B6803F00C03042B07D0082B08D091
:103C7000002B40F0B2805E4B3B63B1E05D4B3B6399
:103C8000AEE05A4B5B6803F03F03FB62574B5B6847
:103C900003F48003002B4ED0544B5B689B094FF01C
:103CA000000440F2FF114FF0000201EA030102EAB2
:103CB00004020B46144660017862786A40EAD360D9
:103CC00078625B013B62D7E908345B1A64EB02045B
:103CD0004FEA841949EA93694FEA8318B8EB03085D
:103CE00069EB04094FEAC903FB61FB6943EA5873B6
:103CF000FB614FEAC803BB61D7E9068918EB0108ED
:103D000049EB02094FEA49237B617B6943EAD853B7
:103D10007B614FEA48233B61D7E904894046494625
:103D2000FB6A4FF000041A462346FCF7BBFA034631
:103D30000C467B6343E02D4B5B689B094FF000040E
:103D400040F2FF114FF0000201EA030102EA04020F
:103D50000B4614466001F860F86840EAD360F860EA
:103D60005B01BB60D7E902345B1A64EB0204A60175
:103D700046EA93669D01ED1A66EB0406F3007B604C
:103D80007B6843EA55737B60EB003B60D7E90056E4
:103D90006D1846EB02064FEA862B4BEA955B4FEA1D
:103DA000852A55465E4628463146FB6A4FF0000498
:103DB0001A462346FCF776FA03460C467B630B4B08
:103DC0005B681B0C03F0030301335B00BB627A6B7F
:103DD000BB6AB2FBF3F33B6302E0054B3B6300BFFE
:103DE0003B6B18463C37BD46BDE8F08F00380240BB
:103DF0000024F40000127A0080B400AF034B1B686B
:103E00001846BD465DF8047B704700BF480100209E
:103E100080B500AFFFF7F0FF0146054B9B689B0A9A
:103E200003F00703034AD35C21FA03F3184680BD6D
:103E300000380240A0A9010880B500AFFFF7DCFF01
:103E40000146054B9B685B0B03F00703034AD35CF9
:103E500021FA03F3184680BD00380240A0A90108EA
:103E600080B483B000AF786039607B680F221A603D
:103E7000124B9B6803F003027B685A600F4B9B68F0
:103E800003F0F0027B689A600C4B9B6803F4E052ED
:103E90007B68DA60094B9B68DB0803F4E0527B68BF
:103EA0001A61074B1B6803F00F023B681A6000BFE2
:103EB0000C37BD465DF8047B704700BF00380240F8
:103EC000003C024080B584B000AF78607B68002B76
:103ED00001D1012382E07B6800229A627B6893F81B
:103EE0005D30DBB2002B06D17B68002283F85C20BA
:103EF000786805F033FF7B68022283F85D207B68D9
:103F00001B687A681268126822F040021A607B68A7
:103F1000DB68B3F5E06F02D90023FB6002E04FF4E9
:103F20008053FB607B68DB68B3F5706F07D07B68FC
:103F3000DB68B3F5E06F02D07B6800229A627B6891
:103F40001B6B002B0BD17B68DB68B3F5E06F03D9EB
:103F50007B6802221A6302E07B6801221A637B6895
:103F60001B687A6851687A68926811437A681269A6
:103F700011437A68526911437A68926902F40072B7
:103F800011437A68D26911437A68126A11437A68D8
:103F9000926A0A431A607B681B687A689269120CFD
:103FA00002F004017A68526A11437A68526B114335
:103FB0007A68D2681143FA680A435A607B681B68C2
:103FC0007A681268D26922F40062DA617B680022A2
:103FD0001A667B68012283F85D200023184610379B
:103FE000BD4680BD80B489B000AFF860B9607A602A
:103FF0007B800023BB6100237B610023FB77FB6890
:1040000093F85C30012B01D1022393E0FB6801227D
:1040100083F85C20FB6893F85D30DBB2BB61FB6822
:104020005B687B61BB69012B0DD07B69B3F5827F37
:1040300006D1FB689B68002B02D1BB69042B02D020
:104040000223FB7771E0BB68002B05D07B68002B57
:1040500002D07B88002B02D10123FB7765E0FB684F
:1040600093F85D30DBB2042B03D0FB68052283F8A4
:104070005D20FB6800221A66FB68BA689A63FB68D9
:104080007A889A87FB687A88DA87FB687A681A6484
:10409000FB687A88A3F84420FB687A88A3F8462056
:1040A000FB68DB68B3F5E06F06D9FB68244ADA6485
:1040B000FB68244A1A6505E0FB68234ADA64FB685A
:1040C000224A1A65FB68DB68B3F5E06F05D8FB6828
:1040D000B3F846309BB2012B08D9FB681B68FA681D
:1040E0001268526822F480525A6007E0FB681B682D
:1040F000FA681268526842F480525A60FB681B6882
:10410000FA681268526842F0E0025A60FB681B6865
:104110001B6803F04003402B07D0FB681B68FA685C
:104120001268126842F040021A60FB68002283F8AD
:104130005C20FB7F18462437BD465DF8047B704742
:10414000CB44010831450108834301083B44010881
:1041500080B588B000AF78607B681B685B68FB61E6
:104160007B681B689B68BB61BB6903F04003002B45
:104170000ED1BB6903F00103002B09D0FB6903F0EA
:104180004003002B04D07B68DB6C78689847B1E073
:10419000BB6903F00203002B09D0FB6903F0800325
:1041A000002B04D07B681B6D78689847A2E0BB6940
:1041B00003F4B073002B00F09D80FB6903F0200333
:1041C000002B00F09780BB6903F04003002B23D045
:1041D0007B6893F85D30DBB2032B11D07B681B6EDC
:1041E00043F004027B681A6600237B617B681B68CE
:1041F000DB687B617B681B689B687B617B690BE08C
:1042000000233B617B681B68DB683B617B681B6844
:104210009B683B613B696DE0BB6903F02003002BA9
:1042200014D07B681B6E43F001027B681A66002382
:10423000FB607B681B689B68FB607B681B687A6817
:104240001268126822F040021A60FB68BB6903F42E
:104250008073002B0CD07B681B6E43F008027B68D8
:104260001A660023BB607B681B689B68BB60BB68E9
:104270007B681B6E002B3CD07B681B687A681268D9
:10428000526822F0E0025A607B68012283F85D20C8
:10429000FB6903F00203002B04D1FB6903F0010367
:1042A000002B22D07B681B687A681268526822F063
:1042B00003025A607B689B6D002B08D07B689B6D66
:1042C0000E4A1A657B689B6D184601F012FB7B68ED
:1042D0005B6D002B0CD07B685B6D084A1A657B68B0
:1042E0005B6D184601F005FB02E0786800F01CF8F1
:1042F00000BF00BF2037BD4680BD00BF5943010845
:1043000080B483B000AF786000BF0C37BD465DF865
:10431000047B704780B483B000AF786000BF0C3777
:10432000BD465DF8047B704780B483B000AF786011
:1043300000BF0C37BD465DF8047B704780B483B086
:1043400000AF78607B6893F85D30DBB218460C37BD
:10435000BD465DF8047B704780B584B000AF7860DF
:104360007B689B6BFB60FB680022A3F84620FB6820
:104370000022DA87F868FFF7D7FF00BF1037BD4685
:1043800080BD80B582B000AF78607B68B3F84630FE
:104390009BB2012B23D97B681B6C7A681268D268A8
:1043A00092B21A807B681B6C9A1C7B681A647B68CB
:1043B000B3F846309BB2023B9AB27B68A3F8462022
:1043C0007B68B3F846309BB2012B1CD17B681B681D
:1043D0007A681268526842F480525A6013E07B682F
:1043E0001B6C591C7A6811647A6812680C32127856
:1043F000D2B21A707B68B3F846309BB2013B9AB2D6
:104400007B68A3F846207B68B3F846309BB2002B4C
:104410000FD17B681B687A681268526822F06002CC
:104420005A607B68DB8F9BB2002B02D1786800F06A
:10443000C9F900BF0837BD4680BD80B582B000AF66
:1044400078607B68DB8F9BB2012B12D97B681B687D
:104450007A68926B1288DA607B689B6B9A1C7B6827
:104460009A637B68DB8F9BB2023B9AB27B68DA87E8
:1044700011E07B681B6803F10C027B689B6B581C86
:10448000796888631B7813707B68DB8F9BB2013B74
:104490009AB27B68DA877B68DB8F9BB2002B10D1E6
:1044A0007B681B687A681268526822F080025A6042
:1044B0007B68B3F846309BB2002B02D1786800F0DD
:1044C00081F900BF0837BD4680BD80B582B000AF1E
:1044D00078607B681B6C7A681268D26892B21A8026
:1044E0007B681B6C9A1C7B681A647B68B3F8463047
:1044F0009BB2013B9AB27B68A3F846207B68B3F875
:1045000046309BB2002B0FD17B681B687A6812681B
:10451000526822F040025A607B68DB8F9BB2002B0E
:1045200002D1786800F04EF900BF0837BD4680BD63
:1045300080B582B000AF78607B681B687A68926B48
:104540001288DA607B689B6B9A1C7B689A637B6835
:10455000DB8F9BB2013B9AB27B68DA877B68DB8F8B
:104560009BB2002B10D17B681B687A681268526876
:1045700022F080025A607B68B3F846309BB2002B71
:1045800002D1786800F01EF900BF0837BD4680BD33
:1045900080B584B000AFF860B9607A603B604DE0F0
:1045A0003B68B3F1FF3F49D03B68002B07D0FEF7D3
:1045B00093FD0246BB69D21A3B689A423ED3FB6820
:1045C0001B68FA681268526822F0E0025A60FB68C1
:1045D0005B68B3F5827F11D1FB689B68B3F5004F30
:1045E00004D0FB689B68B3F5806F07D1FB681B683C
:1045F000FA681268126822F040021A60FB689B6A2F
:10460000B3F5005F10D1FB681A68FB681B68196876
:104610004DF6FF730B401360FB681B68FA68126865
:10462000126842F400521A60FB68012283F85D2090
:10463000FB68002283F85C20032308E0FB681B680A
:104640009A68BB681A407B689A42A9D10023184631
:104650001037BD4680BD80B586B000AFF860B96048
:104660007A603B605BE0BB68B3F5C06F09D17B68E3
:10467000002B06D1FB681B680C331B78DBB2FB7583
:10468000FB7D3B68B3F1FF3F49D03B68002B07D06F
:10469000FEF722FD02463B6AD21A3B689A423ED39D
:1046A000FB681B68FA681268526822F0E0025A60E0
:1046B000FB685B68B3F5827F11D1FB689B68B3F53B
:1046C000004F04D0FB689B68B3F5806F07D1FB688F
:1046D0001B68FA681268126822F040021A60FB68D0
:1046E0009B6AB3F5005F10D1FB681A68FB681B6812
:1046F00019684DF6FF730B401360FB681B68FA687E
:104700001268126842F400521A60FB68012283F8B2
:104710005D20FB68002283F85C20032308E0FB682F
:104720001B689A68BB681A407B689A429BD1002339
:1047300018461837BD4680BD80B586B002AFF86018
:10474000B9607A607B680093BB6800224FF4C05167
:10475000F868FFF780FF0346002B07D0FB681B6E4D
:1047600043F02002FB681A66032327E07B6800936E
:10477000BB6800228021F868FFF70AFF0346002B80
:1047800007D0FB681B6E43F02002FB681A66032308
:1047900014E07B680093BB6800224FF4C061F868A6
:1047A000FFF759FF0346002B07D0FB681B6E43F051
:1047B0002002FB681A66032300E000231846103726
:1047C000BD4680BD80B584B000AF78600023FB603B
:1047D000FEF782FCF8607B681B687A681268526892
:1047E00022F020025A60FA6864217868FFF7A4FF7B
:1047F0000346002B05D07B681B6E43F020027B68CC
:104800001A667B681B6E002B15D17B6893F85D30B0
:10481000DBB2042B07D17B68012283F85D20786826
:10482000FFF76EFD0EE07B68012283F85D2078685B
:10483000FFF770FD06E07B68012283F85D20786851
:10484000FFF772FD00BF1037BD4680BD80B582B056
:1048500000AF78607B68002B01D101231DE07B68ED
:1048600093F83D30DBB2002B06D17B68002283F841
:104870003C20786803F050FF7B68022283F83D20DB
:104880007B681A687B6804331946104600F0ACFA5E
:104890007B68012283F83D20002318460837BD4677
:1048A00080BD80B483B000AF78607B681B687A6895
:1048B0001268D26842F00102DA607B681B687A688D
:1048C0001268126842F001021A60002318460C3781
:1048D000BD465DF8047B704780B582B000AF78605C
:1048E0007B68002B01D101231DE07B6893F83D30EC
:1048F000DBB2002B06D17B68002283F83C2078686D
:1049000003F056FF7B68022283F83D207B681A681B
:104910007B6804331946104600F066FA7B68012272
:1049200083F83D20002318460837BD4680BD0000AF
:1049300080B582B000AF786039607B681B68012267
:104940003968184600F075FD7B681B68104A934271
:1049500004D07B681B680F4A934201D1012300E019
:104960000023002B07D07B681B687A681268526CA2
:1049700042F400425A647B681B687A6812681268C5
:1049800042F001021A60002318460837BD4680BD78
:10499000000001400004014080B582B000AF7860A3
:1049A0007B681B681B6903F00203022B22D17B6822
:1049B0001B68DB6803F00203022B1BD17B681B68BA
:1049C0006FF002021A617B6801221A777B681B680C
:1049D0009B6903F00303002B03D0786800F0E6F92D
:1049E00005E0786800F0D8F9786800F0E9F97B68AC
:1049F00000221A777B681B681B6903F00403042BF1
:104A000022D17B681B68DB6803F00403042B1BD1F5
:104A10007B681B686FF004021A617B6802221A77B8
:104A20007B681B689B6903F44073002B03D0786894
:104A300000F0BCF905E0786800F0AEF9786800F0A5
:104A4000BFF97B6800221A777B681B681B6903F03B
:104A50000803082B22D17B681B68DB6803F008037E
:104A6000082B1BD17B681B686FF008021A617B68FA
:104A700004221A777B681B68DB6903F00303002BB1
:104A800003D0786800F092F905E0786800F084F9C6
:104A9000786800F095F97B6800221A777B681B68BC
:104AA0001B6903F01003102B22D17B681B68DB68A5
:104AB00003F01003102B1BD17B681B686FF01002F2
:104AC0001A617B6808221A777B681B68DB6903F42C
:104AD0004073002B03D0786800F068F905E078682F
:104AE00000F05AF9786800F06BF97B6800221A77B9
:104AF0007B681B681B6903F00103012B0ED17B68E7
:104B00001B68DB6803F00103012B07D17B681B687E
:104B10006FF001021A61786803F03CFD7B681B6846
:104B20001B6903F08003802B0ED17B681B68DB6858
:104B300003F08003802B07D17B681B686FF0800235
:104B40001A617868FEF754FB7B681B681B6903F4E5
:104B50008073B3F5807F0ED17B681B68DB6803F040
:104B60008003802B07D17B681B686FF080021A617D
:104B70007868FEF73DFB7B681B681B6903F0400308
:104B8000402B0ED17B681B68DB6803F04003402B91
:104B900007D17B681B686FF040021A61786800F0EB
:104BA00019F97B681B681B6903F02003202B0ED1C9
:104BB0007B681B68DB6803F02003202B07D17B6830
:104BC0001B686FF020021A617868FEF707FB00BFD0
:104BD0000837BD4680BD000080B584B000AF786066
:104BE00039600023FB607B6893F83C30012B01D1D6
:104BF0000223C8E07B68012283F83C207B68022204
:104C000083F83D207B681B689B68FB60FA68604BFB
:104C10001340FB60FB6823F47F43FB607B681B68E9
:104C2000FA689A603B681B68402B77D0402B0ED8FF
:104C3000102B00F08A80102B02D8002B7ED099E038
:104C4000202B00F08980302B00F08D8092E0702BBB
:104C500016D0702B04D8502B40D0602B4ED089E05A
:104C6000B3F5805F03D0B3F5005F24D082E07B68AA
:104C70001A687B681B689968464B0B40936079E023
:104C80007B6818683B6899683B685A683B68DB68D2
:104C900000F0ADFB7B681B689B68FB60FA683C4BCF
:104CA0001340FB60FB6843F07703FB607B681B6885
:104CB000FA689A605EE07B6818683B6899683B68B0
:104CC0005A683B68DB6800F092FB7B681B687A6877
:104CD0001268926842F480429A604BE07B681868E0
:104CE0003B6859683B68DB681A4600F0F9FA7B6854
:104CF0001B685021184600F05AFB3BE07B6818689F
:104D00003B6859683B68DB681A4600F01CFB7B680F
:104D10001B686021184600F04AFB2BE07B6818688E
:104D20003B6859683B68DB681A4600F0D9FA7B6833
:104D30001B684021184600F03AFB1BE07B681B68AB
:104D40000021184600F033FB14E07B681B6810213B
:104D5000184600F02CFB0DE07B681B6820211846EC
:104D600000F025FB06E07B681B683021184600F048
:104D70001EFB00BF7B68012283F83D207B68002278
:104D800083F83C20002318461037BD4680BD00BF85
:104D900088FFFEFFF8FFFEFF80B483B000AF7860AD
:104DA00000BF0C37BD465DF8047B704780B483B00C
:104DB00000AF786000BF0C37BD465DF8047B7047DC
:104DC00080B483B000AF786000BF0C37BD465DF89B
:104DD000047B704780B483B000AF786000BF0C37AD
:104DE000BD465DF8047B704780B485B000AF786045
:104DF00039600023FB607B681B68FB607B68474A67
:104E0000934213D07B68B3F1804F0FD07B68444A44
:104E100093420BD07B68434A934207D07B68424A57
:104E2000934203D07B68414A934201D1012300E0C1
:104E30000023002B08D0FB6823F07003FB603B6865
:104E40005B68FA681343FB607B68344A93422BD05B
:104E50007B68B3F1804F27D07B68314A934223D0DF
:104E60007B68304A93421FD07B682F4A93421BD005
:104E70007B682E4A934217D07B682D4A934213D009
:104E80007B682C4A93420FD07B682B4A93420BD00D
:104E90007B682A4A934207D07B68294A934203D011
:104EA0007B68284A934201D1012300E00023002BB4
:104EB00008D0FB6823F44073FB603B68DB68FA684A
:104EC0001343FB60FB6823F080023B685B6913437C
:104ED000FB607B68FA681A603B689A687B68DA62F4
:104EE0003B681A687B689A627B680C4A934203D0DD
:104EF0007B680E4A934201D1012300E00023002B7E
:104F000003D03B681A697B681A637B6801225A6187
:104F100000BF1437BD465DF8047B704700000140B8
:104F20000004004000080040000C00400004014064
:104F3000004001400044014000480140001800408A
:104F4000001C00400020004080B487B000AF7860B3
:104F500039600023FB6000237B6100233B617B6899
:104F60001B6A23F001027B681A627B681B6A7B6103
:104F70007B685B683B617B689B69FB60FA682A4BD6
:104F80001340FB60FB6823F00303FB603B681B6876
:104F9000FA681343FB607B6923F002037B613B6883
:104FA0009B687A6913437B617B68204A934203D0F4
:104FB0007B681F4A934201D1012300E00023002BAC
:104FC0001ED07B6923F008037B613B68DB687A694C
:104FD00013437B617B6923F004037B613B6923F40A
:104FE00080733B613B6923F400733B613B685B6901
:104FF0003A6913433B613B689B693A6913433B61E0
:105000007B683A695A607B68FA689A613B685A68BB
:105010007B685A637B687A691A6200BF1C37BD4699
:105020005DF8047B704700BF8FFFFEFF000001406A
:105030000004014080B487B000AF7860396000237D
:10504000FB6000237B6100233B617B681B6A23F0CC
:1050500010027B681A627B681B6A7B617B685B68F5
:105060003B617B689B69FB60FA682C4B1340FB60DB
:10507000FB6823F44073FB603B681B681B02FA6803
:105080001343FB607B6923F020037B613B689B68D3
:105090001B017A6913437B617B68214A934203D0E9
:1050A0007B68204A934201D1012300E00023002BBA
:1050B00021D07B6923F080037B613B68DB681B01A7
:1050C0007A6913437B617B6923F040037B613B6911
:1050D00023F480633B613B6923F400633B613B68DD
:1050E0005B699B003A6913433B613B689B699B008A
:1050F0003A6913433B617B683A695A607B68FA6896
:105100009A613B685A687B689A637B687A691A621D
:1051100000BF1C37BD465DF8047B7047FF8FFFFE64
:10512000000001400004014080B487B000AF786007
:1051300039600023FB6000237B6100233B617B68B7
:105140001B6A23F480727B681A627B681B6A7B612E
:105150007B685B683B617B68DB69FB60FA682C4BB2
:105160001340FB60FB6823F00303FB603B681B6894
:10517000FA681343FB607B6923F400737B613B682F
:105180009B681B027A6913437B617B68214A9342C7
:1051900003D07B68204A934201D1012300E0002321
:1051A000002B21D07B6923F400637B613B68DB68C3
:1051B0001B027A6913437B617B6923F480637B6103
:1051C0003B6923F480533B613B6923F400533B610B
:1051D0003B685B691B013A6913433B613B689B6910
:1051E0001B013A6913433B617B683A695A607B68EB
:1051F000FA68DA613B685A687B68DA637B687A69C7
:105200001A6200BF1C37BD465DF8047B704700BFC3
:105210008FFFFEFF000001400004014080B487B012
:1052200000AF7860396000233B610023FB600023FE
:105230007B617B681B6A23F480527B681A627B68FF
:105240001B6AFB607B685B687B617B68DB693B6139
:105250003A69204B13403B613B6923F440733B6147
:105260003B681B681B023A6913433B61FB6823F4EC
:105270000053FB603B689B681B03FA681343FB60A9
:105280007B68154A934203D07B68144A934201D14C
:10529000012300E00023002B09D07B6923F4804325
:1052A0007B613B685B699B017A6913437B617B6827
:1052B0007A695A607B683A69DA613B685A687B6848
:1052C0001A647B68FA681A6200BF1C37BD465DF835
:1052D000047B7047FF8FFFFE000001400004014087
:1052E00080B487B000AFF860B9607A6000237B615A
:1052F00000233B61FB681B6A3B61FB681B6A23F070
:105300000102FB681A62FB689B697B617B6923F081
:10531000F0037B617B681B017A6913437B613B6906
:1053200023F00A033B613A69BB6813433B61FB68A6
:105330007A699A61FB683A691A6200BF1C37BD46F8
:105340005DF8047B704780B487B000AFF860B96047
:105350007A6000237B6100233B61FB681B6A23F0BA
:105360001002FB681A62FB689B697B61FB681B6A21
:105370003B617B6923F470437B617B681B037A6923
:1053800013437B613B6923F0A0033B61BB681B01B6
:105390003A6913433B61FB687A699A61FB683A6931
:1053A0001A6200BF1C37BD465DF8047B704780B4AD
:1053B00085B000AF78600B467B800023FB607B6884
:1053C0009B68FB60FB6823F07003FB607B8843F005
:1053D00007039BB21A46FB681343FB607B68FA68BD
:1053E0009A6000BF1437BD465DF8047B704780B4F7
:1053F00087B000AFF860B9607A603B6000237B61E2
:10540000FB689B687B617B6923F47F437B613B681E
:105410001A027B681A43BB6813437A6913437B61A2
:10542000FB687A699A6000BF1C37BD465DF8047B53
:10543000704780B487B000AFF860B9607A6000232D
:105440007B610122BB6802FA03F37B61FB681A6A85
:105450007B69DB431A40FB681A62FB681A6A796849
:10546000BB6801FA03F31A43FB681A6200BF1C37DA
:10547000BD465DF8047B704780B582B000AF002365
:105480007B60234A224B1B6C43F080531364204BF8
:105490001B6C03F080533B603B681E4A1D4B1B682E
:1054A00043F480331360FDF717FE786009E0FDF7E1
:1054B00013FE02467B68D31AB3F57A7F01D9032322
:1054C00022E0144B5B6803F48033B3F5803FEED1E8
:1054D000104A104B1B6843F400331360FDF7FCFDCA
:1054E000786009E0FDF7F8FD02467B68D31AB3F552
:1054F0007A7F01D9032307E0064B5B6803F400338E
:10550000B3F5003FEED1002318460837BD4680BDF5
:10551000003802400070004080B489B000AF78606D
:1055200039600023FB6100237B6100233B61002382
:10553000BB610023FB6175E10122FB6902FA03F301
:105540007B613B681A687B6913403B613A697B6900
:105550009A4240F064813B685B68022B03D03B6851
:105560005B68122B23D1FB69DA087B68083253F899
:105570002230BB61FB6903F007039B000F2202FA94
:1055800003F3DB43BA691340BB613B681A69FB69EB
:1055900003F007039B0002FA03F3BA691343BB61EC
:1055A000FB69DA087B680832B96943F822107B6826
:1055B0001B68BB61FB695B00032202FA03F3DB4358
:1055C000BA691340BB613B685B6803F00302FB6987
:1055D0005B0002FA03F3BA691343BB617B68BA69E3
:1055E0001A603B685B68012B0BD03B685B68022B41
:1055F00007D03B685B68112B03D03B685B68122BBC
:1056000030D17B689B68BB61FB695B00032202FAB7
:1056100003F3DB43BA691340BB613B68DA68FB699B
:105620005B0002FA03F3BA691343BB617B68BA6992
:105630009A607B685B68BB610122FB6902FA03F335
:10564000DB43BA691340BB613B685B681B0903F02D
:105650000102FB6902FA03F3BA691343BB617B6879
:10566000BA695A607B68DB68BB61FB695B00032237
:1056700002FA03F3DB43BA691340BB613B689A68E3
:10568000FB695B0002FA03F3BA691343BB617B68F1
:10569000BA69DA603B685B6803F08053002B00F066
:1056A000BE80654A644B5B6C43F480435364624B39
:1056B0005B6C03F48043FB60FB68604AFB699B08FA
:1056C000023352F82330BB61FB6903F003039B00F4
:1056D0000F2202FA03F3DB43BA691340BB617B6814
:1056E000574A934237D07B68564A934231D07B6801
:1056F000554A93422BD07B68544A934225D07B680D
:10570000534A93421FD07B68524A934219D07B6818
:10571000514A934213D07B68504A93420DD07B6824
:105720004F4A934207D07B684E4A934201D10923E6
:1057300012E00A2310E008230EE007230CE0062302
:105740000AE0052308E0042306E0032304E0022323
:1057500002E0012300E00023FA6902F00302920054
:105760009340BA691343BB613449FB699B08023318
:10577000BA6941F823203C4B1B68BB613B69DB43A2
:10578000BA691340BB613B685B6803F48033002B4C
:1057900003D0BA693B691343BB61334ABB691360E9
:1057A000314B5B68BB613B69DB43BA691340BB614A
:1057B0003B685B6803F40033002B03D0BA693B6994
:1057C0001343BB61284ABB695360274B9B68BB618D
:1057D0003B69DB43BA691340BB613B685B6803F418
:1057E0008013002B03D0BA693B691343BB611E4A87
:1057F000BB6993601C4BDB68BB613B69DB43BA69E7
:105800001340BB613B685B6803F40013002B03D0BB
:10581000BA693B691343BB61134ABB69D360FB6937
:105820000133FB61FB690F2B7FF686AE00BF243787
:10583000BD465DF8047B70470038024000380140E7
:10584000000002400004024000080240000C024038
:10585000001002400014024000180240001C0240E8
:105860000020024000240240003C014080B485B08A
:1058700000AF78600B467B807B681A697B88134099
:10588000002B02D00123FB7301E00023FB73FB7BA1
:1058900018461437BD465DF8047B704780B483B06A
:1058A00000AF78600B467B8013467B707B78002BC3
:1058B00003D07A887B689A6103E07B881A047B684E
:1058C0009A6100BF0C37BD465DF8047B704780B419
:1058D00083B000AF78600B467B807B685A697B8819
:1058E0005A407B685A6100BF0C37BD465DF8047BA7
:1058F000704780B483B000AF78607B6893F8353030
:10590000DBB2022B04D07B6880225A6501230CE0B5
:105910007B68052283F835207B681B687A681268EB
:10592000126822F001021A60002318460C37BD46A7
:105930005DF8047B704780B483B000AF7860396055
:105940007B6893F84130DBB2202B38D17B6893F829
:105950004030012B01D1022332E07B68012283F821
:1059600040207B68242283F841207B681B687A688A
:105970001268126822F001021A607B681B687A685C
:105980001268126822F480521A607B681B687A6879
:10599000126811683A680A431A607B681B687A6863
:1059A0001268126842F001021A607B68202283F8B4
:1059B00041207B68002283F84020002300E002237E
:1059C00018460C37BD465DF8047B704780B485B03F
:1059D00000AF786039600023FB607B6893F841304A
:1059E000DBB2202B39D17B6893F84030012B01D1F9
:1059F000022333E07B68012283F840207B68242265
:105A000083F841207B681B687A681268126822F06C
:105A100001021A607B681B681B68FB60FB6823F44B
:105A20007063FB603B681B02FA681343FB607B6892
:105A30001B68FA681A607B681B687A6812681268CB
:105A400042F001021A607B68202283F841207B68C3
:105A5000002283F84020002300E002231846143778
:105A6000BD465DF8047B704780B588B000AF7860B4
:105A700000237B6100233B610023FB600023FB616B
:105A80000023BB617B681B6803F00103002B12D06D
:105A9000694A694B9B6823F4000393606649664B2F
:105AA0009A687B685B6B13438B607B685B6B002B36
:105AB00001D10123FB617B681B6803F40023002BE9
:105AC00017D05D495C4BD3F88C3023F440127B68CF
:105AD000DB6B1343C1F88C307B68DB6BB3F5801F45
:105AE00001D10123FB617B68DB6B002B01D101231A
:105AF000BB617B681B6803F48013002B17D04E49F1
:105B00004D4BD3F88C3023F440027B681B6C13435D
