:020000040801F1
:1000000000000520E5BF010835A3010843A301084E
:1000100049A301084FA3010855A3010800000000EF
:1000200000000000000000000000000041930108F3
:100030005BA30108000000001195010869A30108F5
:1000400035C0010835C0010835C0010835C00108B8
:1000500035C0010835C0010835C0010835C00108A8
:1000600035C0010835C0010835C0010835C0010898
:1000700035C0010835C0010835C0010835C0010888
:1000800035C0010835C0010835C0010835C0010878
:1000900035C0010835C0010835C0010835C0010868
:1000A00035C0010835C0010835C0010835C0010858
:1000B00075A3010835C0010889A3010835C00108EE
:1000C00035C0010835C0010835C00108F1B4010888
:1000D00035C0010835C0010835C0010835C0010828
:1000E00035C0010835C0010835C0010835C0010818
:1000F00035C0010835C0010835C0010835C0010808
:1001000035C0010835C0010835C0010835C00108F7
:1001100005B4010835C0010835C0010835C0010823
:1001200035C0010835C0010835C0010835C00108D7
:1001300035C0010835C0010835C0010835C00108C7
:1001400035C0010835C0010835C0010835C00108B7
:1001500035C0010835C0010835C0010835C00108A7
:1001600035C0010835C0010835C0010835C0010897
:1001700035C0010835C0010835C001080000000085
:1001800035C0010835C0010835C0010835C0010877
:1001900035C0010835C0010835C0010835C0010867
:1001A00035C0010835C0010835C0010835C0010857
:1001B00035C0010835C0010835C0010835C0010847
:0801C00035C0010835C001083B
:100200000348044B834202D0034B03B118477047A5
:100210005001002050010020000000000548064960
:10022000091A891001EBD171491002D0034B03B1B7
:1002300018477047500100205001002000000000C6
:1002400010B5064C237843B9FFF7DAFF044B13B11E
:100250000448AFF300800123237010BD500100203B
:100260000000000038C0010808B5044B1BB1044968
:100270000448AFF30080BDE80840CFE7000000006D
:100280005401002038C0010881F0004102E000BFA5
:1002900083F0004330B54FEA41044FEA430594EA46
:1002A000050F08BF90EA020F1FBF54EA000C55EA81
:1002B000020C7FEA645C7FEA655C00F0E2804FEA52
:1002C0005454D4EB5555B8BF6D420CDD2C4480EA34
:1002D000020281EA030382EA000083EA010180EA64
:1002E000020281EA0303362D88BF30BD11F0004FB2
:1002F0004FEA01314FF4801C4CEA113102D04042E8
:1003000061EB410113F0004F4FEA03334CEA133322
:1003100002D0524263EB430394EA050F00F0A7803A
:10032000A4F10104D5F1200E0DDB02FA0EFC22FA35
:1003300005F2801841F1000103FA0EF2801843FA29
:1003400005F359410EE0A5F120050EF1200E012A1A
:1003500003FA0EFC28BF4CF0020C43FA05F3C01858
:1003600051EBE37101F0004507D54FF0000EDCF1D1
:10037000000C7EEB00006EEB0101B1F5801F1BD37A
:10038000B1F5001F0CD349085FEA30004FEA3C0C7E
:1003900004F101044FEA445212F5800F80F09A8074
:1003A000BCF1004F08BF5FEA500C50F1000041EB78
:1003B000045141EA050130BD5FEA4C0C404141EB7C
:1003C000010111F4801FA4F10104E9D191F0000FA3
:1003D00004BF01460020B1FA81F308BF2033A3F126
:1003E0000B03B3F120020CDA0C3208DD02F1140C1D
:1003F000C2F10C0201FA0CF021FA02F10CE002F158
:100400001402D8BFC2F1200C01FA02F120FA0CFC50
:10041000DCBF41EA0C019040E41AA2BF01EB045199
:10042000294330BD6FEA04041F3C1CDA0C340EDC97
:1004300004F11404C4F1200220FA04F001FA02F3DA
:1004400040EA030021FA04F345EA030130BDC4F198
:100450000C04C4F1200220FA02F001FA04F340EA8D
:100460000300294630BD21FA04F0294630BD94F03E
:10047000000F83F4801306BF81F480110134013D25
:100480004EE77FEA645C18BF7FEA655C29D094EA96
:10049000050F08BF90EA020F05D054EA000C04BF14
:1004A0001946104630BD91EA030F1EBF00210020FF
:1004B00030BD5FEA545C05D14000494128BF41F09E
:1004C000004130BD14F580043CBF01F5801130BD02
:1004D00001F0004545F0FE4141F470014FF000008D
:1004E00030BD7FEA645C1ABF194610467FEA655C3E
:1004F0001CBF0B46024650EA013406BF52EA0335E0
:1005000091EA030F41F4002130BD00BF90F0000FCD
:1005100004BF0021704730B54FF4806404F1320409
:100520004FF000054FF0000150E700BF90F0000FC2
:1005300004BF0021704730B54FF4806404F13204E9
:1005400010F0004548BF40424FF000013EE700BFB9
:1005500042004FEAE2014FEA31014FEA02701FBF49
:1005600012F07F4393F07F4F81F06051704732F07B
:100570007F4208BF704793F07F4F04BF41F40021D2
:10058000704730B54FF4607401F0004521F0004130
:100590001CE700BF50EA010208BF704730B54FF0BA
:1005A00000050AE050EA010208BF704730B511F0BB
:1005B000004502D5404261EB41014FF4806404F1F3
:1005C00032045FEA915C3FF4D8AE4FF003025FEA79
:1005D000DC0C18BF03325FEADC0C18BF033202EBFD
:1005E000DC02C2F1200300FA03FC20FA02F001FA57
:1005F00003FE40EA0E0021FA02F11444BDE600BFFA
:1006000070B54FF0FF0C4CF4E06C1CEA11541DBFA8
:100610001CEA135594EA0C0F95EA0C0F00F0DEF873
:100620002C4481EA030621EA4C5123EA4C5350EA58
:10063000013518BF52EA033541F4801143F48013A9
:1006400038D0A0FB02CE4FF00005E1FB02E506F03A
:100650000042E0FB03E54FF00006E1FB03569CF08F
:10066000000F18BF4EF0010EA4F1FF04B6F5007F95
:1006700064F5407404D25FEA4E0E6D4146EB060607
:1006800042EAC62141EA55514FEAC52040EA5E5090
:100690004FEACE2EB4F1FD0C88BFBCF5E06F1ED83A
:1006A000BEF1004F08BF5FEA500E50F1000041EB71
:1006B000045170BD06F0004646EA010140EA02001E
:1006C00081EA0301B4EB5C04C2BFD4EB0C0541EA40
:1006D000045170BD41F480114FF0000E013C00F355
:1006E000AB8014F1360FDEBF002001F0004170BD79
:1006F000C4F10004203C35DA0C341BDC04F1140492
:10070000C4F1200500FA05F320FA04F001FA05F21D
:1007100040EA020001F0004221F0004110EBD370EA
:1007200021FA04F642EB06015EEA430E08BF20EA16
:10073000D37070BDC4F10C04C4F1200500FA04F3B9
:1007400020FA05F001FA04F240EA020001F000414B
:1007500010EBD37041F100015EEA430E08BF20EABE
:10076000D37070BDC4F1200500FA05F24EEA020E06
:1007700020FA04F301FA05F243EA020321FA04F035
:1007800001F0004121FA04F220EA020000EBD370EC
:100790005EEA430E08BF20EAD37070BD94F0000FEC
:1007A0000FD101F00046400041EB010111F4801F20
:1007B00008BF013CF7D041EA060195F0000F18BFD1
:1007C000704703F00046520043EB030313F4801F0D
:1007D00008BF013DF7D043EA0603704794EA0C0FC7
:1007E0000CEA135518BF95EA0C0F0CD050EA4106DD
:1007F00018BF52EA4306D1D181EA030101F000415A
:100800004FF0000070BD50EA410606BF1046194681
:1008100052EA430619D094EA0C0F02D150EA01368D
:1008200013D195EA0C0F05D152EA03361CBF1046CE
:1008300019460AD181EA030101F0004141F0FE416D
:1008400041F470014FF0000070BD41F0FE4141F4F1
:10085000780170BD70B54FF0FF0C4CF4E06C1CEAF1
:1008600011541DBF1CEA135594EA0C0F95EA0C0FA6
:1008700000F0A7F8A4EB050481EA030E52EA033561
:100880004FEA013100F088804FEA03334FF0805582
:1008900045EA131343EA12634FEA022245EA1115AF
:1008A00045EA10654FEA00260EF000419D4208BF60
:1008B000964244F1FD0404F5407402D25B084FEA0D
:1008C0003202B61A65EB03055B084FEA32024FF4B9
:1008D00080104FF4002CB6EB020E75EB030E22BF16
:1008E000B61A754640EA0C005B084FEA3202B6EBD6
:1008F000020E75EB030E22BFB61A754640EA5C0085
:100900005B084FEA3202B6EB020E75EB030E22BF14
:10091000B61A754640EA9C005B084FEA3202B6EB15
:10092000020E75EB030E22BFB61A754640EADC00D4
:1009300055EA060E18D04FEA051545EA16754FEA36
:1009400006164FEAC30343EA52734FEAC2025FEA54
:100950001C1CC0D111F4801F0BD141EA00014FF0E3
:1009600000004FF0004CB6E711F4801F04BF0143B4
:100970000020B4F1FD0C88BFBCF5E06F3FF6AFAED0
:10098000B5EB030C04BFB6EB020C5FEA500C50F160
:10099000000041EB045170BD0EF0004E4EEA1131E3
:1009A00014EB5C04C2BFD4EB0C0541EA045170BDEA
:1009B00041F480114FF0000E013C90E645EA060E2E
:1009C0008DE60CEA135594EA0C0F08BF95EA0C0F5C
:1009D0003FF43BAF94EA0C0F0AD150EA01347FF4A4
:1009E00034AF95EA0C0F7FF425AF104619462CE77B
:1009F00095EA0C0F06D152EA03353FF4FDAE1046DE
:100A0000194622E750EA410618BF52EA43067FF42E
:100A1000C5AE50EA41047FF40DAF52EA43057FF4BE
:100A2000EBAE12E74A0011D212F5001211D20DD529
:100A30006FF47873B3EB62520ED44FEAC12343F0E4
:100A4000004343EA505323FA02F070474FF000008E
:100A5000704750EA013002D14FF0FF3070474FF03D
:100A60000000704753B94AB9002908BF00281CBFCD
:100A70004FF0FF314FF0FF3000F072B9ADF1080CCC
:100A80006DE904CE00F006F8DDF804E0DDE90223AC
:100A900004B070472DE9F047089E04468846002BB5
:100AA0004BD18A42154667D9B2FA82F24AB1C2F1F5
:100AB000200701FA02F320FA07F7954047EA0308F6
:100AC00094404FEA154E230CB8FBFEF71FFA85FC45
:100AD0000EFB178843EA084307FB0CF1994209D93A
:100AE000EB1807F1FF3080F01B81994240F218812A
:100AF000023F2B445B1AA4B2B3FBFEF00EFB103393
:100B000044EA034400FB0CFCA44509D92C1900F16C
:100B1000FF3380F00781A44540F2048102382C4461
:100B200040EA0740A4EB0C0400271EB1D440002388
:100B3000C6E900433946BDE8F0878B4209D9002E4B
:100B400000F0EB800027C6E9000138463946BDE8D1
:100B5000F087B3FA83F7002F47D18B4202D382424A
:100B600000F2FA80841A61EB030301209846002EFC
:100B7000E0D0C6E90048DDE702B9FFDEB2FA82F252
:100B8000002A40F08F80491B4FEA154E1FFA85F866
:100B90000127B1FBFEFC230C0EFB1C1143EA0143B1
:100BA00008FB0CF1994207D9EB180CF1FF3002D287
:100BB000994200F2CD808446591AA3B2B1FBFEF0EF
:100BC0000EFB101443EA044408FB00F8A04507D9C3
:100BD0002C1900F1FF3302D2A04500F2B68018466E
:100BE000A4EB080440EA0C409FE7C7F1200CBB408F
:100BF00022FA0CFE4EEA030E01FA07F420FA0CF575
:100C000021FA0CF34FEA1E482543B3FBF8F92C0CEC
:100C100008FB19331FFA8EFA44EA034309FB0AF46E
:100C20009C4202FA07F200FA07F10BD91EEB03030C
:100C300009F1FF3080F087809C4240F28480A9F166
:100C4000020973441B1BADB2B3FBF8F008FB103371
:100C500045EA034400FB0AFAA24508D91EEB040446
:100C600000F1FF336BD2A24569D90238744440EADF
:100C70000940A0FB0289A4EB0A044C45C2464B463E
:100C800054D351D0002E69D0B1EB0A0564EB0304B4
:100C900004FA0CFCFD40FC404CEA0505C6E9005492
:100CA000002747E7C2F1200320FA03F7954001FA35
:100CB00002F021FA03F34FEA154E3843010CB3FB5F
:100CC000FEF71FFA85F80EFB173341EA034107FBD5
:100CD00008F38B4204FA02F407D9691807F1FF3CC4
:100CE0002FD28B422DD9023F2944CB1A81B2B3FBBC
:100CF000FEF00EFB103341EA034100FB08F38B4288
:100D000007D9691800F1FF3C17D28B4215D9023878
:100D10002944C91A40EA07473BE73746304609E706
:100D20000746E7E61846FBE64145ABD2B8EB020AB8
:100D300069EB0E0201381346A4E76046E9E718465E
:100D400095E76746D1E781467CE702382C4447E7C0
:100D5000ACF1020C2B442FE7384608E73746E9E6AA
:100D6000704700BF70B50D4E0D4D761BB61006D006
:100D70000024013455F8043B9847A642F9D1094EA6
:100D8000094D761B0BF058F9B61006D0002401343B
:100D900055F8043B9847A642F9D170BDECC4010850
:100DA000ECC40108F0C40108ECC40108024B014680
:100DB000186800F043B900BFC0000020024B014694
:100DC000186800F0E7B800BFC0000020844641EA80
:100DD000000313F003036DD1403A41D351F8043BB3
:100DE00040F8043B51F8043B40F8043B51F8043B05
:100DF00040F8043B51F8043B40F8043B51F8043BF5
:100E000040F8043B51F8043B40F8043B51F8043BE4
:100E100040F8043B51F8043B40F8043B51F8043BD4
:100E200040F8043B51F8043B40F8043B51F8043BC4
:100E300040F8043B51F8043B40F8043B51F8043BB4
:100E400040F8043B51F8043B40F8043B51F8043BA4
:100E500040F8043B51F8043B40F8043B403ABDD213
:100E6000303211D351F8043B40F8043B51F8043BB5
:100E700040F8043B51F8043B40F8043B51F8043B74
:100E800040F8043B103AEDD20C3205D351F8043B44
:100E900040F8043B043AF9D2043208D0D2071CBF10
:100EA00011F8013B00F8013B01D30B880380604639
:100EB000704700BF082A13D38B078DD010F00303AF
:100EC0008AD0C3F10403D21ADB071CBF11F8013B1F
:100ED00000F8013B80D331F8023B20F8023B7BE76E
:100EE000043AD9D3013A11F8013B00F8013BF9D299
:100EF0000B7803704B7843708B7883706046704733
:100F0000F0B4860743D0541E002A3ED0CAB203462E
:100F100002E014F1FF3438D303F8012B9D07F8D118
:100F2000032C2BD9CDB245EA05250F2C45EA054502
:100F300016D9A4F110073F0903F1200606EB0716A6
:100F400003F1100242E9045542E902551032B2425F
:100F5000F8D104F00F040137032C03EB07130DD96C
:100F60001E462246043A032A46F8045BFAD8221F9A
:100F700022F003020432134404F003042CB1C9B27A
:100F80001C4403F8011B9C42FBD1F0BC7047144683
:100F90000346C5E779B338B551F8043C0C1F002B64
:100FA000B8BFE418054600F067FD234B1A682AB164
:100FB000A2420DD921686018824230D06260284672
:100FC0001C60BDE8384000F059BDA34203D81A4662
:100FD0005368002BF9D111685018A04213D00BD8D8
:100FE00021686018834220D0636054602846BDE8C1
:100FF000384000F043BD70470C232B602846BDE805
:10100000384000F03BBD2068014450188342116015
:10101000ECD1D3E90003014453601160E6E7D2E963
:101020000002014462602160C9E7D3E90003014482
:10103000636021605460D9E76C010020F8B5CD1CD5
:1010400025F0030508350C2D38BF0C25002D06466C
:101050003ADBA94238D82A4F00F00EFD3A6852B167
:1010600013685B1B04D433E023685B1B25D5224641
:101070005468002CF8D1796800293BD029463046C5
:1010800000F0B4F8431C2AD0C41C24F00304A0428E
:1010900005D0211A304600F0A9F801301FD0256094
:1010A000304600F0EBFC04F10B0020F00700231D9C
:1010B000C31A01D05A42E250F8BD0B2B0BD8A24202
:1010C00015D063685360EBE70C2333600020F8BD54
:1010D0000B2B0BD9144623601C442560E0E70C233E
:1010E0003046336000F0CAFC0020F8BD54683C6014
:1010F0001446D5E7304600F079F87860BEE700BFC7
:101100006C01002083692DE9F04180460E46F3B161
:1011100084682F4B9C4228D02E4B9C4231D02E4BC2
:101120009C4208BFD8F80C40A3891B0722D523692D
:1011300003B3013EA36816F8015F013BA3609DB3B2
:10114000002B21DB23685A1C22601D70F2E700F09F
:10115000ABFBD8F81830D8F80840002BD9D140465E
:1011600000F0A2FB1A4B9C42D6D1D8F80440A389C8
:101170001B07DCD42146404600F050F90028D8D0A7
:101180000EE0D8F80840CFE7A769BB4222462946BF
:10119000404601DB0A2DD5D100F0E0F80130C9D17D
:1011A0004FF0FF30BDE8F081002B07DB23680A22F7
:1011B000591C21601A701046BDE8F0812246404655
:1011C0000A2100F0CBF80130EAD00A20BDE8F08116
:1011D00060C4010840C4010820C40108024B014654
:1011E0001868FFF78FBF00BFC000002038B5074C5C
:1011F000002305460846236001F0FAF9431C00D09D
:1012000038BD2368002BFBD02B6038BD1046002072
:1012100000000000000000000000000000000000CE
:1012200000000000000000000000000000000000BE
:1012300000000000000000000000000000000000AE
:1012400090F800F06DE9024520F007016FF0000C06
:1012500010F0070491F820F040F049804FF00004AE
:101260006FF00700D1E9002391F840F000F1080089
:1012700082FA4CF2A4FA8CF283FA4CF3A2FA8CF3C1
:101280004BBBD1E9022382FA4CF200F10800A4FA28
:101290008CF283FA4CF3A2FA8CF3E3B9D1E904237C
:1012A00082FA4CF200F10800A4FA8CF283FA4CF3B3
:1012B000A2FA8CF37BB9D1E9062301F1200182FA6D
:1012C0004CF200F10800A4FA8CF283FA4CF3A2FA73
:1012D0008CF3002BC6D0002A04BF04301A4612BA81
:1012E000B2FA82F2FDE8024500EBD2007047D1E984
:1012F000002304F00305C4F100004FEAC50514F013
:10130000040F91F840F00CFA05F562EA05021CBFE3
:1013100063EA050362464FF00004A9E730B59BB0CD
:10132000074D00916FF00044049169460594CDE9A2
:10133000024500F07FFC009B00221A701BB030BDFC
:101340000802FFFF10B4044C13460A460146206809
:101350005DF8044BFFF7E2BFC0000020F8B50D4672
:101360001446064608B1836943B3254B9C422AD0F4
:10137000244B9C4229D0244B9C4208BFF468A3898B
:10138000A269A2601A0722D5236903B322686169A2
:10139000D31AEDB299422F4629DD0133A168501CC2
:1013A0000139A1602060157062699A4216D0A38944
:1013B000DB0701D50A2D11D03846F8BD00F074FACC
:1013C0000F4B9C42D4D17468D9E7B468D7E7214663
:1013D000304600F023F838B92369D7E72146304674
:1013E00000F038F90028E7D04FF0FF37E4E7214656
:1013F000304600F02FF90028F6D122680123CDE70E
:1014000060C4010840C4010820C40108024B0A4618
:1014100001461868FFF7A2BFC00000203B4B70B523
:101420001D6806460C460DB1AB69DBB1384B9C42DA
:101430001ED0384B9C424AD0374B9C4208BFEC68C8
:10144000B4F90C2093B2190718D5206908B313F02A
:1014500001022CD0636900225B42A361A26060B3E9
:10146000002070BD284600F01FFA294B9C42E0D1B5
:101470006C68B4F90C2093B21907E6D4DD063CD5AC
:10148000580726D4206942F00803A3819BB20028A4
:10149000DDD103F42072B2F5007FD8D0304621466A
:1014A00000F0A0FAA389206913F00102D2D19907B4
:1014B00058BF6269A2600028D2D1B4F90C301A0674
:1014C000CFD543F04003A3814FF0FF3070BDAC682F
:1014D000B6E7616B51B104F14403994204D0304640
:1014E000FFF758FDB4F90C20002363630023206943
:1014F000636022F024022060C5E742F04002092325
:1015000033604FF0FF30A28170BD00BFC0000020EB
:1015100060C4010840C4010820C401088B891A076F
:101520002DE9F0410C4680463CD44A68002A54DD3F
:10153000E56A002D4ED00022D8F80060216AC8F874
:10154000002013F480527CD101234046A847431C5D
:1015500047D0A389E56A216A5F0705D56268636B96
:10156000801A0BB1236CC01A024600234046A847DC
:10157000451C42D0A38922692260DB044FF000029F
:10158000626000D56065616BC8F8006011B304F15A
:101590004403994202D04046FFF7FCFC0020606300
:1015A000BDE8F0810E69AEB10D680E609A070CBF00
:1015B0004B690023AD1B8B600AE02B463246A76ABD
:1015C000216A4046B8470028A5EB0005064428DDFF
:1015D000002DF2DC0020BDE8F0810A6C002AA7DCB7
:1015E000F8E7D8F80030002BB3D01D2B01D0162B14
:1015F00029D1C8F800600020EDE7D8F800201D2AA6
:1016000017D8134BB4F90C10D340DB4313F001038C
:1016100011D12569C904C4E90053B4D5002AB2D157
:10162000B0E7A38943F04003A3814FF0FF30BDE84A
:10163000F081B4F90C1041F04001A1814FF0FF306E
:10164000C9E7606D88E7A38943F04003A381C2E73F
:10165000010040200B6923B310B5044682B008B1E5
:101660008369BBB1104B994212D0104B994216D0EE
:101670000F4B994208BFE168B1F90C3013B9002053
:1016800002B010BD204602B0BDE81040FFF746BFD3
:101690006168F1E7019100F007F90199E2E7A168BB
:1016A000EAE70020704700BF60C4010840C4010899
:1016B00020C4010820B1054B01461868FFF7CABFD6
:1016C000034B0449186800F035B900BFC000002082
:1016D0001CC401085516010800207047014900F09C
:1016E00029B900BF551601080020704770B54A1E81
:1016F000682505FB02F50E4605F17401FFF79EFC17
:10170000044640B100210C30666005F1680221609A
:10171000A060FFF7F5FB204670BD00BF1E4B70B503
:101720001D68AB69064643B34835D5E90134013B32
:1017300005D51EE0013B5A1C04F1680419D0B4F928
:101740000C20002AF6D10025144B6566C4E900552B
:10175000A560C4E90455A5612946E360082204F1A7
:101760005C00FFF7CDFBC4E90D55C4E912552046D6
:1017700070BD286828B10546D7E7284600F010F864
:10178000D2E704213046FFF7B1FF28600028F2D1EC
:101790000C2304463360EAE71CC401080100FFFF84
:1017A0002DE9F84F334B34491A68816290424FF06B
:1017B0000003C0E91233036504BF012383610546BA
:1017C000FFF7ACFF68602846FFF7A8FFA86028462F
:1017D000FFF7A4FF6E68E86000240423F3607466DA
:1017E000C6E90044B460C6E90444B461214606F188
:1017F0005C000822FFF784FBDFF888B0AF68DFF8F1
:1018000088A0DFF88890DFF888801C4BC6F830800D
:10181000C6E9086BC6E90AA92146FB6008227C6676
:10182000C7E90044BC60C7E90444BC6107F15C003F
:10183000FFF766FBEE68124BC7F83080C7E9087BFC
:10184000C7E90AA92146F3607466C6E90044B4609A
:10185000C6E90444B46106F15C000822FFF750FBBE
:101860000123C6E9086BC6E90AA9C6F83080AB6156
:10187000BDE8F88F1CC40108DD160108090001004D
:10188000120002005122010879220108B522010844
:10189000D5220108024B0349186800F04BB800BF7D
:1018A0001CC4010855160108836903B978E770471D
:1018B000704700BF704700BF704700BF704700BF50
:1018C000024B0349186800F00FB800BFC0000020A9
:1018D000D9160108024B0349186800F005B800BF8B
:1018E000C0000020E91601082DE9F04110F1480779
:1018F0001BD088460026D7E90154013D0FD4A389A7
:10190000012B05F1FF35204605D9B4F90E3001331E
:1019100001D0C04706436B1C04F16804EFD13F6857
:10192000002FE8D13046BDE8F0813E463046BDE8A4
:10193000F08100BF2DE9F84310F148071FD0884619
:1019400006464FF00009D7E90154013D11D4A3899F
:10195000012B05F1FF352146304606D9B4F90E308A
:10196000013302D0C04749EA00096B1C04F1680446
:10197000EDD13F68002FE6D14846BDE8F883B9466F
:101980004846BDE8F88300BF70B50C46B1F90E10AB
:10199000002996B016461D460FDAA38900221B06C1
:1019A0002A6005D44FF480630020336016B070BD08
:1019B00040230020336016B070BD6A4600F0B6FCCC
:1019C0000028EADB019B03F47043A3F50053B3FA4C
:1019D00083F35B094FF4806200202B60326016B005
:1019E00070BD00BF8A8992070B4606D501F14702F8
:1019F00001211A60C3E90421704770B582B001ABC0
:101A00006A460C460546FFF7BFFF00990646284682
:101A1000FFF714FBB4F90C30D8B11649A962019A4A
:101A20000099206043F08003A381C4E904011AB93E
:101A30003343A38102B070BD2846B4F90E1000F004
:101A400089FCA0B1A38923F0030343F001031BB277
:101A5000EEE79A05EED423F0030304F1470243F0C6
:101A600002030121A3812260C4E90421E2E7B4F961
:101A70000C30DDE7DD160108704700BF704700BF7E
:101A80002DE9F0478E681D46AE420C460B6817469E
:101A900027D88046888910F4906F31D0D1E9041698
:101AA00006EB4606A3EB010906EBD6766B1C761017
:101AB0004B44B342324684BF1E463246430521D5CD
:101AC00011464046FFF7BAFA824678B34A46216982
:101AD000FFF77CF9A38923F4906343F08003A3818B
:101AE00015E02E4618462A46394600F0B1FCA26899
:101AF0002368961B2B44A66023600020BDE8F08776
:101B00003546EFE7404600F007FD824650B1A6EBB0
:101B100009020AEB09036661C4F810A02360A26001
:101B20002E46DFE721694046FFF734FA0C23C8F858
:101B30000030A38943F04003A3814FF0FF30DDE77D
:101B40002DE9F04F936883B09046002B6CD0176856
:101B50008D6882460C460868083742E0A38913F472
:101B6000906F2DD0D4E9041505EB4505A0EB010BD2
:101B700005EBD575701C6D105844A8422A4684BFE9
:101B800005462A465B0536D511465046FFF756FAFC
:101B900000283AD05A4621690190FFF717F9A28927
:101BA000019B22F4906242F08002A281A5EB0B021D
:101BB00003EB0B00656123612060A2603546B346EC
:101BC0005A46494600F044FCD8F80830A26820681C
:101BD000551B58449E1BA5602060C8F808601EB3C2
:101BE000083757E90296AB46002EF9D0AE42B5D27F
:101BF0003546B346E4E7504600F08EFC0346002825
:101C0000D4D121695046FFF7C5F90C23CAF800303A
:101C1000A389002243F040034FF0FF30A381C8E9BD
:101C2000012203B0BDE8F08F0020C8F8040003B023
:101C3000BDE8F08F2DE9F04F14468A899FB0150654
:101C40008946029003D50A69002A00F012810593A3
:101C500030238DF832302378904E002120220B91D2
:101C60008DF831200127002B00F09280252B25468E
:101C700003D118E0252B00F0BD8015F8013F002BA3
:101C8000F8D1B5EB040B00F0838022465B46494651
:101C90000298FFF7F5FE01307AD00B9B2A785B445F
:101CA0000B93002A74D000234FF0FF3201350693C6
:101CB000CDE908338DF85B301C93079205E0069A56
:101CC00007FA03F3134355460693AA4605221AF86A
:101CD000011B304600F06CFBD346831B0028EED17D
:101CE000069BD90644BF20228DF85B2029781A076D
:101CF00044BF2B228DF85B202A2953D0A1F1300359
:101D0000092B00F2AB80099A02E055460AF1010A5C
:101D10009AF8001002EB820203EB4202A1F13003B9
:101D2000092BD346F1D905F1020A09922E2945D093
:101D30005B4C0322204600F03BFB002857D0001BE1
:101D4000069A402404FA00F0024306920AF10104C4
:101D50009AF8001053488DF83010062200F028FB46
:101D6000002859D0504B002B49D005AB00934A4670
:101D70004E4B029806A9AFF300808046B8F1FF3FB2
:101D800006D00B9B43440B932378002B7FF46EAF5C
:101D9000B9F80C305B0654BF0B984FF0FF301FB002
:101DA000BDE8F08F059A11680432002905922DDBF9
:101DB000099169782E2905F1020AB9D19BF8011021
:101DC0002A2933D1059B9BF802101A680792043325
:101DD000002A05930BF102000BF1030A40DB304CA3
:101DE00083460322204600F0E3FA0028A7D1544698
:101DF000DA46ADE7B5EB040B3FF455AF45E7059B7D
:101E0000073323F0070308330593BAE7494243F049
:101E1000020309910693CCE705AB00934A46234B96
:101E2000029806A900F0D2F88046A7E7A1F1300099
:101E300000220928079201D917E0DA469AF8011022
:101E400002EB820200EB4202A1F1300009280AF104
:101E5000010BF2D90AF1020A079269E7AB4665E77E
:101E60004FF0FF328346079262E7D3460AF1010A38
:101E70005EE740210393FFF7E1F8039BC9F80000F8
:101E8000C9F8100018B14022C9F81420DFE6029A00
:101E90000C2313604FF0FF3081E700BFA8C4010896
:101EA000B0C40108B4C4010800000000811A010890
:101EB0002DE9F0470C4691460A698968DDF82080D3
:101EC0008A42B8BF0A46C9F8002094F84310064673
:101ED0001F4611B10132C9F80020236899065FD569
:101EE000D9F800200232C9F80020236813F0060F49
:101EF00019461DD1E1688A1A002AD8BF194617DD94
:101F000004F1190A002505E0E368D9F800209B1ABE
:101F1000AB420CDD0123524639463046C047013002
:101F200005F10105F0D14FF0FF30BDE8F0872168E1
:101F300094F84330003318BF01238A060AD5E1180C
:101F40005A1C302081F84300224494F8451082F84E
:101F50004310023304F1430239463046C047013092
:101F6000E1D02368D9F80050216903F00603042B5F
:101F7000D4E902201AD08A421FDD4FF00009521A1C
:101F800091441A34002501E04D4516D00123224624
:101F900039463046C047013005F10105F4D1C2E7AA
:101FA00013F0060F0CD1D9F80020A3E7401B8A429A
:101FB00020EAE079E3DC0028E3DC0020BDE8F087DC
:101FC00094F84330003318BF0123C3E72DE9F043F1
:101FD0000C46097E85B06E2906460C9D174698462C
:101FE00004F1430C4AD00FD8632900F0FF8000F2BF
:101FF000BF8000294ED0582940F0E18084F8451078
:102000002268DFF844E212E0732900F0C6807AD833
:102010006F2900F0DB80702940F0D180206840F00B
:10202000200222607823DFF824E284F845302B6810
:10203000191D1B682960150602D4500648BF9BB2C3
:10204000D10744BF42F020022260002B6DD1D4E9B9
:10205000001284F84330002A21F020032360A2609C
:102060007EDB21F0240121601021002A79D1654610
:1020700008294ED0ACEB050323610EE02B682268E3
:102080006169181D286015061B6802D4500600F10E
:10209000C7801960002365462361CDF800803B4668
:1020A00003AA21463046FFF703FF013020D02A461D
:1020B000236939463046C047013019D02268039859
:1020C000E368920719D51A1A002A16DD04F11909D6
:1020D000002504E0E36803981A1AAA420DDD0123E3
:1020E0004A4639463046C047013005F10105F1D175
:1020F0004FF0FF3005B0BDE8F0839842B8BF1846F6
:1021000005B0BDE8F083752960D0782957D12268E1
:1021100088E72368DB07ADD5626823699A42A9DCAA
:10212000302305F8013C013DA4E71021002284F88A
:1021300043206268A260002A2CDB206820F00400A3
:102140002060002B91D06546B3FBF1F201FB123009
:1021500013461EF8002005F8012D002BF4D187E767
:1021600010219EF8003084F8423004F142057FE7E8
:10217000642901D0692922D120682B68010603F166
:10218000040245D51B682A60002B4BDBDFF8B8E062
:102190000A21CEE7002BD6D1E3E72B686268191D30
:1021A00029601D680021284600F002F9002848D067
:1021B000401B60602061002384F843306DE70123F9
:1021C00084F84210236104F14205F4E720682B688B
:1021D00010F0800F03F1040213D01B682A606F29EE
:1021E0000CBF08210A21DFF860E09FE72B681A681E
:1021F000191D0123296084F84220236104F142055E
:10220000D9E7400653BF1B682A601B882A60E6E7AF
:10221000410653BF1B682A60B3F900302A60B3E758
:10222000198037E76268A2602D21002A84F84310E4
:10223000C3F10003DFF810E04FF00A01BFF67EAFF4
:1022400081E76068B6E700BFBCC40108D0C40108DC
:1022500010B50C46B1F90E1000F084F9002803DB2C
:10226000636D0344636510BDA38923F48053A38188
:1022700010BD00BF002070472DE9F0411646B1F9AE
:102280000C201F46D3050C460546B1F90E1007D5A4
:102290000022022300F070F8B4F90C20B4F90E10FB
:1022A00022F48052A2813B4632462846BDE8F041E6
:1022B00000F014B810B50C46B1F90E1000F05CF83F
:1022C000A389421C0EBF23F4805343F480536065FE
:1022D000A38110BDB1F90E1000F016B870B50D460F
:1022E000084C114606461A4628460023236000F093
:1022F0008DF9431C00D070BD2368002BFBD03360E8
:1023000070BD00BF1046002038B5074C00230546BD
:102310000846236000F044F9431C00D038BD236810
:10232000002BFBD02B6038BD1046002038B50B4683
:10233000074C0546114618460023236000F038F983
:10234000431C00D038BD2368002BFBD02B6038BD68
:102350001046002038B5074C002305460846236088
:1023600000F02EF9431C00D038BD2368002BFBD0B1
:102370002B6038BD1046002070B50D46084C114644
:1023800006461A4628460023236000F021F9431C24
:1023900000D070BD2368002BFBD0336070BD00BF40
:1023A00010460020000000000000000000000000B7
:1023B00001F0FF01102A2BDB10F0070F08D010F8F6
:1023C000013B013A8B422DD010F0070F42B3F6D1FA
:1023D000F0B441EA012141EA014122F007047FF013
:1023E00000070023F0E80256083C85EA010586EA6A
:1023F000010685FA47F5A3FA87F586FA47F6A5FAA6
:1024000087F68EB9EED1F0BC01F0FF0102F00702B1
:1024100032B110F8013B013A83EA010313B1F8D15C
:102420000020704701387047002D06BF354603383D
:10243000073815F0010F07D1013015F4807F02BF76
:10244000013015F4C03F0130F0BC0138704700BFC7
:102450008842F0B40DD98B1883420AD9841832B15E
:10246000224613F8014D02F8014D9942F9D1F0BC12
:1024700070470F2A49D940EA01039B0747D1A2F1CF
:1024800010031B0901F1200707EB031701F11004EA
:1024900000F1100554F8106C45F8106C54F80C6CF1
:1024A00045F80C6C54F8086C45F8086C54F8046C4A
:1024B00045F8046C1034BC4205F11005EAD1013333
:1024C00002F00F051B01032D1944034421D91F1FDE
:1024D0000E462C46043C56F804CB47F804CF032C98
:1024E000F8D82C1F24F0030404342344214402F0C0
:1024F0000302002ABBD0013B0A4411F8014B03F848
:10250000014F9142F9D1F0BC70470346F1E7034611
:10251000F1E72A46EDE700BFE1B1F8B51446E2B1B4
:1025200006460D4600F034F8A04202D32F46384646
:10253000F8BD21463046FEF781FD07460028F6D05B
:1025400022462946FEF742FC30462946FEF722FD88
:102550003846F8BD1146FEF771BDFEF71BFD274654
:10256000E5E700BF70B50D46084C114606461A4611
:1025700028460023236000F033F8431C00D070BDD0
:102580002368002BFBD0336070BD00BF10460020D5
:1025900051F8043C181F002BBCBF0B58C0187047E3
:1025A000024B58221A604FF0FF307047104600204F
:1025B000024B58221A604FF0FF307047104600203F
:1025C000024B58221A600020704700BF10460020BE
:1025D000024B58221A604FF0FF307047104600201F
:1025E000024B58221A604FF0FF307047104600200F
:1025F000044A05491368002B08BF0B4618441060B5
:10260000184670477401002018460020024B5822DB
:102610001A604FF0FF3070471046002080B582B03E
:1026200000AF78607B68002B01D101237FE07B68DD
:1026300093F84130DBB2002B06D17B68002283F88F
:102640004020786807F0C0FD7B68242283F8412091
:102650007B681B681A687B681B6822F001021A609D
:102660007B685A687B681B6822F070621A617B681D
:102670001B689A687B681B6822F400429A607B683A
:10268000DB68012B07D17B689A687B681B6842F482
:1026900000429A6006E07B689A687B681B6842F497
:1026A00004429A607B68DB68022B04D17B681B685C
:1026B0004FF400625A607B681B6859687B681A682F
:1026C0001D4B0B4353607B681B68DA687B681B6893
:1026D00022F40042DA607B681A697B685B6942EA2F
:1026E00003017B689B691A027B681B680A43DA60F6
:1026F0007B68D9697B681A6A7B681B680A431A6021
:102700007B681B681A687B681B6842F001021A60CC
:102710007B6800225A647B68202283F841207B6812
:1027200000221A637B68002283F8422000231846A7
:102730000837BD4680BD00BF0080000280B588B06C
:1027400002AFF8607A601A460B467B8113463B81E4
:1027500000237B61FB6893F84130DBB2202B40F013
:10276000E480FB6893F84030012B01D10223DDE0C7
:10277000FB68012283F8402001F0F4FD78617B6959
:102780000093192301224FF40041F86800F0FCF98E
:102790000346002B01D00323C8E0FB68212283F805
:1027A0004120FB68102283F84220FB6800225A6413
:1027B000FB687A685A62FB683A895A85FB6800228E
:1027C0005A63FB685B8D9BB2FF2B0ED9FB68FF221F
:1027D0001A85FB681B8DDAB27989564B00934FF04E
:1027E0008073F86800F050FB70E0FB685B8D9AB274
:1027F000FB681A85FB681B8DDAB279894D4B009313
:102800004FF00073F86800F03FFB5FE07A69396AC7
:10281000F86800F0F3F90346002B07D0FB685B6C07
:10282000042B01D1012381E003237FE0FB685B6A75
:10283000591CFA6851621A78FB681B689A62FB6837
:102840005B8D9BB2013B9AB2FB685A85FB681B8D7E
:10285000013B9AB2FB681A85FB681B8D002B35D1B2
:10286000FB685B8D9BB2002B30D07B6900933B6A89
:1028700000228021F86800F087F90346002B01D080
:10288000032353E0FB685B8D9BB2FF2B0ED9FB68E3
:10289000FF221A85FB681B8DDAB279890023009329
:1028A0004FF08073F86800F0EFFA0FE0FB685B8D83
:1028B0009AB2FB681A85FB681B8DDAB2798900230E
:1028C00000934FF00073F86800F0DEFAFB685B8D50
:1028D0009BB2002B9AD17A69396AF86800F0CEF978
:1028E0000346002B07D0FB685B6C042B01D101234E
:1028F0001CE003231AE0FB681B682022DA61FB68F6
:102900001B685968FB681A680B4B0B405360FB68E7
:10291000202283F84120FB68002283F84220FB68D4
:10292000002283F84020002300E0022318461837D5
:10293000BD4680BD0020008000E800FE80B588B064
:1029400002AFF8607A601A460B467B8113463B81E2
:1029500000237B61FB6893F84130DBB2202B40F011
:10296000E580FB6893F84030012B01D10223DEE0C3
:10297000FB68012283F8402001F0F4FC78617B6958
:102980000093192301224FF40041F86800F0FCF88D
:102990000346002B01D00323C9E0FB68222283F801
:1029A0004120FB68102283F84220FB6800225A6411
:1029B000FB687A685A62FB683A895A85FB6800228C
:1029C0005A63FB685B8D9BB2FF2B0ED9FB68FF221D
:1029D0001A85FB681B8DDAB27989574B00934FF04B
:1029E0008073F86800F050FA71E0FB685B8D9AB272
:1029F000FB681A85FB681B8DDAB279894E4B009310
:102A00004FF00073F86800F03FFA60E07A69396AC5
:102A1000F86800F06FF90346002B07D0FB685B6C89
:102A2000042B01D1012382E0032380E0FB681B68B3
:102A3000586AFB685B6A591CFA685162C2B21A7024
:102A4000FB681B8D013B9AB2FB681A85FB685B8DA6
:102A50009BB2013B9AB2FB685A85FB681B8D002B29
:102A600035D1FB685B8D9BB2002B30D07B69009326
:102A70003B6A00228021F86800F086F80346002BAC
:102A800001D0032353E0FB685B8D9BB2FF2B0ED973
:102A9000FB68FF221A85FB681B8DDAB27989002357
:102AA00000934FF08073F86800F0EEF90FE0FB68D8
:102AB0005B8D9AB2FB681A85FB681B8DDAB2798947
:102AC000002300934FF00073F86800F0DDF9FB6815
:102AD0005B8D9BB2002B99D17A69396AF86800F056
:102AE000CDF80346002B07D0FB685B6C042B01D1AB
:102AF00001231CE003231AE0FB681B682022DA6133
:102B0000FB681B685968FB681A680C4B0B405360E4
:102B1000FB68202283F84120FB68002283F84220D2
:102B2000FB68002283F84020002300E002231846BF
:102B30001837BD4680BD00BF0024008000E800FEBD
:102B400080B483B000AF78607B681B689B6903F03A
:102B50000203022B03D17B681B6800229A627B6808
:102B60001B689B6903F00103012B07D07B681B687E
:102B70009A697B681B6842F001029A6100BF0C37BA
:102B8000BD465DF8047B704780B584B000AFF86047
:102B9000B9603B601346FB711CE03B68B3F1FF3F3B
:102BA00018D03B68002B07D001F0DCFB0246BB6964
:102BB000D31A3A689A420DD2FB68202283F841204A
:102BC000FB68002283F84220FB68002283F8402043
:102BD00003230FE0FB681B689A69BB681340BA685F
:102BE0009A420CBF01230023DBB21A46FB799A42BA
:102BF000D3D0002318461037BD4680BD80B584B0C1
:102C000000AFF860B9607A602CE07A68B968F8685B
:102C100000F0DCF80346002B01D001232AE0BB685A
:102C2000B3F1FF3F1ED0BB68002B07D001F09AFB29
:102C300002467B68D31ABA689A4213D2FB685B6C6F
:102C400043F02002FB685A64FB68202283F841208D
:102C5000FB68002283F84220FB68002283F84020B2
:102C6000032307E0FB681B689B6903F00203022B48
:102C7000CBD1002318461037BD4680BD80B584B047
:102C800000AFF860B9607A6028E07A68B968F868DF
:102C900000F09CF80346002B01D0012326E0BB681E
:102CA000002B07D001F05EFB02467B68D31ABA689E
:102CB0009A4213D2FB685B6C43F02002FB685A64B3
:102CC000FB68202283F84120FB68002283F8422021
:102CD000FB68002283F84020032307E0FB681B68A1
:102CE0009B6903F02003202BCFD100231846103717
:102CF000BD4680BD80B584B000AFF860B9607A6031
:102D000055E07A68B968F86800F060F80346002B6F
:102D100001D0012353E0FB681B689B6903F020038B
:102D2000202B29D1FB681B689B6903F00403042B4B
:102D300005D1FB681B8D002B01D000233FE0FB6811
:102D40001B682022DA61FB681B685968FB681A68F7
:102D50001D4B0B405360FB6800225A64FB68202225
:102D600083F84120FB68002283F84220FB680022A0
:102D700083F84020012322E0BB68002B07D001F03C
:102D8000F1FA02467B68D31ABA689A420FD2FB68FE
:102D90005B6C43F02002FB685A64FB68202283F8D6
:102DA0004120FB68002283F84020032307E0FB68F2
:102DB0001B689B6903F00403042BA2D1002318466F
:102DC0001037BD4680BD00BF00E800FE80B584B06E
:102DD00000AFF860B9607A60FB681B689B6903F01C
:102DE0001003102B48D11CE0BB68B3F1FF3F18D093
:102DF000BB68002B07D001F0B5FA02467B68D31AF6
:102E0000BA689A420DD2FB68202283F84120FB6801
:102E1000002283F84220FB68002283F8402003232D
:102E20002BE0FB681B689B6903F02003202BDBD1A0
:102E3000FB681B681022DA61FB681B682022DA61DC
:102E4000F868FFF77DFEFB681B685968FB681A6825
:102E50000C4B0B405360FB6804225A64FB68202231
:102E600083F84120FB68002283F84220FB6800229F
:102E700083F84020012300E0002318461037BD46A8
:102E800080BD00BF00E800FE80B485B000AFF860F0
:102E90007B600B467B8113467B72FB681B685A681C
:102EA000BB695B0D03F480610D4B0B43DB4302EA0E
:102EB00003017B89C3F309027B7A1B0403F47F03BC
:102EC0001A437B681A43BB691A43FB681B680A43B1
:102ED0005A6000BF1437BD465DF8047B704700BFE1
:102EE000FF63FF0380B586B000AFF860B960C7E943
:102EF00000230123FB75274B1B7D012B01D10223EE
:102F000043E0244B01221A754CF2503000F078F85F
:102F10000346FB75FB7D002B33D1FB68032B23D8C5
:102F200001A252F823F000BF392F0108452F0108F4
:102F3000512F01085D2F01083B781946B86800F051
:102F400019F912E03B881946B86800F0EDF80CE07A
:102F50003B681946B86800F0C3F806E0D7E90023DB
:102F6000B86800F08DF800E000BF4CF2503000F07F
:102F700047F80346FB75084B1B69074A23F001031A
:102F80001361044B00221A75FB7D18461837BD46A5
:102F900080BD00BF2C3F0020003C024080B483B0C5
:102FA00000AF0023FB710B4B1B69002B0BDA094BA5
:102FB000094A5A60074B094A5A60064B1B69002BA5
:102FC00001DA0123FB71FB7918460C37BD465DF829
:102FD000047B7047003C024023016745AB89EFCD7D
:102FE00080B400AF054B1B69044A43F000431361F2
:102FF00000231846BD465DF8047B7047003C024044
:1030000080B584B000AF78600023FB601A4B0022CB
:103010009A6101F0A7F9F86010E07B68B3F1FF3F17
:103020000CD07B68002B07D001F09CF90246FB68AE
:10303000D31A7A689A4201D2032319E00F4BDB6856
:1030400003F48033002BE8D10C4BDB6803F0F20370
:10305000002B03D000F0B2F8012309E0074BDB6836
:1030600003F00103002B02D0044B0122DA6000239D
:1030700018461037BD4680BD2C3F0020003C024062
:1030800090B484B000AFF860C7E90023134B1B690C
:10309000124A23F440731361104B1B690F4A43F427
:1030A000407313610D4B1B690C4A43F0010313611C
:1030B000FB683A681A60D7E900124FF000034FF03E
:1030C000000413000024FA6804321360BFF34F8F2A
:1030D00000BF1037BD4690BC704700BF003C0240A7
:1030E00080B483B000AF786039600E4B1B690D4A25
:1030F00023F4407313610B4B1B690A4A43F40073BA
:103100001361084B1B69074A43F0010313617B6895
:103110003A681A60BFF34F8F00BF0C37BD465DF8A9
:10312000047B7047003C024080B483B000AF7860FD
:103130000B467B800E4B1B690D4A23F440731361D1
:103140000B4B1B690A4A43F480731361084B1B69DC
:10315000074A43F0010313617B687A881A80BFF342
:103160004F8F00BF0C37BD465DF8047B704700BF32
:10317000003C024080B483B000AF78600B46FB7027
:103180000D4B1B690C4A23F4407313610A4B0A4A26
:103190001B691361084B1B69074A43F00103136164
:1031A0007B68FA781A70BFF34F8F00BF0C37BD46AB
:1031B0005DF8047B704700BF003C024080B400AF64
:1031C000214BDB6803F00203002B05D01F4B9B69EA
:1031D00043F020031D4A93611B4BDB6803F010038F
:1031E000002B05D0194B9B6943F01003174A9361DC
:1031F000154BDB6803F02003002B05D0134B9B69B4
:1032000043F00803114A93610F4BDB6803F040035E
:10321000002B05D00D4B9B6943F004030B4A9361CF
:10322000094BDB6803F08003002B05D0074B9B693B
:1032300043F00203054A9361034BF222DA6000BFB8
:10324000BD465DF8047B7047003C02402C3F0020E7
:1032500080B485B000AF78607B6803F00703FB6043
:103260000B4BDB68BB60BA684FF6FF031340BB60D3
:10327000FB681A02BB681A43064B1343BB60044A3F
:10328000BB68D36000BF1437BD465DF8047B704750
:1032900000ED00E00000FA0580B400AF044BDB68ED
:1032A0001B0A03F007031846BD465DF8047B704710
:1032B00000ED00E080B483B000AF0346FB71FB7902
:1032C00003F01F02074997F907305B09012000FA54
:1032D00002F241F8232000BF0C37BD465DF8047BA5
:1032E000704700BF00E100E080B483B000AF034648
:1032F0003960FB7197F90730002B0BDA3B68DAB2C3
:103300000C49FB7903F00F03043B1201D2B20B44CA
:103310001A7609E03B68DAB2074997F907301201DB
:10332000D2B20B4483F8002300BF0C37BD465DF8D2
:10333000047B704700ED00E000E100E080B489B05C
:1033400000AFF860B9607A60FB6803F00703FB61C7
:10335000FB69C3F10703042B28BF0423BB61FB698E
:103360000433062B02D9FB69033B00E000237B6199
:103370004FF0FF32BB6902FA03F3DA43BB681A402D
:103380007B699A404FF0FF317B6901FA03F3D9431F
:103390007B680B40134318462437BD465DF8047B19
:1033A0007047000080B400AFBFF34F8F054BDB6860
:1033B00003F4E0620349044B1343CB60BFF34F8F28
:1033C00000BFFDE700ED00E00400FA0580B582B023
:1033D00000AF78607B68013BB3F1807F01D30123AC
:1033E0000FE00A4A7B68013B53600F214FF0FF302A
:1033F000FFF77AFF054B00229A60044B07221A6000
:10340000002318460837BD4680BD00BF10E000E02D
:1034100080B582B000AF78607868FFF719FF00BF11
:103420000837BD4680BD80B586B000AF0346B960A1
:103430007A60FB7300237B61FFF72EFF78617A6867
:10344000B9687869FFF77AFF024697F90F3011469D
:103450001846FFF749FF00BF1837BD4680BD80B54D
:1034600082B000AF0346FB7197F907301846FFF7AB
:1034700021FF00BF0837BD4680BD80B500AFFFF714
:1034800091FF00BF80BD80B582B000AF78607868E2
:10349000FFF79CFF034618460837BD4680BD000075
:1034A00080B483B000AF78607B68042B06D1094BF1
:1034B0001B68084A43F00403136005E0054B1B68D2
:1034C000044A23F00403136000BF0C37BD465DF8C7
:1034D000047B704710E000E080B582B000AF7860F8
:1034E0007B68002B01D1012343E07B6893F86930AE
:1034F000DBB2002B06D17B68002283F86820786855
:1035000006F012FC7B68242283F869207B681B6824
:103510001A687B681B6822F001021A60786800F064
:10352000BBFB0346012B01D1012322E07B685B6AD0
:10353000002B02D0786800F01FFE7B681B685A6879
:103540007B681B6822F490425A607B681B689A680B
:103550007B681B6822F02A029A607B681B681A68E5
:103560007B681B6842F001021A60786800F0A6FED2
:10357000034618460837BD4680BD80B588B002AF07
:10358000F860B9603B601346FB8000237B61FB68F9
:1035900093F86930DBB2202B76D1BB68002B02D0C8
:1035A000FB88002B01D101236FE0FB6893F86830A2
:1035B000012B01D1022368E0FB68012283F8682017
:1035C000FB680022DA66FB68212283F8692000F09C
:1035D000C9FE7861FB68FA88A3F85020FB68FA8876
:1035E000A3F8522033E0FB68B3F852309BB2013BA2
:1035F0009AB2FB68A3F852203B6800937B690022D3
:103600008021F86800F0D2F90346002B01D0032393
:103610003BE0FB689B68B3F5805F11D1FB681B69D9
:10362000002B0DD1BB683B613B691B881A46FB68C8
:103630001B68C2F308029A62BB680233BB6006E0F3
:10364000BB685A1CBA601A78FB681B689A62FB68F0
:10365000B3F852309BB2002BC5D13B6800937B6915
:1036600000224021F86800F0A1F90346002B01D0A8
:1036700003230AE0FB68202283F86920FB6800220C
:1036800083F86820002300E0022318461837BD465F
:1036900080BD80B485B000AFF860B9601346FB8090
:1036A000FB6893F86A30DBB2202B72D1BB68002B29
:1036B00002D0FB88002B01D101236BE0FB6893F85B
:1036C0006830012B01D1022364E0FB68012283F8FA
:1036D0006820FB68BA685A65FB68FA88A3F8582026
:1036E000FB68FA88A3F85A20FB689B68B3F5805FF3
:1036F0000ED1FB681B69002B05D1FB6840F2FF125D
:10370000A3F85C2028E0FB68FF22A3F85C2023E0FC
:10371000FB689B68002B0DD1FB681B69002B04D153
:10372000FB68FF22A3F85C2016E0FB687F22A3F869
:103730005C2011E0FB689B68B3F1805F0CD1FB68F3
:103740001B69002B04D1FB687F22A3F85C2003E0F7
:10375000FB683F22A3F85C20FB680022DA66FB6866
:10376000222283F86A20FB68002283F86820FB6825
:103770001B689A68FB681B6842F001029A60FB684C
:103780001B681A68FB681B6842F490721A60002379
:1037900000E0022318461437BD465DF8047B7047ED
:1037A00080B586B000AF78607B681B68DB697B61A1
:1037B0007B681B681B683B617B681B689B68FB60C0
:1037C0007B6903F00F03BB60BB68002B0DD17B69E5
:1037D00003F02003002B08D03B6903F02003002BEB
:1037E00003D0786800F0CFF9DAE0BB68002B00F076
:1037F000B980FB6803F00103002B05D13B6903F49A
:103800009073002B00F0AE807B6903F00103002B66
:103810000ED03B6903F48073002B09D07B681B68D2
:1038200001221A627B68DB6E43F001027B68DA6674
:103830007B6903F00203002B0ED0FB6803F0010349
:10384000002B09D07B681B6802221A627B68DB6E42
:1038500043F004027B68DA667B6903F00403002B03
:103860000ED0FB6803F00103002B09D07B681B68B6
:1038700004221A627B68DB6E43F002027B68DA6620
:103880007B6903F00803002B13D03B6903F020038E
:10389000002B04D1FB6803F00103002B09D07B68E7
:1038A0001B6808221A627B68DB6E43F008027B68A3
:1038B000DA667B68DB6E002B71D07B6903F0200336
:1038C000002B07D03B6903F02003002B02D078685F
:1038D00000F059F97B68DB6E03F00803002B06D17A
:1038E0007B681B689B6803F04003002B31D078682D
:1038F00000F0B4F97B681B689B6803F04003002B61
:1039000023D07B681B689A687B681B6822F04002A2
:103910009A607B685B6E002B13D07B685B6E224ADB
:103920001A657B685B6E184603F085F90346002B29
:1039300016D07B685B6E1B6D7A68526E1046984796
:103940000EE0786800F0A6F80AE0786800F0A2F8C7
:1039500006E0786800F09EF87B680022DA661EE0D8
:1039600000BF1CE07B6903F08003002B08D03B699B
:1039700003F08003002B03D0786800F095F80FE087
:103980007B6903F04003002B0AD03B6903F040033E
:10399000002B05D0786800F0DEF800BF00E000BF23
:1039A0001837BD4680BD00BF413A010880B584B0DC
:1039B00000AFF860B9603B601346FB712CE0BB6957
:1039C000B3F1FF3F28D0BB69002B07D000F0CAFC41
:1039D00002463B68D31ABA699A421DD8FB681B6835
:1039E0001A68FB681B6822F4D0721A60FB681B68B7
:1039F0009A68FB681B6822F001029A60FB6820222B
:103A000083F86920FB68202283F86A20FB68002283
:103A100083F8682003230FE0FB681B68DA69BB6842
:103A20001340BA689A420CBF01230023DBB21A4646
:103A3000FB799A42C3D0002318461037BD4680BD9B
:103A400080B584B000AF78607B689B6BFB60FB68DF
:103A50000022A3F85A20FB680022A3F85220F8683D
:103A600000F018F800BF1037BD4680BD80B483B0A9
:103A700000AF786000BF0C37BD465DF8047B70472F
:103A800080B483B000AF786000BF0C37BD465DF8EE
:103A9000047B704780B483B000AF786000BF0C3700
:103AA000BD465DF8047B704780B485B000AF786098
:103AB0007B6893F86930DBB2212B45D17B68B3F882
:103AC00052309BB2002B11D17B681B681A687B684F
:103AD0001B6822F080021A607B681B681A687B688A
:103AE0001B6842F040021A6000232EE07B689B684E
:103AF000B3F5805F14D17B681B69002B10D17B6804
:103B0000DB6CFB60FB681B881A467B681B68C2F392
:103B100008029A627B68DB6C9A1C7B68DA6408E0B6
:103B20007B68DB6C591C7A68D1641A787B681B68E7
:103B30009A627B68B3F852309BB2013B9AB27B68C1
:103B4000A3F85220002300E0022318461437BD4694
:103B50005DF8047B704780B582B000AF78607B6809
:103B60001B681A687B681B6822F040021A607B6839
:103B7000202283F869207868FFF778FF0023184631
:103B80000837BD4680BD90B585B000AF78607B68D2
:103B9000B3F85C30FB817B6893F86A30DBB2222B90
:103BA0004FD17B689B68B3F5805F15D17B681B693B
:103BB000002B11D17B685B6DBB607B681B685B6A07
:103BC0009AB2FB8913409AB2BB681A807B685B6D1E
:103BD0009A1C7B685A650DE07B681B685B6AD9B2EA
:103BE000FB89DAB27B685B6D5C1C786844650A40CF
:103BF000D2B21A707B68B3F85A309BB2013B9BB2C9
:103C00007A681946A2F85A10002B18D17B681B68F5
:103C10001A687B681B6822F490721A607B681B68C4
:103C20009A687B681B6822F001029A607B682022F8
:103C300083F86A207868FFF723FF00230AE0002357
:103C400008E07B681B689A697B681B6842F0080281
:103C50009A61022318461437BD4690BD80B483B0E4
:103C600000AF78607B681B681A687B681B6822F469
:103C700090721A607B681B689A687B681B6822F0E8
:103C800001029A607B68202283F86A2000BF0C370B
:103C9000BD465DF8047B704780B586B000AF7860A4
:103CA0000023FB601023FB7500237B810023BB8274
:103CB0000023FB747B689A687B681B691A437B68E6
:103CC0005B691A437B68DB691343FB607B681B6895
:103CD0001A68AD4B13407A681268F9680B43136099
:103CE0007B681B685B6823F440517B68DA687B68FB
:103CF0001B680A435A607B689A697B681B6A134396
:103D0000FB607B681B689B6823F430617B681B68E1
:103D1000FA680A439A607B681B689C4A93421FD1E9
:103D20009B4BD3F8903003F00303032B00F229815F
:103D300001A252F823F000BF493D0108553D01089A
:103D40004F3D01085B3D01080123FB7519E102238A
:103D5000FB7516E10423FB7513E10823FB7510E1E5
:103D60007B681B688B4A934230D1894BD3F89030E3
:103D700003F00C030C2B00F2048101A252F823F093
:103D8000B53D0108833F0108833F0108833F0108D7
:103D9000C13D0108833F0108833F0108833F0108BB
:103DA000BB3D0108833F0108833F0108833F0108B1
:103DB000C73D01080023FB75E3E00223FB75E0E04B
:103DC0000423FB75DDE00823FB75DAE07B681B68E4
:103DD000714A93421CD16E4BD3F8903003F03003FC
:103DE000102B0FD0102B02D8002B05D0C9E0202BB0
:103DF00005D0302B09D0C4E00023FB75C1E00223BD
:103E0000FB75BEE00423FB75BBE00823FB75B8E03F
:103E10007B681B68614A93421CD15D4BD3F890309C
:103E200003F0C003402B0FD0402B02D8002B05D04D
:103E3000A7E0802B05D0C02B09D0A2E00023FB75A2
:103E40009FE00223FB759CE00423FB7599E00823A7
:103E5000FB7596E07B681B68514A934220D14C4B1E
:103E6000D3F8903003F44073B3F5807F12D0B3F5EC
:103E7000807F02D8002B07D083E0B3F5007F06D007
:103E8000B3F5407F09D07CE00023FB7579E0022385
:103E9000FB7576E00423FB7573E00823FB7570E087
:103EA0007B681B683F4A934220D1394BD3F890304E
:103EB00003F44063B3F5806F12D0B3F5806F02D87E
:103EC000002B07D05DE0B3F5006F06D0B3F5406F6F
:103ED00009D056E00123FB7553E00223FB7550E047
:103EE0000423FB754DE00823FB754AE07B681B68E3
:103EF0002D4A934220D1264BD3F8903003F44053FF
:103F0000B3F5805F12D0B3F5805F02D8002B07D0E5
:103F100037E0B3F5005F06D0B3F5405F09D030E07D
:103F20000023FB752DE00223FB752AE00423FB75BB
:103F300027E00823FB7524E07B681B681B4A93423B
:103F400036D1134BD3F8903003F44043B3F5804F90
:103F500012D0B3F5804F02D8002B07D011E0B3F593
:103F6000004F06D0B3F5404F09D00AE00023FB759F
:103F700007E00223FB7504E00423FB7501E008233E
:103F8000FB7500BF15E000BFF369FFEF00100140B3
:103F9000003802400044004000480040004C00400F
:103FA000005000400014014000780040007C0040B8
:103FB00000BF7B68DB69B3F5004F6CD1FB7D082B3C
:103FC00054D801A252F823F0ED3F0108094001083E
:103FD000254001086D4001083B4001086D40010883
:103FE0006D4001086D4001085740010801F056F886
:103FF00003465A007B685B685B081A447B685B6811
:10400000B2FBF3F3BB8234E001F05CF803465A00E4
:104010007B685B685B081A447B685B68B2FBF3F300
:10402000BB8226E07B685B685A08514B13447A6870
:104030005268B3FBF2F3BB821BE000F04BFF034678
:104040005A007B685B685B081A447B685B68B2FB5C
:10405000F3F3BB820DE07B685B685B0803F580329D
:104060007B685B68B2FBF3F3BB8202E00123FB7465
:1040700000BFBB8A23F00F037B81BB8A5B109BB21E
:1040800003F007039AB27B8913437B817B681B682B
:104090007A89DA6067E0FB7D082B61D801A252F8CB
:1040A00023F000BFC9400108E940010809410108A7
:1040B0006141010825410108614101086141010890
:1040C000614101084541010800F0E8FF02467B68B4
:1040D0005B685B081A447B685B68B2FBF3F39AB2D7
:1040E0007B681B68DA603EE000F0ECFF02467B680C
:1040F0005B685B081A447B685B68B2FBF3F39AB2B7
:104100007B681B68DA602EE07B685B685A08194B95
:1041100013447A685268B3FBF2F39AB27B681B6867
:10412000DA6020E000F0D6FE02467B685B685B0840
:104130001A447B685B68B2FBF3F39AB27B681B6836
:10414000DA6010E07B685B685B0803F500427B681F
:104150005B68B2FBF3F39AB27B681B68DA6002E03B
:104160000123FB7400BFFB7C18461837BD4680BD99
:104170000048E8010024F40080B483B000AF786008
:104180007B685B6A03F00103002B0AD07B681B6825
:104190005B6823F400317B689A6A7B681B680A437A
:1041A0005A607B685B6A03F00203002B0AD07B68CD
:1041B0001B685B6823F480317B68DA6A7B681B6864
:1041C0000A435A607B685B6A03F00403002B0AD041
:1041D0007B681B685B6823F480217B681A6B7B68B3
:1041E0001B680A435A607B685B6A03F00803002B74
:1041F0000AD07B681B685B6823F400417B685A6BBC
:104200007B681B680A435A607B685B6A03F0100393
:10421000002B0AD07B681B689B6823F480517B6865
:104220009A6B7B681B680A439A607B685B6A03F041
:104230002003002B0AD07B681B689B6823F4005185
:104240007B68DA6B7B681B680A439A607B685B6AF1
:1042500003F04003002B1AD07B681B685B6823F4D3
:1042600080117B681A6C7B681B680A435A607B6804
:104270001B6CB3F5801F0AD17B681B685B6823F455
:10428000C0017B685A6C7B681B680A435A607B6874
:104290005B6A03F08003002B0AD07B681B685B68B5
:1042A00023F400217B689A6C7B681B680A435A6080
:1042B00000BF0C37BD465DF8047B704780B586B003
:1042C00002AF78600023FB607B680022DA6600F0B2
:1042D00049F8F8607B681B681B6803F00803082B2B
:1042E0000ED16FF07E430093FB6800224FF4001163
:1042F0007868FFF75BFB0346002B01D003230CE03B
:104300007B68202283F869207B68202283F86A205A
:104310007B68002283F86820002318461037BD46CA
:1043200080BD80B500AF0320FFF772F8002007F0D2
:1043300011F806F0DDFF0023184680BD80B400AF01
:10434000064B1B781A46064B1B681344044A13603D
:1043500000BFBD465DF8047B704700BF240100200C
:10436000483F002080B400AF034B1B681846BD4691
:104370005DF8047B704700BF483F002080B584B0E3
:1043800000AF7860FFF7EEFFB8607B68FB60FB680A
:10439000B3F1FF3F05D0094B1B781A46FB68134465
:1043A000FB6000BFFFF7DEFF0246BB68D31AFA6866
:1043B0009A42F7D800BF1037BD4680BD24010020C7
:1043C00080B485B000AF786039607B6893F83C308A
:1043D000012B01D102233DE07B68012283F83C20C0
:1043E0007B681B685B68FB607B681B689B68BB60C5
:1043F0007B681B681A4A934204D07B681B68194A81
:10440000934208D1FB6823F47003FB603B685B6850
:10441000FA681343FB60FB6823F07003FB603B68A2
:104420001B68FA681343FB60BB6823F08003BB6022
:104430003B689B68BA681343BB607B681B68FA687B
:104440005A607B681B68BA689A607B68002283F8B0
:104450003C20002318461437BD465DF8047B7047A6
:10446000000001400004014080B483B000AF7860D8
:1044700000BF0C37BD465DF8047B704780B483B045
:1044800000AF786000BF0C37BD465DF8047B704715
:1044900080B584B000AFF860B9607A60FB6893F8CB
:1044A0003C30012B01D1022305E1FB68012283F896
:1044B0003C20FB68022283F83D207B68142B00F22D
:1044C000F08001A252F823F01D450108A34601081F
:1044D000A3460108A34601085D450108A34601085B
:1044E000A3460108A34601089F450108A346010809
:1044F000A3460108A3460108DF450108A3460108B9
:10450000A3460108A346010821460108A346010865
:10451000A3460108A346010861460108FB681B6821
:10452000B968184601F0B2FEFB681B689A69FB681F
:104530001B6842F008029A61FB681B689A69FB6875
:104540001B6822F004029A61FB681B689969BB68CA
:104550001A69FB681B680A439A61A3E0FB681B6841
:10456000B968184601F008FFFB681B689A69FB6888
:104570001B6842F400629A61FB681B689A69FB68D9
:104580001B6822F480629A61FB681B689969BB68AA
:104590001B691A02FB681B680A439A6182E0FB6888
:1045A0001B68B968184601F061FFFB681B68DA698F
:1045B000FB681B6842F00802DA61FB681B68DA6975
:1045C000FB681B6822F00402DA61FB681B68D9698A
:1045D000BB681A69FB681B680A43DA6162E0FB6822
:1045E0001B68B968184601F0BBFFFB681B68DA69F5
:1045F000FB681B6842F40062DA61FB681B68DA69D9
:10460000FB681B6822F48062DA61FB681B68D96969
:10461000BB681B691A02FB681B680A43DA6141E048
:10462000FB681B68B968184600F04AF8FB681B680D
:104630005A6DFB681B6842F008025A65FB681B68EC
:104640005A6DFB681B6822F004025A65FB681B6800
:10465000596DBB681A69FB681B680A435A6521E0FB
:10466000FB681B68B968184600F082F8FB681B6895
:104670005A6DFB681B6842F400625A65FB681B6850
:104680005A6DFB681B6822F480625A65FB681B68E0
:10469000596DBB681B691A02FB681B680A435A659F
:1046A00000E000BFFB68012283F83D20FB68002288
:1046B00083F83C20002318461037BD4680BD00BF5C
:1046C00080B487B000AF7860396000233B6100237D
:1046D000FB6000237B617B681B6A23F480327B686C
:1046E0001A627B681B6AFB607B685B687B617B6826
:1046F0005B6D3B613A691B4B13403B613B681B6838
:104700003A6913433B61FB6823F40033FB603B6869
:104710009B681B04FA681343FB607B68124A934250
:1047200003D07B68114A934209D17B6923F480331B
:104730007B613B685B691B027A6913437B617B6821
:104740007A695A607B683A695A653B685A687B683F
:104750009A657B68FA681A6200BF1C37BD465DF82F
:10476000047B70478FFFFEFF000001400004014002
:1047700080B487B000AF7860396000233B610023CC
:10478000FB6000237B617B681B6A23F480127B68DB
:104790001A627B681B6AFB607B685B687B617B6875
:1047A0005B6D3B613A691C4B13403B613B681B6886
:1047B0001B023A6913433B61FB6823F40013FB605F
:1047C0003B689B681B05FA681343FB607B68134AD0
:1047D000934203D07B68124A934209D17B6923F448
:1047E00080237B613B685B699B027A6913437B6131
:1047F0007B687A695A607B683A695A653B685A688F
:104800007B68DA657B68FA681A6200BF1C37BD46B0
:104810005DF8047B704700BFFF8FFFFE0000014082
:104820000004014080B586B000AF78600023FB75BE
:104830007B68002B01D101235CE27B681B6803F0DD
:104840000103002B00F08780964B9B6803F00C035C
:10485000042B0CD0934B9B6803F00C03082B12D154
:10486000904B5B6803F48003B3F5800F0BD18D4B45
:104870001B6803F40033002B6CD07B685B68002B53
:1048800068D1012336E27B685B68B3F5803F06D1CF
:10489000844B1B68834A43F4803313602EE07B68AB
:1048A0005B68002B0CD17F4B1B687E4A23F480335E
:1048B00013607C4B1B687B4A23F4802313601DE04C
:1048C0007B685B68B3F5A02F0CD1764B1B68754AEB
:1048D00043F480231360734B1B68724A43F48033A4
:1048E00013600BE06F4B1B686E4A23F48033136038
:1048F0006C4B1B686B4A23F4802313607B685B68F6
:10490000002B13D0FFF72EFD386108E0FFF72AFDDA
:1049100002463B69D31A642B01D90323EAE1614BB8
:104920001B6803F40033002BF0D014E0FFF71AFDEE
:10493000386108E0FFF716FD02463B69D31A642B85
:1049400001D90323D6E1574B1B6803F40033002B36
:10495000F0D100E000BF7B681B6803F00203002B6E
:1049600069D0504B9B6803F00C03002B0BD04D4BD0
:104970009B6803F00C03082B1CD14A4B5B6803F4C3
:104980008003002B16D1474B1B6803F00203002B5A
:1049900005D07B68DB68012B01D00123AAE1414BE4
:1049A0001B6823F0F8027B681B69DB003D49134359
:1049B0000B6040E07B68DB68002B23D0394B1B6821
:1049C000384A43F001031360FFF7CCFC386108E07C
:1049D000FFF7C8FC02463B69D31A022B01D9032317
:1049E00088E1304B1B6803F00203002BF0D02D4B05
:1049F0001B6823F0F8027B681B69DB00294913431D
:104A00000B6018E0274B1B68264A23F00103136054
:104A1000FFF7A8FC386108E0FFF7A4FC02463B69F9
:104A2000D31A022B01D9032364E11E4B1B6803F048
:104A30000203002BF0D17B681B6803F00803002BF6
:104A400038D07B685B69002B19D0164B5B6F154A19
:104A500043F001035367FFF785FC386108E0FFF777
:104A600081FC02463B69D31A022B01D9032341E1A1
:104A70000C4B5B6F03F00203002BF0D01AE0094BE4
:104A80005B6F084A23F001035367FFF76BFC386143
:104A90000AE0FFF767FC02463B69D31A022B03D9F1
:104AA000032327E100380240944B5B6F03F00203BD
:104AB000002BEED17B681B6803F00403002B00F091
:104AC000A4808E4B1B6C03F08053002B0DD18B4BBD
:104AD0001B6C8A4A43F080531364884B1B6C03F0B1
:104AE0008053FB60FB680123FB75854B1B6803F457
:104AF0008073002B18D1824B1B68814A43F480736A
:104B00001360FFF72FFC386108E0FFF72BFC02462B
:104B10003B69D31A642B01D90323EBE0784B1B6864
:104B200003F48073002BF0D07B689B68012B06D1C7
:104B3000724B1B6F714A43F0010313672DE07B68D2
:104B40009B68002B0CD16D4B1B6F6C4A23F001034B
:104B500013676A4B1B6F694A23F0040313671CE059
:104B60007B689B68052B0CD1644B1B6F634A43F039
:104B700004031367614B1B6F604A43F00103136723
:104B80000BE05E4B1B6F5D4A23F0010313675B4B29
:104B90001B6F5A4A23F0040313677B689B68002B42
:104BA00015D0FFF7DFFB38610AE0FFF7DBFB0246B9
:104BB0003B69D31A41F28832934201D9032399E029
:104BC0004E4B1B6F03F00203002BEED014E0FFF7F7
:104BD000C9FB38610AE0FFF7C5FB02463B69D31AFF
:104BE00041F28832934201D9032383E0434B1B6F88
:104BF00003F00203002BEED1FB7D012B05D13F4BCF
:104C00001B6C3E4A23F0805313647B689B69002B26
:104C10006FD03A4B9B6803F00C03082B67D07B687E
:104C20009B69022B49D1354B1B68344A23F08073B2
:104C30001360FFF797FB386108E0FFF793FB02462C
:104C40003B69D31A022B01D9032353E02B4B1B687A
:104C500003F00073002BF0D17B68DA697B681B6A74
:104C60001A437B685B6A9B011A437B689B6A5B08FB
:104C7000013B1B041A437B68DB6A1B0613431F4A74
:104C800043F0005353601D4B1B681C4A43F0807374
:104C90001360FFF767FB386108E0FFF763FB02462C
:104CA0003B69D31A022B01D9032323E0134B1B6862
:104CB00003F00073002BF0D01BE0104B1B680F4A71
:104CC00023F080731360FFF74DFB386108E0FFF7B6
:104CD00049FB02463B69D31A022B01D9032309E0A1
:104CE000064B1B6803F00073002BF0D101E0012399
:104CF00000E0002318461837BD4680BD003802404A
:104D00000070004080B584B000AF78603960002347
:104D1000FB607B68002B01D10123CEE0694B1B684F
:104D200003F00F033A689A4210D9664B1B6823F0D0
:104D30000F0264493B6813430B60624B1B6803F02E
:104D40000F033A689A4201D00123B6E07B681B68E2
:104D500003F00203002B20D07B681B6803F00403E0
:104D6000002B05D0584B9B68574A43F4E05393609F
:104D70007B681B6803F00803002B05D0524B9B682F
:104D8000514A43F4604393604F4B9B6823F0F00219
:104D90007B689B684C4913438B607B681B6803F0FE
:104DA0000103002B40D07B685B68012B07D1464B89
:104DB0001B6803F40033002B15D101237DE07B68D1
:104DC0005B68022B07D1404B1B6803F00073002B7C
:104DD00009D1012371E03C4B1B6803F00203002B57
:104DE00001D1012369E0384B9B6823F003027B6803
:104DF0005B68354913438B60FFF7B4FAF8600AE04B
:104E0000FFF7B0FA0246FB68D31A41F288329342A8
:104E100001D9032351E02C4B9B6803F00C027B6803
:104E20005B689B009A42EBD1264B1B6803F00F0393
:104E30003A689A4210D2234B1B6823F00F02214993
:104E40003B6813430B601F4B1B6803F00F033A686A
:104E50009A4201D0012330E07B681B6803F0040311
:104E6000002B08D0184B9B6823F4E0527B68DB686A
:104E7000154913438B607B681B6803F00803002B04
:104E800009D0114B9B6823F460427B681B69DB00EF
:104E90000D4913438B6000F01DF801460A4B9B68D7
:104EA0001B0903F00F03094AD35C21FA03F3084AF4
:104EB0001360002006F04EFA002318461037BD4656
:104EC00080BD00BF003C02400038024090C4010891
:104ED00048010020F0B585B000AF00237B600023BF
:104EE000FB6000233B600023BB60634B9B6803F0C7
:104EF0000C03042B07D0082B08D0002B40F0B48003
:104F00005E4BBB60B3E05E4BBB60B0E05A4B5B688E
:104F100003F03F037B60584B5B6803F48003002B76
:104F20004AD0554B5B689B094FF0000440F2FF11DB
:104F30004FF0000203EA010504EA02062946324660
:104F40004FF000034FF00004540144EAD1644B01D8
:104F500019462246491B62EB06024FF000034FF050
:104F60000004940144EA91648B015B1A64EB02042F
:104F70004FF000014FF00002E20042EA5372D90004
:104F80000B4614465B1944EB06044FF000014FF04A
:104F90000002620242EAD35259020B4614461846F6
:104FA00021467B684FF000041A462346FBF75AFD62
:104FB00003460C46FB6049E02F4B5B689B094FF0B2
:104FC000000440F2FF114FF0000203EA010504EA79
:104FD0000206294632464FF000034FF00004540108
:104FE00044EAD1644B0119462246491B62EB060292
:104FF0004FF000034FF00004940144EA91648B01E8
:105000005B1A64EB02044FF000014FF00002E20073
:1050100042EA5372D9000B4614465B1944EB06046E
:105020004FF000014FF00002A20242EA93529902AF
:105030000B461446184621467B684FF000041A467A
:105040002346FBF70FFD03460C46FB600A4B5B68EB
:105050001B0C03F0030301335B003B60FA683B6801
:10506000B2FBF3F3BB6002E0044BBB6000BFBB6864
:1050700018461437BD46F0BD003802400024F40045
:1050800000127A0080B400AF034B1B681846BD467F
:105090005DF8047B704700BF4801002080B500AF79
:1050A000FFF7F0FF0146054B9B689B0A03F00703DF
:1050B000034AD35C21FA03F3184680BD003802404E
:1050C000A0C4010880B500AFFFF7DCFF0146054B27
:1050D0009B685B0B03F00703034AD35C21FA03F3DD
:1050E000184680BD00380240A0C4010880B483B0D7
:1050F00000AF786039607B680F221A60124B9B68A2
:1051000003F003027B685A600F4B9B6803F0F002C8
:105110007B689A600C4B9B6803F4E0527B68DA6012
:10512000094B9B68DB0803F4E0527B681A61074B6C
:105130001B6803F00F023B681A6000BF0C37BD46C6
:105140005DF8047B704700BF00380240003C02401D
:1051500080B584B000AF78607B68002B01D101235B
:1051600084E07B6800229A627B6893F85D30DBB252
:10517000002B06D17B68002283F85C20786806F05B
:105180007FF87B68022283F85D207B681B681A68C1
:105190007B681B6822F040021A607B68DB68B3F50D
:1051A000E06F02D90023FB6002E04FF48053FB6004
:1051B0007B68DB68B3F5706F07D07B68DB68B3F59D
:1051C000E06F02D07B6800229A627B681B6B002B29
:1051D0000BD17B68DB68B3F5E06F03D97B680222F3
:1051E0001A6302E07B6801221A637B685A687B6855
:1051F0009B681A437B681B691A437B685B691A4387
:105200007B689B6903F400731A437B68DB691A436C
:105210007B681B6A42EA03017B689A6A7B681B68A9
:105220000A431A607B689B691B0C03F004027B68CD
:105230005B6A1A437B685B6B1A437B68DB6842EAF4
:1052400003017B681B68FA680A435A607B681B6825
:10525000DA697B681B6822F40062DA617B680022ED
:105260001A667B68012283F85D20002318461037F8
:10527000BD4680BD80B489B000AFF860B9607A6087
:105280007B800023BB6100237B610023FB77FB68ED
:1052900093F85C30012B01D1022395E0FB680122D9
:1052A00083F85C20FB6893F85D30DBB2BB61FB6880
:1052B0005B687B61BB69012B0DD07B69B3F5827F95
:1052C00006D1FB689B68002B02D1BB69042B02D07E
:1052D0000223FB7773E0BB68002B05D07B68002BB3
:1052E00002D07B88002B02D10123FB7767E0FB68AB
:1052F00093F85D30DBB2042B03D0FB68052283F802
:105300005D20FB6800221A66FB68BA689A63FB6836
:105310007A889A87FB687A88DA87FB687A681A64E1
:10532000FB687A88A3F84420FB687A88A3F84620B3
:10533000FB68DB68B3F5E06F06D9FB68254ADA64E1
:10534000FB68254A1A6505E0FB68244ADA64FB68B5
:10535000234A1A65FB68DB68B3F5E06F05D8FB6884
:10536000B3F846309BB2012B08D9FB681B685A681A
:10537000FB681B6822F480525A6007E0FB681B68D8
:105380005A68FB681B6842F480525A60FB681B68CD
:105390005A68FB681B6842F0E0025A60FB681B68B1
:1053A0001B6803F04003402B08D0FB681B681A6899
:1053B000FB681B6842F040021A6000E000BFFB6817
:1053C000002283F85C20FB7F18462437BD465DF839
:1053D000047B70475F570108C5570108175601083D
:1053E000D156010880B588B000AF78607B681B6833
:1053F0005B68FB617B681B689B68BB61BB6903F0F2
:105400004003002B0ED1BB6903F00103002B09D030
:10541000FB6903F04003002B04D07B68DB6C7868E9
:105420009847B1E0BB6903F00203002B09D0FB6988
:1054300003F08003002B04D07B681B6D78689847CD
:10544000A2E0BB6903F4B073002B00F09D80FB6900
:1054500003F02003002B00F09780BB6903F04003AA
:10546000002B23D07B6893F85D30DBB2032B11D087
:105470007B681B6E43F004027B681A6600237B6125
:105480007B681B68DB687B617B681B689B687B6152
:105490007B690BE000233B617B681B68DB683B6139
:1054A0007B681B689B683B613B696DE0BB6903F0EF
:1054B0002003002B14D07B681B6E43F001027B6835
:1054C0001A660023FB607B681B689B68FB607B6837
:1054D0001B681A687B681B6822F040021A60FB6830
:1054E000BB6903F48073002B0CD07B681B6E43F008
:1054F00008027B681A660023BB607B681B689B6898
:10550000BB60BB687B681B6E002B3CD07B681B6854
:105510005A687B681B6822F0E0025A607B680122AF
:1055200083F85D20FB6903F00203002B04D1FB69C3
:1055300003F00103002B22D07B681B685A687B684C
:105540001B6822F003025A607B689B6D002B08D019
:105550007B689B6D0E4A1A657B689B6D184601F04F
:105560006AFB7B685B6D002B0CD07B685B6D084A27
:105570001A657B685B6D184601F05DFB02E0786898
:1055800000F01CF800BF00BF2037BD4680BD00BF43
:10559000ED55010880B483B000AF786000BF0C37D0
:1055A000BD465DF8047B704780B483B000AF78607F
:1055B00000BF0C37BD465DF8047B704780B483B0F4
:1055C00000AF786000BF0C37BD465DF8047B7047C4
:1055D00080B483B000AF78607B6893F85D30DBB255
:1055E00018460C37BD465DF8047B704780B584B023
:1055F00000AF78607B689B6BFB60FB680022A3F8C0
:105600004620FB680022DA87F868FFF7D7FF00BF63
:105610001037BD4680BD80B582B000AF78607B6832
:10562000B3F846309BB2012B23D97B681B68DA683C
:105630007B681B6C92B21A807B681B6C9A1C7B681F
:105640001A647B68B3F846309BB2023B9AB27B681F
:10565000A3F846207B68B3F846309BB2012B1DD1DE
:105660007B681B685A687B681B6842F480525A60EA
:1056700014E07B681B6803F10C027B681B6C581CF0
:10568000796808641278D2B21A707B68B3F8463031
:105690009BB2013B9AB27B68A3F846207B68B3F8C3
:1056A00046309BB2002B0FD17B681B685A687B6821
:1056B0001B6822F060025A607B68DB8F9BB2002B74
:1056C00002D1786800F0C8F900BF0837BD4680BD38
:1056D00080B582B000AF78607B68DB8F9BB2012B16
:1056E00012D97B689B6B1A887B681B68DA607B68C1
:1056F0009B6B9A1C7B689A637B68DB8F9BB2023B37
:105700009AB27B68DA8710E07B689B6B591C7A68D9
:1057100091637A6812680C321B7813707B68DB8F98
:105720009BB2013B9AB27B68DA877B68DB8F9BB2C6
:10573000002B10D17B681B685A687B681B6822F0BD
:1057400080025A607B68B3F846309BB2002B02D1CE
:10575000786800F081F900BF0837BD4680BD80B58C
:1057600082B000AF78607B681B68DA687B681B6C6E
:1057700092B21A807B681B6C9A1C7B681A647B68E7
:10578000B3F846309BB2013B9AB27B68A3F846203F
:105790007B68B3F846309BB2002B0FD17B681B6847
:1057A0005A687B681B6822F040025A607B68DB8F76
:1057B0009BB2002B02D1786800F04EF900BF083789
:1057C000BD4680BD80B582B000AF78607B689B6BC2
:1057D0001A887B681B68DA607B689B6B9A1C7B6805
:1057E0009A637B68DB8F9BB2013B9AB27B68DA8756
:1057F0007B68DB8F9BB2002B10D17B681B685A68DB
:105800007B681B6822F080025A607B68B3F84630E0
:105810009BB2002B02D1786800F01EF900BF083758
:10582000BD4680BD80B584B000AFF860B9607A60D5
:105830003B604DE03B68B3F1FF3F49D03B68002B34
:1058400007D0FEF78FFD0246BB69D31A3A689A4229
:105850003ED8FB681B685A68FB681B6822F0E002B0
:105860005A60FB685B68B3F5827F11D1FB689B6867
:10587000B3F5004F04D0FB689B68B3F5806F07D188
:10588000FB681B681A68FB681B6822F040021A60FC
:10589000FB689B6AB3F5005F10D1FB681B68196851
:1058A000FB681A684DF6FF730B401360FB681B68BA
:1058B0001A68FB681B6842F400521A60FB680122F8
:1058C00083F85D20FB68002283F85C20032308E056
:1058D000FB681B689A68BB6813407A689A42A9D132
:1058E000002318461037BD4680BD80B586B000AF96
:1058F000F860B9607A603B605BE0BB68B3F5C06F8D
:1059000009D17B68002B06D1FB681B680C331B7820
:10591000DBB2FB75FB7D3B68B3F1FF3F49D03B68D1
:10592000002B07D0FEF71EFD02463B6AD31A3A68E9
:105930009A423ED8FB681B685A68FB681B6822F0D5
:10594000E0025A60FB685B68B3F5827F11D1FB68A7
:105950009B68B3F5004F04D0FB689B68B3F5806F7C
:1059600007D1FB681B681A68FB681B6822F04002BD
:105970001A60FB689B6AB3F5005F10D1FB681B6877
:105980001968FB681A684DF6FF730B401360FB68DB
:105990001B681A68FB681B6842F400521A60FB68B7
:1059A000012283F85D20FB68002283F85C2003233A
:1059B00008E0FB681B689A68BB6813407A689A42E3
:1059C0009BD1002318461837BD4680BD80B586B0F0
:1059D00002AFF860B9607A607B680093BB68002210
:1059E0004FF4C051F868FFF780FF0346002B07D043
:1059F000FB681B6E43F02002FB681A66032327E056
:105A00007B680093BB6800228021F868FFF70AFFDB
:105A10000346002B07D0FB681B6E43F02002FB6897
:105A20001A66032314E07B680093BB6800224FF4DE
:105A3000C061F868FFF759FF0346002B07D0FB68E9
:105A40001B6E43F02002FB681A66032300E000236C
:105A500018461037BD4680BD80B584B000AF786071
:105A60000023FB60FEF77EFCF8607B681B685A68C9
:105A70007B681B6822F020025A60FA68642178680B
:105A8000FFF7A4FF0346002B05D07B681B6E43F095
:105A900020027B681A667B681B6E002B15D17B6821
:105AA00093F85D30DBB2042B07D17B68012283F8C9
:105AB0005D207868FFF76EFD0EE07B68012283F8B9
:105AC0005D207868FFF770FD06E07B68012283F8AF
:105AD0005D207868FFF772FD00BF1037BD4680BDBE
:105AE00080B582B000AF78607B68002B01D10123C4
:105AF0001DE07B6893F83D30DBB2002B06D17B685C
:105B0000002283F83C20786803F0E4FF7B680222DF
